:020000040800F2
:10000000F806002089010008F71800080518000804
:10001000F5180008B1030008F91B000800000000F3
:10002000000000000000000000000000FB180008B5
:10003000B303000800000000F9180008FD180008CC
:10004000A3010008A3010008A3010008A301000800
:10005000A3010008A3010008A3010008A3010008F0
:10006000A3010008A3010008A3010008A3010008E0
:10007000A3010008A3010008A3010008A3010008D0
:10008000A3010008A3010008D1020008A301000891
:10009000A3010008A3010008A3010008A3010008B0
:1000A000A3010008A3010008A3010008A3010008A0
:1000B000A3010008A3010008A3010008A301000890
:1000C000A3010008A3010008A3010008A301000880
:1000D000A3010008C51B0008A3010008A301000834
:1000E000A3010008A3010008A301000800F002F822
:1000F00000F03AF80AA090E8000C82448344AAF188
:100100000107DA4501D100F02FF8AFF2090EBAE885
:100110000F0013F0010F18BFFB1A43F0010318473B
:10012000F424000014250000103A24BF78C878C1D8
:10013000FAD8520724BF30C830C144BF04680C60ED
:10014000704700000023002400250026103A28BF35
:1001500078C1FBD8520728BF30C148BF0B60704739
:100160001FB51FBD10B510BD00F077F81146FFF7A1
:10017000F7FF01F075FE00F095F803B4FFF7F2FF0A
:1001800003BC00F09DF8000009488047094800477B
:10019000FEE7FEE7FEE7FEE7FEE7FEE7FEE7FEE737
:1001A000FEE7FEE704480549054A064B7047000094
:1001B00079190008ED000008F8000020F80600207A
:1001C000F8020020F802002010B5431C02E010F8ED
:1001D000011B71B18107FAD14FF0013202C88C1AAC
:1001E0008C4314EAC211F9D0C01A0A0603D0C01E0B
:1001F00010BDC01A10BD0A0401D0801E10BD090236
:10020000FCD0401E10BD4FF0000200B513469446CE
:100210009646203922BFA0E80C50A0E80C50B1F15E
:100220002001BFF4F7AF090728BFA0E80C5048BF72
:100230000CC05DF804EB890028BF40F8042B08BF10
:10024000704748BF20F8022B11F0804F18BF00F80C
:10025000012B7047704770477047754600F02CF8C7
:10026000AE4605006946534620F00700854618B0A3
:1002700020B5FFF797FFBDE820404FF000064FF094
:1002800000074FF000084FF0000B21F00701AC46CB
:10029000ACE8C009ACE8C009ACE8C009ACE8C009EA
:1002A0008D46704710B50446AFF300802046BDE888
:1002B0001040FFF762BF0000004870479400002024
:1002C00001491820ABBEFEE726000200704700007F
:1002D000014800F0F3B800002000002070B504468B
:1002E00000688168C943C90717D1816821F00101FD
:1002F000816000F095FC05460AE000BF00F090FC2C
:10030000401B022804D920688068C043C00706D07B
:1003100020688068C043C007F0D0002070BDA06A8C
:1003200040F01000A062E06A40F00100E0620120AD
:1003300070BD0000F8B5002604460096006881688C
:10034000C943C9072DD0816841F001018160164879
:1003500016490068B0FBF1F000E0401E0090002854
:10036000FBD100F05DFC054616E000BF00F058FC34
:10037000401B022810D920688068C043C0070BD0FA
:10038000A06A40F01000A062E06A40F00100E06264
:1003900084F824600120F8BD20688068C043C0074D
:1003A000E4D10020F8BD00001C00002040420F00F6
:1003B000FEE7704770470000F8B50024009490F8FD
:1003C00024202546012A12D0012280F824204A68E0
:1003D0001F23072A0DD20668776B521E02EB82029A
:1003E00093409F430B6893401F43776319E00220BB
:1003F000F8BD06680D2A0AD2376BD21F02EB8202C3
:1004000093409F430B6893401F43376309E0F76AAB
:100410000D3A02EB820293409F430B6893401F43C7
:10042000F7620A68072306680A2A0AD3F7680A3AB5
:1004300002EB420293409F438B6893401F43F76057
:1004400008E0376902EB420293409F438B68934078
:100450001F4337610A68102A01D0112A20D1124B9C
:1004600002689A4217D193681B0219D4936843F427
:10047000000393600968102912D10C490C4A0968DD
:10048000B1FBF2F101EB8101490000E0491E00914E
:100490000029FBD104E0816A41F02001816201243E
:1004A00080F824502046F8BD002401401C000020A4
:1004B00040420F0070470068C06C704710B504469A
:1004C00000684168890626D50168890723D5A16A95
:1004D000C90603D4A16A41F40071A1628168C1F325
:1004E0004241072910D1217B71B9416821F02001D7
:1004F0004160A06A20F48070A062A06AC00403D4A6
:10050000A06A40F00100A0622046FFF7D3FF2168F7
:100510006FF0120008602068416809062ED5016856
:1005200049072BD5A16AC90603D4A16A41F4005139
:10053000A1628168C1F30231072909D041684905E8
:1005400015D48168C1F34241072910D1217B71B9CB
:10055000416821F080014160A06A20F48050A062CF
:10056000A06AC00503D4A06A40F00100A062204642
:10057000FFF720FF21686FF00C00086020684168D9
:1005800049060DD50068C0070AD0A06A40F4803043
:10059000A062204600F094F821686FF00100086026
:1005A00010BD00002DE9F0414FF0000704003D466A
:1005B0007ED0A06A002628B9E66284F8246020462E
:1005C00000F080F82046FFF789FEA16AC90600D432
:1005D00020B1A06A40F01000A06269E0A16A21F495
:1005E000885141F00201A1626268E169237B0A43FC
:1005F00047EA43010A43A1684FF48077B94209D022
:10060000012907D05FF0000194F814C0BCF1010F7C
:1006100002D00AE03946F7E7F3B1A36A43F02003BA
:10062000A362E36A43F00103E3622368D3F804C0E2
:100630002CF4694C4CEA010CC3F804C021688B68A7
:10064000DFF870C003EA0C0313438B60A168B94262
:100650000BD0012909D00CE0DFF85CC0A3690CEBDA
:1006600043330B4343F40061DFE7218A0D05A5F511
:1006700080152168CB6A23F470032B43CB62216879
:1006800089680E4B1940914208D1E662A16A21F0B7
:10069000020141F00101A162BDE8F081A06A20F0F1
:1006A000020040F01000A062E06A40F00100E06249
:1006B0000120F1E7FDF7E1FF00E0FFFFFE0E1FFF65
:1006C0007047000000B585B00021009101910291B2
:1006D000039100681249884220D11248816941F48F
:1006E00000718161816901F400710491816941F0B7
:1006F000040181618069694600F0040004900120D2
:10070000009003200190084800F090F90022114663
:10071000122000F0F1FA122000F0E0FA05B000BD5E
:100720000024014000100240000801402DE9F84378
:1007300000270D460446009700F072FA80462068B4
:100740008168C90508D5A06A40F02000A06284F83D
:1007500024700120BDE8F8834168C90503D4C06A4C
:1007600010F4700F2AD0022000F0F8FA3B49096813
:10077000B1FBF0F62068036939490B424FEA610189
:100780004FEAA1121FD1C3684FEA611C13EA0C0F94
:1007900019D103690B4225D1C068104222D114201F
:1007A00023E0681C0AD02DB100F03AFAA0EB080053
:1007B000A84203D920680068800725D52068006812
:1007C0008007EED52DE003690B4202D1C1681142CA
:1007D00006D0026923490A4206D1C068084203D103
:1007E000542002E0292000E0FC204643009816E057
:1007F000681C11D02DB100F013FAA0EB0800A8423C
:100800000AD90098B04207D2A06A40F00400A06262
:1008100084F8247003209DE70098401C0090B042AB
:10082000E6D321686FF012000860A06A40F40070FF
:10083000A06220688068C0F3424007280CD1207B6A
:1008400050B9A06A20F48070A062A06AC00403D4EA
:10085000A06A40F00100A06200207BE71C0000209D
:10086000244992244992240070B5044690F824004B
:1008700001280DD0012084F824002046FFF75AFDFE
:1008800002004FF0000005D084F82400104670BD2F
:10089000022070BDA16A40F20123994341F48071A6
:1008A000A1621F4D23681F49AB4218D10E6816F490
:1008B000702F14D0A66A46F48016A6620E687605DC
:1008C00005D5A66A26F4005646F48056A662A66AA6
:1008D000F6040AD5E66A26F00606E66206E0A66A8F
:1008E00026F48016A6625E68E9E7E06284F82400D8
:1008F0006FF00200186020688368C3F34243072B3F
:1009000005D1A84208D1096811F4702F04D081687C
:1009100041F480118160B9E7816841F4A001F9E7F1
:10092000002801400424014010B590F82110002255
:10093000022905D00421816380F82020012010BD08
:1009400001680B6823F00E030B6001680B6823F04D
:1009500001030B6090F84030C46B012101FA03F3EE
:10096000636080F8211080F82020104610BD000040
:1009700010B590F821100024022903D004218163CE
:1009800001243DE001680A6822F00E020A60016855
:100990000A6822F001020A601A4A0168914201D1F4
:1009A000012121E0174A1432914201D110211BE0AC
:1009B000144A2832914201D1891515E0114A3C327E
:1009C000914201D189140FE00E4A5032914202D176
:1009D0004FF4803108E00B4A6432914202D14FF467
:1009E000801101E04FF08071064A083A5160012100
:1009F00080F82110002180F82010416B01B1884758
:100A0000204610BD0800024070B5044600F008F909
:100A10000546601C02D004480078044400F000F948
:100A2000401BA042FAD370BD100000202DE9F84F02
:100A3000DFF8B891002409F1040A0AF1040B2346F7
:100A40000F270BF1040EC9E00125A5402A40AA4258
:100A50007DD1674ED1F804C0ACEB0608B44532D066
:100A600014DCBCF1030F3AD009DCBCF1000F2AD032
:100A7000BCF1010F1CD0BCF1020F31D11DE0BCF163
:100A8000110F17D0BCF1120F2AD119E0B8F5881F49
:100A900019D006DCB8F5803F15D0B8F5801F1FD1FE
:100AA00011E0B8F5001F0ED0B8F5041F18D10AE008
:100AB000CB6815E0CB681B1D12E0CB6808330FE054
:100AC000CB680C330CE08B682BB1012B4FF0080383
:100AD00003D0456104E0042302E0056100E0002347
:100AE000FF2A01D8064601E000F104064FEA84051A
:100AF00001D9A5F12005D6F8008007FA05FC28EAFF
:100B00000C0803FA05F548EA0508C6F800804D68A8
:100B1000ED0062D5374DAE6946F00106AE61AD69B4
:100B200024F0030605F001050095334D06EB050C96
:100B3000DCF80850A607360F07FA06F825EA08057C
:100B4000DFF8B880404503D14FF0000817E044E0DB
:100B5000DFF8AC80404502D14FF001080FE0DFF82C
:100B6000A480404502D14FF0020808E0DFF89880E9
:100B7000404502D14FF0030801E04FF0040808FAA5
:100B800006F848EA0508CCF808804D68D9F80060F6
:100B9000ED034D4601D5164300E096432E604D68A7
:100BA000DAF80060AD03554601D5164300E09643E0
:100BB0002E604D68DBF80060ED025D4601D51643FE
:100BC00000E096432E604D68DEF80060AD02754689
:100BD00001D5164300E096432E60641C0D682A463A
:100BE000E5407FF431AFBDE8F88F0000000401401C
:100BF00000001110001002400000014000080140F8
:100C0000000C0140001001400014014080680840C1
:100C100000D0012070470AB1016170470904FBE769
:100C20000148806870470000100000200248816879
:100C3000027811448160704710000020074810B509
:100C4000016841F010010160032000F075F80020F8
:100C500000F006F800F024F8002010BD002002404B
:100C600070B50D4D04464FF47A712878B1FBF0F061
:100C70000A490968B1FBF0F000F0C6FB48B9102C36
:100C800007D200222146501E00F036F800206C608A
:100C900070BD012070BD0000100000201C0000206D
:100CA0000C4808B5816941F001018161816901F059
:100CB00001010091C16941F08051C161C06900F03A
:100CC000805000900448416821F0E06141F00071DB
:100CD000416008BD0010024000000140002809DB0F
:100CE00000F01F02012191404009800000F1E02046
:100CF000C0F8001170470000F0B40E4B1B680C46A2
:100D0000C3F30223C3F10705042D00D90425191DDF
:100D1000072901D2002300E0DB1E012606FA05F1B7
:100D2000491E214099409E40761E16403143F0BC3A
:100D300000F063BF0CED00E0064900F00702086810
:100D40004FF6FF03184040EA0220034A10430860B0
:100D5000704700000CED00E00000FA0510B529A472
:100D600001461DCC86B08DE81D002AA02A4C0068E3
:100D700004900020012923D002293AD010291DD146
:100D800061682268D20119D5C1F38342C9031DF8F5
:100D9000020009D5616804AAC1F34041515C1F4AB1
:100DA000B2FBF1F1484301E01D4948436168490243
:100DB00004D440005FF00301B0FBF1F006B010BDB9
:100DC000226AC2F30121012903D1920701D5C80388
:100DD000F4E7022905D1626A920702D549F640403C
:100DE000ECE70329EAD121688903E7D54FF22440D3
:100DF000E4E700F033F96168C1F38131491C49002F
:100E0000DAE7000002030405060708090A0B0C0DC7
:100E10000E0F1010010200000010024000127A00B4
:100E200000093D002DE9F84305460078354CC00720
:100E300054D0E0690026C00008D4E06940F080503A
:100E4000E061E069012600F0805000902E480168C2
:100E5000C90512D40168804641F480710160FFF732
:100E6000DFFE074605E000BFFFF7DAFEC01B64287F
:100E700023D8D8F80000C005F6D5206A10F44070D9
:100E800021D0A98801F4407181421CD0206A1F49F9
:100E9000012220F440700A6000220A602062C0072C
:100EA00011D0FFF7BDFE074641F2883808E000BFC9
:100EB000FFF7B6FEC11B414502D90320BDE8F88308
:100EC000206A8007F4D5206A696820F440700843DE
:100ED00020621EB1E06920F08050E0612878800730
:100EE00005D56068A96820F4404008436060287810
:100EF000C00605D56068E96820F48000084360609A
:100F00000020DBE700100240007000404004424235
:100F10002DE9F0470F46050061D0434E306800F0E0
:100F20000700B84209D2306820F00700384330602B
:100F3000306800F00700B84251D128683B4C810767
:100F400012D5400703D5606840F4E06060602878FF
:100F5000000703D5606840F4605060606068A9686D
:100F600020F0F000084360602878C00728D0686847
:100F7000012810D02168022810D0890700292EDA14
:100F8000616821F0030101436160FFF749FE80467B
:100F900041F288390DE021688903EFE78901EDE727
:100FA000FFF73EFEA0EB0801494502D90320BDE84A
:100FB000F0876068696800F00C00B0EB810FEFD13A
:100FC000306800F00700B8420BD9306820F0070005
:100FD00038433060306800F00700B84201D001208B
:100FE000E5E72878400705D56068E96820F4E06007
:100FF000084360602878000706D56068296920F4F6
:10100000605040EAC100606000F038F86168084A4A
:10101000C1F30311515CC8400649086006480068E6
:10102000FFF71EFE0020C2E7002002400010024031
:10103000FA2500081C00002014000020044805497F
:1010400000684968044AC1F30221515CC8407047F6
:101050001C000020001002400A2600080448054930
:1010600000684968044AC1F3C221515CC840704716
:101070001C000020001002400A26000812A185B0C2
:101080000FC98DE80F0014A0144A0068049051683D
:10109000134801F00C03042B10D0082B0ED1C1F320
:1010A0008343C9031DF803000AD5516804AAC1F39C
:1010B0004041515C0A4A5043B0FBF1F005B0704723
:1010C00008494843FAE70000020304050607080937
:1010D0000A0B0C0D0E0F1010010200000010024050
:1010E00000127A0000093D002DE9F84F040070D08D
:1010F0002078C04DC00749D06868C0F3810001283E
:1011000007D06868C0F38100022809D16868C0036D
:1011100006D52868800339D560680028E7D035E017
:101120006068B0F5803F0BD010B1B0F5A02F11D0A2
:10113000286820F480302860286820F4802002E0AD
:10114000286840F480302860606890B1FFF768FD3F
:1011500006460AE0286840F480202860F0E700BFD7
:10116000FFF75EFD801B642873D828688003F7D5DD
:101170000CE0FFF755FD064605E000BFFFF750FD08
:10118000801B6428F0D828688003F7D420789A4E12
:1011900080074FF001094FF0000839D5686810F05A
:1011A0000C0F07D06868C0F38100022809D1686875
:1011B000C00306D42868800714D52069012808D107
:1011C00010E02069B0B1C6F80090FFF729FD07468E
:1011D00005E00AE1FFF724FDC01B0228C4D82868F7
:1011E0008007F7D52868616920F0F80040EAC1005F
:1011F00028600DE0C6F80080FFF712FD074604E006
:10120000FFF70EFDC01B022823D828688007F7D4FB
:10121000207800072CD57948A169D9B1C0F8009091
:10122000FFF7FEFC074604E0FFF7FAFCC01B0228AC
:101230000FD8686A8007F7D571484FF4FA510068F3
:10124000B0FBF1F0009000BF0098411E0091FAD26F
:101250000EE080E0C0F80080FFF7E2FC074604E003
:10126000FFF7DEFCC01B022875D8686A8007F7D438
:101270002078400760D5E8690027C00008D4E869F5
:1012800040F08050E861E869012700F0805000904C
:101290005C480168C90513D40168834641F4807134
:1012A0000160FFF7BDFC824606E000BFFFF7B8FC17
:1012B000A0EB0A0064284ED8DBF80000C005F5D585
:1012C000E06801280AD008B1052813D0286A20F068
:1012D00001002862286A20F0040002E0286A40F039
:1012E00001002862E06841F2883B98B1FFF798FC62
:1012F00082460BE0286A40F004002862EEE700BF57
:10130000FFF78EFCA0EB0A0159455AD8286A8007DE
:10131000F6D50CE0FFF784FC824605E0FFF780FC81
:10132000A0EB0A0159454CD8286A8007F6D41FB1B2
:10133000E86920F08050E861E06988B36968C1F32A
:101340008101022944D00228C6F8608004D0FFF74A
:1013500067FC044638E034E0FFF762FC074604E02F
:10136000FFF75EFCC01B02282BD828688001F7D449
:10137000206AB0F5803F05D16868A16820F400308C
:1013800008436860D4E908010843696821F47411CE
:1013900008436860C6F86090FFF742FC044606E028
:1013A00025E000BFFFF73CFC001B022809D8286895
:1013B0008001F7D51BE000BFFFF732FC001B0228BD
:1013C00002D90320BDE8F88F28688001F4D40EE02C
:1013D0000128F7D06868226A00F48031914204D174
:1013E000616A00F47010884201D00120EAE7002011
:1013F000E8E7000000100240000042428004424240
:101400001C0000200070004010B5401EB0F1807F2D
:1014100001D3012010BD4FF0E02460610F2160175F
:1014200000F0EBFB0020A06107202061002010BD30
:1014300070477047F8B5026804461068D168536970
:1014400010F00F0F4FF0000553D003F0010601F428
:10145000907737435FD0C20705D0CA0503D5226C09
:1014600042F001022264420705D5DA0703D0226C5C
:1014700042F002022264820705D5DA0703D0226C0B
:1014800042F004022264020707D501F02002324331
:1014900003D0226C42F008022264226C002A34D06D
:1014A000800604D5880602D5204600F086FA20681A
:1014B0004069216CC0F38010090700D430B3204686
:1014C00000F063FA2068416949061BD5416921F0A3
:1014D00040014161A06BA8B158494163A06BFFF77F
:1014E00047FA002811D0A06B416B01B0BDE8F04075
:1014F000084783060FD58B060DD52046BDE8F8407A
:1015000000F05BBA2046FFF794FFF8BD2046FFF7D6
:1015100090FF2564F8BD266B2023012E52D1C6060C
:1015200050D5CE064ED510685068009050694006E0
:101530002AD5A16B086840680004000CEAD0A68D8B
:101540008642E7D9E0858869202818D0D06820F441
:101550008070D0602068416921F0010141612068FC
:10156000416921F04001416184F83E3025632068E3
:10157000C16821F01001C160A06BFFF7D5F9A08D03
:10158000E18D401A81B219E0A08DE18D401A81B23F
:10159000E08D0028BED00029BCD0D06820F4907027
:1015A000D0602068426922F00102426184F83E3036
:1015B00025632068C26822F01002C2602046FFF74F
:1015C00037FFF8BD05062BD50D0629D594F83D004B
:1015D0002128F6D1A068B0F5805F01D12069B0B1B3
:1015E000206A411C2162216800784860E08C401E1E
:1015F0000004000CE084E4D12068C16821F080017F
:10160000C1602068C16841F04001C160F8BD206A36
:101610000088C0F308005060206A801C2062E5E763
:101620004006F3D54806F1D5D168204621F04001A7
:10163000D16084F83D3000F0E4F8F8BD7B19000873
:1016400070B5040004D094F83D00002510B106E008
:10165000012070BD84F83C50204600F023F824207F
:1016600084F83D002068C16821F40051C160204623
:1016700000F0FEF92068016921F4904101612068C1
:10168000416921F02A0141612068C16841F400519B
:10169000C1602564202084F83D0084F83E000020CD
:1016A00070BD000030B585B0002400940194029410
:1016B00003940068184988422CD11848816941F484
:1016C00080418161816901F480410491816941F027
:1016D000040181618069124D00F0040004904FF410
:1016E0000070009002200190032003906946284674
:1016F000FFF79CF92815CDE90004694628460294B5
:10170000FFF794F9002201212520FFF7F5FA2520A3
:10171000FFF7E4FA05B030BD003801400010024088
:101720000008014090F83E30202B0ED159B152B143
:1017300090F83C30012B08D0012380F83C30002386
:10174000036300F0F1B90120704702207047704731
:101750002DE9F843044690F83D001F4616460D4615
:1017600020284CD1C5B1BEB194F83C00012846D028
:10177000012084F83C004FF00008C4F8408021208C
:1017800084F83D00FFF74CFAA6848146E684A06801
:10179000B0F5805F03D004E00120BDE8F883206944
:1017A00028B12E465FF0000584F83C800EE000264C
:1017B000FAE78021204600F0D2F9A0B9AEB116F8C0
:1017C000010B21684860E08C401EE084E08C4B46B1
:1017D0004FF0000200970028EBD14FF04001204667
:1017E00000F0BDF930B10320D7E735F8020BC0F3A4
:1017F0000800E6E7202084F83D000020CDE7022025
:10180000CBE77047FEE700003EB500241148009486
:10181000019402940E4984600160047304750125EB
:1018200005614FF460214460C161FEF7BBFE08B161
:1018300072B6FEE707200094CDE9015069460548DD
:10184000FEF7BAFD002801D072B6FEE73EBD0000EB
:1018500000240140200000202DE9F04385B0002441
:1018600021480094019402940394816941F020017D
:101870008161816901F020010491816941F00401D5
:101880008161816901F004010491816941F00801DD
:1018900081618069DFF8548000F008000490002224
:1018A000E0214046FFF7B7F9DFF8449040F60347E0
:1018B000002239464846FFF7AEF9E020012502260E
:1018C000CDE90005CDE9024669464046FFF7AEF88E
:1018D00000970396CDE9015469464846FFF7A6F8FC
:1018E00005B0BDE8F0830000001002400008014090
:1018F000000C0140FEE7FEE770477047FFF796B91E
:1019000030B593B028216846FEF77DFC14210AA863
:10191000FEF779FC002501200F9510951195010423
:1019200012958DE8230004904FF4E010CDE90810E3
:10193000022407946846FFF7D7FB08B172B6FEE7AA
:101940000AA90F2081E831004FF48060CDE90D0530
:1019500002210AA8FFF7DCFA08B172B6FEE74FF4DD
:10196000004011900F940FA8FFF75CFA002801D0F7
:1019700072B6FEE713B030BD704710B5406A002163
:10198000C185C184FFF755FD10BD0168CA6822F406
:101990009072CA6001684A6922F001024A61016BD3
:1019A000012904D10168CA6822F01002CA6020210E
:1019B00080F83E1000210163704708B590F83E1092
:1019C000222901D0022008BD82684FF480539A4238
:1019D00001D1016921B1816A9A421BD04AB10AE062
:1019E0000268816A5268C2F308020A80816A891C0F
:1019F00008E0026972B10268526802F07F020A7060
:101A0000816A491C8162C18D491E0904090CC18586
:101A100003D019E002685268F1E70168CA6822F051
:101A20002002CA600168CA6822F48072CA60016834
:101A30004A6922F001024A61202180F83E10016BC0
:101A4000012903D0FFF783FE002008BD00210163B8
:101A50000168CA6822F01002CA6001680A68D206EA
:101A600002D50A6849680091818DFFF7E1FCEBE738
:101A700070B5044600680169E26821F440511143E1
:101A800001612169A0680843616908432168CA6847
:101A900041F20C639A430243CA6020684169A2691B
:101AA00021F44071114341611E492068884202D1EE
:101AB000FFF7D4FA01E0FFF7C1FA00EBC00101EB38
:101AC0000012606864218000B2FBF0F3B3FBF1F315
:101AD0006FF018067343B2FBF0F5B2FBF0F605EBBE
:101AE0008305322303EB0515B5FBF1F5B6FBF1F6E3
:101AF00005F0F00505EB0615B2FBF0F6B2FBF0F0D1
:101B0000B0FBF1F06FF01802504306EB800003EBDE
:101B10000010B0FBF1F0216800F00F00284488604D
:101B200070BD00000038014081628285C2850021BD
:101B30000164222280F83E2080F83C100168CA68C7
:101B400042F48072CA6001684A6942F001024A6147
:101B50000068C16841F02001C160002070472DE994
:101B6000F041984617460E460446069D1DE0681C47
:101B70001BD02DB1FFF754F8A0EB0800A84214D9F0
:101B80002068C16821F4D071C1602068416921F0EA
:101B900001014161202084F83D0084F83E000020CE
:101BA00084F83C000320BDE8F0812068006836EA34
:101BB000000004D00020B842D9D00020F3E7012073
:101BC000F9E7000010B50848FFF734FC0122074987
:101BD0000548FFF7A7FD0548054900780870054945
:101BE0000120087010BD00005000002003000020FC
:101BF0000500002000000020FEE70907090E00286C
:101C000004DB00F1E02080F80014704700F00F00C2
:101C100000F1E02080F8141D704710B5044601095A
:101C2000012000F00BFA04F00F01BDE81040012084
:101C300000F004BA70B50546002403E0285DFFF704
:101C4000ECFF641C2846FEF7BFFAA042F6D870BD30
:101C500010B50021084600F0E6F906A0FFF7EAFFFC
:101C60000A23022206A10748FFF772FD0649012058
:101C7000087110BD5374617475735F320000000009
:101C800030320000500000200000002010B500217C
:101C9000084600F0C8F905A0FFF7CCFF0A23BDE80D
:101CA0001040022204A10548FFF752BD537461742D
:101CB00075735F35000000003035000050000020D3
:101CC00010B50021084600F0AEF906A0FFF7B2FFFC
:101CD0000A23022206A10748FFF73AFD0649002021
:101CE000087010BD5374617475735F330000000099
:101CF00030330000500000200000002010B500210B
:101D0000084600F090F905A0FFF794FF0A23BDE80C
:101D10001040022204A10548FFF71ABD53746174F4
:101D200075735F3400000000303400005000002064
:101D300010B50021084600F076F906A0FFF77AFFFB
:101D40000A23052206A10848FFF702FD07490020E3
:101D5000087010BD5374617475735F31000000002A
:101D600053746172740000005000002000000020D5
:101D70002DE9FF470026DFF8A8902027019602965C
:101D80006946484600970396FEF750FE254C002210
:101D900079012046FEF73FFF4FF4006801224146DB
:101DA0002046FEF738FF012202212046FEF733FFCE
:101DB0000220401C4828FCDB20214846FEF726FF75
:101DC0000546002202212046FEF725FF0220401C86
:101DD0004828FCDB012202212046FEF71CFF0220DE
:101DE000401C4828FCDB002202212046FEF713FF9E
:101DF0000220401C4828FCDB002DD4D100224146A3
:101E00002046FEF708FF01200097CDE901060220D9
:101E1000039069464846FEF709FEBDE8FF870000CB
:101E200000080140000C014010B5282000F0EEF839
:101E3000FFF79EFF282000F0E9F8FFF799FF0F2039
:101E400000F0E4F8FFF794FF062000F0DFF8FFF75A
:101E50008FFF012000F0DAF8BDE81040FFF788BFDF
:101E6000FEF7ECFEFFF74CFDFFF7F6FC6348624916
:101E70004FF0000901604FF4E131C0E901190C2273
:101E8000C0F80C90C0E90492C0F81890C0F81C90FB
:101E9000FFF7D6FB08B172B6FEE7FFF7B5FCFFF718
:101EA000C3FF1420FEF7B0FD012255495348FFF748
:101EB00039FCDFF84CA1DFF84C81534E0AF1020ADD
:101EC0004FF0663BAAF10504A078012803D1FFF783
:101ED0002FFF84F8029020780128F5D19AF80000AD
:101EE000574641287DD1FFF7B3FE7EE06420FEF720
:101EF0008BFD42483038FEF7B7FC40480A213038A5
:101F0000FEF714FC3D483038FEF7D5FAA06000F02B
:101F10005DFA5D465A46434600F06CFA00223346AD
:101F200000F0FCF800F0C8F8E060B0F1804F5CDB36
:101F3000FFF7C6FEBA466420FEF766FD9AF8000079
:101F40004228F8D1FFF7DAFE4FF07E576420FEF703
:101F50005BFD2A483038FEF787FC28480A213038D4
:101F6000FEF7E4FB25483038FEF7A5FAA06000F044
:101F70002DFA2A46434600F03DFA0022334600F08F
:101F8000CDF800F099F8E060B842DFDD6078002815
:101F9000DCD1FFF77BFEAB4645466420FEF734FDFF
:101FA00016483038FEF760FC14480A213038FEF736
:101FB000BDFB12483038FEF77EFAA06000F006FA4A
:101FC0005A462B4600F016FA0022334600F0A6F8D7
:101FD00000F072F8E060B842DFDA84F80490202163
:101FE00000E006E08AF8001003E0207901283FF4C1
:101FF0007DAF84F8009067E7003801405000002072
:102000000300002066660A4000FEAF4010B504469B
:102010000109002000F012F804F00F01BDE81040A3
:10202000002000F00BB841F0800208B1012802D076
:102030001046FFF7EBBF41F0C000FAE770B51C4D4A
:102040000C4602464FF480612846FEF7E4FD00226C
:10205000E9142846FEF7DFFD012202212846FEF79B
:10206000DAFD144EC4F3C00220213046FEF7D3FD42
:10207000C4F3800240213046FEF7CDFDC4F3400298
:1020800080213046FEF7C7FD04F0010201212846F9
:10209000FEF7C1FD002000BF401C4828FBDB0022EA
:1020A00002212846FEF7B7FDBDE87040FFF760BE8D
:1020B000000C01400008014021F00042A2F16052F2
:1020C000B2F5801F01F0004328BFD2F17F6C0BD91D
:1020D0005FEA001C43EAC20242EB507018BF70472F
:1020E00028BF20F001007047B2F5801FBCBF184622
:1020F00070474FEA410C1CF5001F02D2084600F061
:1021000077BA70B500F020FA00000089FFF7F6BF3B
:102110004FF00040A0F58000704700002DE9C0415D
:1021200030B4DFF8A0C23CEA111418BF3CEA131423
:1021300000F0EC8081EA03051CEA111444EAD5742E
:1021400018BF1CEA131500F0C780A4EB05044FF07C
:10215000004545EAC12145EAC32341EA505143EA1B
:10216000525304F17F74994204F500344FEAC020C1
:102170004FEAC22208BF904200F09C804FEA1365EC
:102180000FF24016765D4FEA134506FB05F7C7F1DF
:10219000807706FB07F74FEAD737A7FB036876423D
:1021A000C8F58038A7FB06CE38BFA8F1010807FBA9
:1021B00008E64FF0000EA6FB028CE6FB03CEDCF136
:1021C000000CCEF1004E38BFAEF1010EA6FB0C584C
:1021D0004FF000074FF00005E6FB0E87A1FB08C695
:1021E000A0FB07CE16EB0E0645F10005E1FB0765E7
:1021F00015F1E04E7EBFA4F580345FEA46066D41DE
:1022000016F1800745F100054FEA17274FEA0666E9
:1022100047EA0567A6F1DE46B6F1805F4FEA15256D
:102220001FD9384624F0010C05EBC471BCF1FE6FD8
:1022300001EB0C1102D8F0BCBDE8008124425CBF68
:1022400001F5801E9EEAC47F02D4F0BCBDE8008187
:10225000244238D4F0BCA1F1C041BDE8004100F0F7
:10226000C1B94FEAD22242EA43524FEAD323A7FB35
:1022700002864FEAD02040EA415007FB03661EEA7F
:102280000E0F4FEAD12105FB026658BFA6EB0056A0
:10229000B6EB00564FEA520E4EEAC37E18EB0E0E16
:1022A00056EB530EBDD518EB02085E417F1C55F16D
:1022B0000005B6E74FF480154FF000074FF0000619
:1022C0004FF00008ADE7F0BC4FF0000001F1C04155
:1022D00001F00041BDE8008111EA0C1F0CEA131562
:1022E00000D00CE013EA0C1F00F025804FF0000036
:1022F000F0BC81EA030101F00041BDE80081F0BCBF
:10230000BDE8004181EA030100F06CB9F0BCBDE812
:10231000004170B500F018F9097EFC3E00F007B8E6
:1023200081EA03014FF0000001F00041704781EAAB
:10233000030100F057B9F0BCBDE800414FF00000C8
:1023400021497047FFFDFBF9F7F5F4F2F0EEEDEBF4
:10235000E9E8E6E4E3E1E0DEDDDBDAD8D7D5D4D3A3
:10236000D1D0CFCDCCCBCAC8C7C6C5C4C2C1C0BFEF
:10237000BEBDBCBBBAB9B8B7B6B5B4B3B2B1B0AFF5
:10238000AEADACABAAA9A8A8A7A6A5A4A3A3A2A1D9
:10239000A09F9F9E9D9C9C9B9A9999989797969594
:1023A00095949393929191908F8F8E8E8D8C8C8B30
:1023B0008B8A8989888887878685858484838382B8
:1023C000828181800000FF070000F87FB0FA80F36F
:1023D00010FA03F10AD0C3F11D0303F580634FEA3D
:1023E00041504FEA035202EBD12170474FF00000F9
:1023F00070470000DFF848C170B51CEA111E1EBF0F
:102400001CEA13159EEA0C0F95EA0C0F00F06F8082
:1024100081EA030423EA4C134EEAD47E21EA4C11EC
:1024200041F4801143F48013AE44A1FB024CA0FBA5
:102430000365AEF17F7E361955EB0C05A1FB034C0D
:102440004CF10003A0FB021C16EB0C06654153F196
:102450000003094218BF46F0010613F4007F0BD1B8
:102460004FEA03314FEA0530340341EA155140EA9F
:1024700016506FF003020AE04FEAC3214FEAC5206D
:10248000F40241EA555140EA56506FF0020202EB65
:102490002E4201EB025585EACE710AD05FEA440C68
:1024A00018BF24F0004450F1000041F1000120EA7F
:1024B000D47040F2FE7C624500D270BDA84214BFC9
:1024C0004FF080444FF04044002E08BF0024BEF17E
:1024D000806FA8BFA1F1C041BDE8704080F282804A
:1024E0004FF0000001F1C04101F0004170479EEA49
:1024F0000C0F0CEA131518BF95EA0C0F06D04FF01D
:10250000000081EA030E0EF0004170BD00F01CF8DF
:102510008900013E00F007B800F009B84FEA430C0B
:102520005FEA5C5C08D081EA030100F05BB84FEA27
:10253000410C5FEA5C5CF6D14FF000000149704746
:102540000000FF070000F87F0EF1020E2EF0030ED0
:102550005EF8046B364205D4012A43EB030515F5FA
:10256000001F12D8012841EB010C1CF5001F0CD8EC
:102570000ED14FEAD17C15F5001F0CEB4C0C0CF181
:10258000020C08BF4CEBD37C04E04FF0080C01E0D8
:102590004FEAD37C0CEB4C0526FA05F606F007064D
:1025A000B6F1040C06D20EEB860CBDE870404CF080
:1025B000010C6047DFE80CF0090B02024FF000410C
:1025C0004FF00000A1F5002170BD1946104601280A
:1025D00051EB010418BFD4F5001484BF002001F0B2
:1025E000004170BD0808A0F500114FEA31017047A5
:1025F000FF2141EAD050C0057047000000000000F4
:10260000000001020304060708090000000001029F
:102610000304000034260008000000202000000011
:10262000280100085426000820000020D8060000D9
:10263000440100080000010000000000000000004C
:102640000000000001000000100000000000000079
:042650000024F4006E
:04000005080000ED02
:00000001FF
