:020000040800F2
:1000000010070020890100087B150008A5120008D0
:10001000791500088F02000805180008000000008C
:100020000000000000000000000000007F15000834
:1000300091020008000000007D15000881150008ED
:10004000A3010008A3010008A3010008A301000800
:10005000A3010008A3010008A3010008A3010008F0
:10006000A3010008A3010008A3010008A3010008E0
:10007000A3010008A3010008A3010008A3010008D0
:10008000A3010008A3010008A3010008A3010008C0
:10009000A3010008A3010008A3010008A3010008B0
:1000A000A3010008A3010008A3010008A3010008A0
:1000B000A3010008A3010008A3010008A301000890
:1000C000A3010008A3010008A3010008A301000880
:1000D000A3010008F9170008A3010008A301000804
:1000E000A3010008A3010008A301000800F002F822
:1000F00000F03AF80AA090E8000C82448344AAF188
:100100000107DA4501D100F02FF8AFF2090EBAE885
:100110000F0013F0010F18BFFB1A43F0010318473B
:100120003C1900005C190000103A24BF78C878C15F
:10013000FAD8520724BF30C830C144BF04680C60ED
:10014000704700000023002400250026103A28BF35
:1001500078C1FBD8520728BF30C148BF0B60704739
:100160001FB51FBD10B510BD00F058F81146FFF7C0
:10017000F7FF01F0E7FB00F076F803B4FFF7F2FFBA
:1001800003BC00F07DF8000009488047094800479B
:10019000FEE7FEE7FEE7FEE7FEE7FEE7FEE7FEE737
:1001A000FEE7FEE704480549054A064B7047000094
:1001B000E3150008ED0000081001002010070020E2
:1001C00010030020100300204FF0000200B513467A
:1001D00094469646203922BFA0E80C50A0E80C5067
:1001E000B1F12001BFF4F7AF090728BFA0E80C5018
:1001F00048BF0CC05DF804EB890028BF40F8042B11
:1002000008BF704748BF20F8022B11F0804F18BF7D
:1002100000F8012B7047704770477047754600F033
:100220002BF8AE4605006946534620F00700854688
:1002300018B020B5FFF7B6FFBDE820404FF000062C
:100240004FF000074FF000084FF0000B21F00701BE
:10025000AC46ACE8C009ACE8C009ACE8C009ACE801
:10026000C0098D46704710B50446AFF300802046A4
:10027000BDE81040FFF781BF00487047AC00002088
:1002800001491820ABBEFEE7260002007047FEE7DA
:10029000704710B590F821100022022905D00421E2
:1002A000816380F82020012010BD01680B6823F0D5
:1002B0000E030B6001680B6823F001030B6090F8DC
:1002C0004030C46B012101FA03F3636080F8211010
:1002D00080F82020104610BD10B590F821100024A1
:1002E000022903D00421816301243DE001680A68EA
:1002F00022F00E020A6001680A6822F001020A6018
:100300001A4A0168914201D1012121E0174A1432B1
:10031000914201D110211BE0144A2832914201D1AF
:10032000891515E0114A3C32914201D189140FE040
:100330000E4A5032914202D14FF4803108E00B4A0C
:100340006432914202D14FF4801101E04FF080718C
:10035000064A083A5160012180F82110002180F8F6
:100360002010416B01B18847204610BD08000240B3
:1003700070B5044600F004F90546601C02D004483C
:100380000078044400F0FCF8401BA042FAD370BD92
:10039000040000202DE9F84FDFF8B891002409F19E
:1003A000040A0AF1040B23460F270BF1040EC9E0DF
:1003B0000125A5402A40AA427DD1674ED1F804C04C
:1003C000ACEB0608B44532D014DCBCF1030F3AD0D4
:1003D00009DCBCF1000F2AD0BCF1010F1CD0BCF12C
:1003E000020F31D11DE0BCF1110F17D0BCF1120F7B
:1003F0002AD119E0B8F5881F19D006DCB8F5803F7E
:1004000015D0B8F5801F1FD111E0B8F5001F0ED030
:10041000B8F5041F18D10AE0CB6815E0CB681B1DA6
:1004200012E0CB6808330FE0CB680C330CE08B682C
:100430002BB1012B4FF0080303D0456104E00423E6
:1004400002E0056100E00023FF2A01D8064601E032
:1004500000F104064FEA840501D9A5F12005D6F87C
:10046000008007FA05FC28EA0C0803FA05F548EABB
:100470000508C6F800804D68ED0062D5374DAE69BD
:1004800046F00106AE61AD6924F0030605F00105F2
:100490000095334D06EB050CDCF80850A607360F27
:1004A00007FA06F825EA0805DFF8B880404503D1C9
:1004B0004FF0000817E044E0DFF8AC80404502D17F
:1004C0004FF001080FE0DFF8A480404502D14FF063
:1004D000020808E0DFF89880404502D14FF0030899
:1004E00001E04FF0040808FA06F848EA0508CCF8DD
:1004F00008804D68D9F80060ED034D4601D51643DC
:1005000000E096432E604D68DAF80060AD03554672
:1005100001D5164300E096432E604D68DBF800607D
:10052000ED025D4601D5164300E096432E604D680E
:10053000DEF80060AD02754601D5164300E0964333
:100540002E60641C0D682A46E5407FF431AFBDE89B
:10055000F88F00000004014000001110001002405C
:100560000000014000080140000C01400010014063
:10057000001401400AB1016170470904FBE7000063
:1005800001488068704700000400002070B5040036
:1005900025D094F83D00002520B984F83C50204631
:1005A00000F04EF9242084F83D002068016821F015
:1005B000010101602068016841F400410160206888
:1005C000016821F40041016000F096FA4D4A61682B
:1005D000914201D84C4900E04C49884201D20120A7
:1005E00070BD4B492368B0FBF1F15E6826F03F0611
:1005F0000E435E606368934206D94FF49673594385
:100600004FF47A73B1FBF3F12368491C1E6A26F09C
:100610003F06314319626168914210D84900401E7B
:10062000B0FBF1F2521CC2F30B02042A01D20420E7
:1006300022E0B0FBF1F0401CC0F30B001CE0A2680C
:10064000F2B301EBC10303EB0116431EB3FBF6F358
:100650005B1C43F480431B0549D092B301EBC102FC
:1006600002EB0111401EB0FBF1F0401CC0F30B0087
:1006700040F4804040F400402168CA694CF6FF73A2
:100680009A431043C861D4E9071001432068026807
:1006900022F0C00211430160D4E903010143206844
:1006A000826848F2FF339A4311438160D4E905011F
:1006B00008432168CA6822F0FF021043C86001E0C5
:1006C0000EE016E02068016841F001010160256438
:1006D000202084F83D00256384F83E50002070BD42
:1006E00001EB4106431EB3FBF6F35B1CB3E70120AD
:1006F000C2E701EB4101401EB0FBF1F0401CC0F32A
:100700000B00B7E7A086010080841E0000093D00B1
:1007100040420F002DE9F84F1F4690468A46044696
:10072000DDF82890FFF72CFF054694F83D002028BF
:100730007FD11923012240492046009500F03EFE5A
:10074000002876D194F83C00012872D0012084F86A
:100750003C0020680168C90703D1016841F001012C
:1007600001602068016821F400610160212084F8A3
:100770003D00102084F83E0000262664C4F8248042
:100780006785608D20852D48E0622B464A4651469C
:10079000204600F09FFD90B9206841698069009073
:1007A00036E02A464946204600F087FE50B1206CCC
:1007B000042804D12068016841F40071016001201F
:1007C000BDE8F88F606A216800780861606A401CA3
:1007D0006062618D491E6185218D491E89B2218526
:1007E00022685369DB435B070BD451B10078106179
:1007F000606A401C6062608D401E6085208D401ED6
:1008000020852A464946204600F0B2FD0028CED178
:10081000208D0028C5D154F83D0B016841F40071CA
:100820000160202004F81E09E67766770020C7E7FC
:10083000FFE70220C4E70000020010000000FFFFF5
:1008400010B586B0002100910191029103910068DA
:100850000F4988421AD10F4CA06940F00800A061EE
:10086000A069694600F008000490C02000901220A2
:100870000190032003900848FFF78CFDE06940F4E5
:100880000010E061E06900F40010049006B010BDB3
:100890000054004000100240000C014002488168F2
:1008A000027811448160704704000020074810B5A9
:1008B000016841F010010160032000F075F80F207D
:1008C00000F006F800F024F8002010BD00200240DF
:1008D00070B50D4D04464FF47A712878B1FBF0F0F5
:1008E0000A490968B1FBF0F000F0ECFA48B9102CA5
:1008F00007D200222146501E00F036F800206C601E
:1009000070BD012070BD0000040000201000002018
:100910000C4808B5816941F001018161816901F0EC
:1009200001010091C16941F08051C161C06900F0CD
:10093000805000900448416821F0E06141F000716E
:10094000416008BD0010024000000140002809DBA2
:1009500000F01F02012191404009800000F1E020D9
:10096000C0F8001170470000F0B40E4B1B680C4635
:10097000C3F30223C3F10705042D00D90425191D73
:10098000072901D2002300E0DB1E012606FA05F14B
:10099000491E214099409E40761E16403143F0BCCE
:1009A00000F031BF0CED00E0064900F007020868D6
:1009B0004FF6FF03184040EA0220034A1043086044
:1009C000704700000CED00E00000FA052DE9F0474B
:1009D0000F46050061D0434E306800F00700B84272
:1009E00009D2306820F0070038433060306800F0EA
:1009F0000700B84251D128683B4C810712D5400707
:100A000003D5606840F4E06060602878000703D593
:100A1000606840F4605060606068A96820F0F00091
:100A2000084360602878C00728D06868012810D083
:100A30002168022810D0890700292EDA616821F088
:100A4000030101436160FFF79BFD804641F2883955
:100A50000DE021688903EFE78901EDE7FFF790FDDD
:100A6000A0EB0801494502D90320BDE8F087606882
:100A7000696800F00C00B0EB810FEFD1306800F036
:100A80000700B8420BD9306820F0070038433060C7
:100A9000306800F00700B84201D00120E5E728786F
:100AA000400705D56068E96820F4E06008436060AD
:100AB0002878000706D56068296920F4605040EA6C
:100AC000C100606000F038F86168084AC1F30311A2
:100AD000515CC8400649086006480068FFF7F8FE08
:100AE0000020C2E70020024000100240441A000823
:100AF00010000020080000200448054900684968EB
:100B0000044AC1F30221515CC84070471000002024
:100B100000100240541A000804480549006849685A
:100B2000044AC1F3C221515CC84070471000002044
:100B300000100240541A000812A185B00FC98DE8B8
:100B40000F0014A0144A006804905168134801F083
:100B50000C03042B10D0082B0ED1C1F38343C9031F
:100B60001DF803000AD5516804AAC1F34041515C45
:100B70000A4A5043B0FBF1F005B0704708494843BA
:100B8000FAE7000002030405060708090A0B0C0D2A
:100B90000E0F1010010200000010024000127A0037
:100BA00000093D002DE9F84F040070D02078C04DB9
:100BB000C00749D06868C0F38100012807D0686881
:100BC000C0F38100022809D16868C00306D52868EF
:100BD000800339D560680028E7D035E06068B0F55B
:100BE000803F0BD010B1B0F5A02F11D0286820F4B1
:100BF00080302860286820F4802002E0286840F4D3
:100C000080302860606890B1FFF7BAFC06460AE0C1
:100C1000286840F480202860F0E700BFFFF7B0FCB0
:100C2000801B642873D828688003F7D50CE0FFF791
:100C3000A7FC064605E000BFFFF7A2FC801B642866
:100C4000F0D828688003F7D420789A4E80074FF0B8
:100C500001094FF0000839D5686810F00C0F07D073
:100C60006868C0F38100022809D16868C00306D40F
:100C70002868800714D52069012808D110E0206970
:100C8000B0B1C6F80090FFF77BFC074605E00AE12B
:100C9000FFF776FCC01B0228C4D828688007F7D568
:100CA0002868616920F0F80040EAC10028600DE082
:100CB000C6F80080FFF764FC074604E0FFF760FC1D
:100CC000C01B022823D828688007F7D420780007A3
:100CD0002CD57948A169D9B1C0F80090FFF750FC34
:100CE000074604E0FFF74CFCC01B02280FD8686AD7
:100CF0008007F7D571484FF4FA510068B0FBF1F066
:100D0000009000BF0098411E0091FAD20EE080E0F2
:100D1000C0F80080FFF734FC074604E0FFF730FC22
:100D2000C01B022875D8686A8007F7D4207840076E
:100D300060D5E8690027C00008D4E86940F0805019
:100D4000E861E869012700F0805000905C48016884
:100D5000C90513D40168834641F480710160FFF72F
:100D60000FFC824606E000BFFFF70AFCA0EB0A007A
:100D700064284ED8DBF80000C005F5D5E0680128EE
:100D80000AD008B1052813D0286A20F00100286293
:100D9000286A20F0040002E0286A40F0010028627E
:100DA000E06841F2883B98B1FFF7EAFB82460BE02E
:100DB000286A40F004002862EEE700BFFFF7E0FB7E
:100DC000A0EB0A0159455AD8286A8007F6D50CE0ED
:100DD000FFF7D6FB824605E0FFF7D2FBA0EB0A0146
:100DE00059454CD8286A8007F6D41FB1E86920F02D
:100DF0008050E861E06988B36968C1F38101022924
:100E000044D00228C6F8608004D0FFF7B9FB04463E
:100E100038E034E0FFF7B4FB074604E0FFF7B0FB2F
:100E2000C01B02282BD828688001F7D4206AB0F5AF
:100E3000803F05D16868A16820F4003008436860ED
:100E4000D4E908010843696821F474110843686013
:100E5000C6F86090FFF794FB044606E025E000BF6B
:100E6000FFF78EFB001B022809D828688001F7D500
:100E70001BE000BFFFF784FB001B022802D9032000
:100E8000BDE8F88F28688001F4D40EE00128F7D07F
:100E90006868226A00F48031914204D1616A00F4EA
:100EA0007010884201D00120EAE70020E8E7000046
:100EB0000010024000004242800442421000002024
:100EC0000070004010B5401EB0F1807F01D30120BA
:100ED00010BD4FF0E02460610F21601700F093FC1B
:100EE0000020A06107202061002010BD70477047DE
:100EF000F8B5026804461068D168536910F00F0F06
:100F00004FF0000553D003F0010601F4907737430A
:100F10005FD0C20705D0CA0503D5226C42F001029A
:100F20002264420705D5DA0703D0226C42F00202A0
:100F30002264820705D5DA0703D0226C42F004024E
:100F40002264020707D501F02002324303D0226C4D
:100F500042F008022264226C002A34D0800604D5B4
:100F6000880602D5204600F05DFB20684069216CB0
:100F7000C0F38010090700D430B3204600F03AFBDC
:100F80002068416949061BD5416921F04001416152
:100F9000A06BA8B158494163A06BFFF79DF90028E9
:100FA00011D0A06B416B01B0BDE8F040084783064B
:100FB0000FD58B060DD52046BDE8F84000F032BBBA
:100FC0002046FFF794FFF8BD2046FFF790FF256409
:100FD000F8BD266B2023012E52D1C60650D5CE0671
:100FE0004ED5106850680090506940062AD5A16B14
:100FF000086840680004000CEAD0A68D8642E7D954
:10100000E0858869202818D0D06820F48070D060EE
:101010002068416921F0010141612068416921F0A6
:101020004001416184F83E3025632068C16821F0A9
:101030001001C160A06BFFF72CF9A08DE18D401A63
:1010400081B219E0A08DE18D401A81B2E08D0028B7
:10105000BED00029BCD0D06820F49070D060206849
:10106000426922F00102426184F83E302563206823
:10107000C26822F01002C2602046FFF737FFF8BDB9
:1010800005062BD50D0629D594F83D002128F6D16B
:10109000A068B0F5805F01D12069B0B1206A411C21
:1010A0002162216800784860E08C401E0004000C3A
:1010B000E084E4D12068C16821F08001C16020682B
:1010C000C16841F04001C160F8BD206A0088C0F3EA
:1010D00008005060206A801C2062E5E74006F3D5D6
:1010E0004806F1D5D168204621F04001D16084F84E
:1010F0003D3000F0D6F8F8BDE515000870B50400E5
:1011000004D094F83D00002510B106E0012070BD28
:1011100084F83C50204600F023F8242084F83D0059
:101120002068C16821F40051C160204600F0D6FA61
:101130002068016921F4904101612068416921F032
:101140002A0141612068C16841F40051C1602564F1
:10115000202084F83D0084F83E00002070BD00008F
:1011600030B585B000240094019402940394006883
:10117000184988422CD11848816941F48041816125
:10118000816901F480410491816941F00401816128
:101190008069124D00F0040004904FF4007000903C
:1011A000022001900320039069462846FFF7F2F8D9
:1011B0002815CDE90004694628460294FFF7EAF8AD
:1011C000002201212520FFF7CFFB2520FFF7BEFBE2
:1011D00005B030BD00380140001002400008014059
:1011E0002DE9F84F044690F83E009A4616460D4603
:1011F000202853D1FDB1F6B194F83C0001284DD020
:10120000012084F83C0000272764222084F83E0057
:101210002763FFF7B5F9A6858146E685A0684FF4F8
:101220008058404501D1206940B12E465FF000054D
:1012300084F83C7027E00120BDE8F88F0026F7E72E
:101240004B46002220212046CDF800A000F0A2FA53
:1012500008B10320F0E726B1A06840451BD038B1A3
:1012600008E020684068C0F3080025F8020B07E09A
:10127000206980B12068406800F07F0006F8010B0B
:10128000E08D401EE085E08D0028D9D1202084F833
:101290003E000020D0E720684068EFE70220CBE75F
:1012A00070477047FEE701684A69D24352050FD480
:1012B0006FF480624A61002140F8301F202242739F
:1012C0008173026942F004020261017301207047D8
:1012D00000207047F8B50446C06A1E460D46174602
:1012E000082807D0012805D010F5803F02D0206BD8
:1012F000122804D12068016841F48071016013460E
:1013000000224FF001112046009600F057F840B13E
:1013100020680068C00502D54FF4007020640320E7
:10132000F8BD2069B0F5804F0ED00620216800EA94
:10133000D51040F0F000086133463A460B4920468C
:1013400000F070F878B902E005F0FE0000E0E8B2C5
:1013500021680861054933463A46891F204600F056
:1013600061F80028DCD00120F8BD00000800010071
:1013700070B516460D4604460DE02046FFF793FF74
:1013800008B1012070BD681C05D0FFF7F9F8801B7B
:10139000A84207D835B120684069C0434007ECD463
:1013A000002070BD002044F8300F20216173A0732D
:1013B000216941F0200121612073E2E72DE9F04726
:1013C0001E4690460D460446C1F30747DDF82090BF
:1013D00008E0701C06D0FFF7D3F8A0EB0900B0427C
:1013E0000FD876B12068012F18D0806925EA000057
:1013F0000004000C14D000214145EAD00020BDE8D3
:10140000F087002044F8300F20216173A073216918
:1014100041F02001216120730120F0E74069E5E7F8
:101420000121E9E72DE9F0479A4691460E46044628
:1014300000254FF02008C1F3074725E020684069E8
:10144000C043400514D42068016841F40071016074
:1014500021686FF480604861256384F83D8084F8DA
:101460003E50206C40F00400206484F83C501FE0A3
:10147000B9F1FF3F08D0FFF783F8A0EB0A01494517
:101480000CD8B9F1000F09D02068012F13D0806962
:1014900026EA00000004000C0BD0CFE744F8305FD0
:1014A00084F80D80A573206940F020002061257329
:1014B0000120BDE8F0874069EAE770B516460D46A1
:1014C00004460DE02046FFF7EEFE08B1012070BD96
:1014D000681C05D0FFF754F8801BA84207D835B127
:1014E00020684069C0430006ECD4002070BD002095
:1014F00044F8300F20216173A073216941F020016D
:1015000021612073E2E7000030B585B0002418485F
:101510000094019402940394816941F02001816157
:10152000816901F020010491816941F00401816128
:10153000816901F004010491816941F00801816130
:1015400080690C4D00F00800049001220721284614
:10155000FFF710F8072000900120CDE901040320D7
:10156000039069462846FEF715FF05B030BD000020
:101570000010024000080140FEE7FEE77047704798
:10158000FFF78CB930B58FB028216846FEF71CFEF6
:1015900014210AA8FEF718FE01210804CDE9001065
:1015A0000024029402250491CDE907504FF4E01085
:1015B00009906846FFF7F6FA08B172B6FEE70F2009
:1015C000CDE90A054FF48060CDE90C4002210AA85C
:1015D0000E94FFF7FBF9002801D072B6FEE70FB0BA
:1015E00030BD704710B5406A0021C185C184FFF746
:1015F0007EFC10BD0168CA6822F49072CA6001685E
:101600004A6922F001024A61016B012904D1016893
:10161000CA6822F01002CA60202180F83E10002122
:101620000163704708B590F83E10222901D00220CE
:1016300008BD82684FF480539A4201D1016921B1FB
:10164000816A9A421BD04AB10AE00268816A5268F4
:10165000C2F308020A80816A891C08E0026972B13B
:101660000268526802F07F020A70816A491C816236
:10167000C18D491E0904090CC18503D019E0026817
:101680005268F1E70168CA6822F02002CA60016866
:10169000CA6822F48072CA6001684A6922F00102B5
:1016A0004A61202180F83E10016B012903D0FFF729
:1016B000F7FD002008BD002101630168CA6822F01F
:1016C0001002CA6001680A68D20602D50A68496831
:1016D0000091818DFFF70AFCEBE7000070B504462E
:1016E00000680169E26821F44051114301612169F8
:1016F000A0680843616908432168CA6841F20C6325
:101700009A430243CA6020684169A26921F440718A
:10171000114341611E492068884202D1FFF7FCF95C
:1017200001E0FFF7E9F900EBC00101EB001260688E
:1017300064218000B2FBF0F3B3FBF1F36FF0180605
:101740007343B2FBF0F5B2FBF0F605EB83053223F1
:1017500003EB0515B5FBF1F5B6FBF1F605F0F00569
:1017600005EB0615B2FBF0F6B2FBF0F0B0FBF1F0C2
:101770006FF01802504306EB800003EB0010B0FB43
:10178000F1F0216800F00F002844886070BD00006F
:10179000003801402DE9F041984617460E460446B0
:1017A000069D1DE0681C1BD02DB1FEF7E9FEA0EBE5
:1017B0000800A84214D92068C16821F4D071C16022
:1017C0002068416921F001014161202084F83D0039
:1017D00084F83E00002084F83C000320BDE8F0813E
:1017E0002068006836EA000004D00020B842D9D052
:1017F0000020F3E70120F9E70148FFF779BB00007B
:1018000068000020FEE70907090E002804DB00F14C
:10181000E02080F80014704700F00F0000F1E02095
:1018200080F8141D704710B5012000F041F8BDE8A4
:1018300010400A20FEF79CBD10B53220FEF798FD3F
:10184000302000F035F80520FEF792FD302000F042
:101850002FF80120FEF78CFD302000F029F80A2037
:10186000FEF786FD202000F023F80A20FEF780FD19
:10187000282000F01DF80120FEF77AFD082000F076
:1018800017F80120FEF774FD012000F011F8012087
:10189000FEF76EFD0120FEF76BFD062000F008F854
:1018A0000120FEF765FDBDE810400C20AFF300807D
:1018B0001CB500F0F00141F00C028DF8042041F05D
:1018C000080100018DF8051040F00C018DF806109C
:1018D00040F008008DF8070064200090042301AA5E
:1018E0004E210248FEF716FF1CBD00001400002028
:1018F0001CB500F0F00141F00D028DF8042041F01C
:10190000090100018DF8051040F00D018DF8061059
:1019100040F009008DF8070064200090042301AA1C
:101920004E210248FEF7F6FE1CBD00001400002008
:1019300010B5044602E0641CFFF7DAFF20780028A7
:10194000F9D110BDFEF7B2FFFFF71CFEFFF7DCFD7B
:101950002F482E49002401604FF4E131C0E9011401
:101960000C21C460C0E904418461C461FFF7C6FB77
:1019700008B172B6FEE72648264954380160264968
:10198000C0E901144FF48041C0E90341446184611E
:10199000C4610462FEF7FAFD08B172B6FEE7FFF714
:1019A0004BFFFFF740FF8020FFF782FF1BA0FFF7F0
:1019B000BFFFC020FFF77CFF1CA0FFF7B9FF1F4E41
:1019C0001F4D01231A461E491148FFF709FC2978CB
:1019D0000029F6D0313906290BD2DFE801F00305E2
:1019E0000C0E1113012200E0002201213046FEF707
:1019F000C1FD2C70E5E7012200E000220221F5E79D
:101A0000012200E000220421F0E70000003801403C
:101A10006800002000540040A08601004749414F63
:101A20002054494550203454420000005155412073
:101A30004D41592054494E48000000000008014023
:101A4000000000200000000000000000010203046C
:101A50000607080900000000010203047C1A0008C0
:101A6000000000201400000028010008901A00085F
:101A700014000020FC0600004401000800000000E3
:101A80000100000010000000000000000024F4002D
:04000005080000ED02
:00000001FF
