:020000040800F2
:1000000000C00020454500082515000827150008F8
:10001000291500082B1500082D1500080000000008
:100020000000000000000000000000002141000866
:100030002F15000800000000C1410008311500081C
:100040008D4500088D4500088D4500088D45000848
:100050008D4500088D4500088D4500088D45000838
:100060008D4500088D4500088D4500088D45000828
:100070008D4500088D4500088D4500088D45000818
:100080008D4500088D4500088D4500088D45000808
:100090008D4500088D4500088D4500088D450008F8
:1000A0008D4500088D4500088D4500088D450008E8
:1000B0008D4500088D4500088D4500088D450008D8
:1000C0008D4500088D4500088D4500088D450008C8
:1000D0008D450008451500088D4500088D45000830
:1000E0008D4500088D4500088D4500088D450008A8
:1000F0008D4500088D4500088D4500088D45000898
:100100008D4500088D4500088D4500088D45000887
:100110008D4500088D4500088D4500088D45000877
:100120008D4500088D450008551500088D450008CF
:1001300000000000000000000000000000000000BF
:1001400000000000000000000000000000000000AF
:10015000000000000000000000000000000000009F
:10016000000000000000000000000000000000008F
:10017000000000000000000000000000000000007F
:10018000000000000000000000000000000000006F
:10019000000000000000000000000000000000005F
:1001A000000000000000000000000000000000004F
:1001B000000000000000000000000000000000003F
:1001C000000000000000000000000000000000002F
:1001D000000000000000000000000000000000001F
:0401E0005FF8E0F1F3
:1001F00010B5054C237833B9044B13B10448AFF361
:1002000000800123237010BD740000200000000056
:10021000E860000808B5034B1BB103490348AFF37E
:10022000008008BD0000000078000020E8600008A1
:1002300081F0004102E000BF83F0004330B54FEA97
:1002400041044FEA430594EA050F08BF90EA020F04
:100250001FBF54EA000C55EA020C7FEA645C7FEA97
:10026000655C00F0E2804FEA5454D4EB5555B8BFBA
:100270006D420CDD2C4480EA020281EA030382EA2B
:10028000000083EA010180EA020281EA0303362DBD
:1002900088BF30BD11F0004F4FEA01314FF4801C90
:1002A0004CEA113102D0404261EB410113F0004FA2
:1002B0004FEA03334CEA133302D0524263EB430359
:1002C00094EA050F00F0A780A4F10104D5F1200EF7
:1002D0000DDB02FA0EFC22FA05F2801841F1000152
:1002E00003FA0EF2801843FA05F359410EE0A5F126
:1002F00020050EF1200E012A03FA0EFC28BF4CF057
:10030000020C43FA05F3C01851EBE37101F000450C
:1003100007D54FF0000EDCF1000C7EEB00006EEB19
:100320000101B1F5801F1BD3B1F5001F0CD34908A3
:100330005FEA30004FEA3C0C04F101044FEA4452FA
:1003400012F5800F80F09A80BCF1004F08BF5FEA81
:10035000500C50F1000041EB045141EA050130BD61
:100360005FEA4C0C404141EB010111F4801FA4F104
:100370000104E9D191F0000F04BF01460020B1FA59
:1003800081F308BF2033A3F10B03B3F120020CDA91
:100390000C3208DD02F1140CC2F10C0201FA0CF06F
:1003A00021FA02F10CE002F11402D8BFC2F1200CD4
:1003B00001FA02F120FA0CFCDCBF41EA0C0190408A
:1003C000E41AA2BF01EB0451294330BD6FEA0404D3
:1003D0001F3C1CDA0C340EDC04F11404C4F12002BE
:1003E00020FA04F001FA02F340EA030021FA04F3D0
:1003F00045EA030130BDC4F10C04C4F1200220FA27
:1004000002F001FA04F340EA0300294630BD21FA64
:1004100004F0294630BD94F0000F83F4801306BF2A
:1004200081F480110134013D4EE77FEA645C18BF1E
:100430007FEA655C29D094EA050F08BF90EA020FB5
:1004400005D054EA000C04BF1946104630BD91EAAD
:10045000030F1EBF0021002030BD5FEA545C05D1B0
:100460004000494128BF41F0004130BD14F58004EF
:100470003CBF01F5801130BD01F0004545F0FE4163
:1004800041F470014FF0000030BD7FEA645C1ABF98
:10049000194610467FEA655C1CBF0B46024650EACF
:1004A000013406BF52EA033591EA030F41F40021FB
:1004B00030BD00BF90F0000F04BF0021704730B581
:1004C0004FF4806404F132044FF000054FF0000156
:1004D00050E700BF90F0000F04BF0021704730B517
:1004E0004FF4806404F1320410F0004548BF4042EC
:1004F0004FF000013EE700BF42004FEAE2014FEA41
:1005000031014FEA02701FBF12F07F4393F07F4F1B
:1005100081F06051704732F07F4208BF704793F01E
:100520007F4F04BF41F40021704730B54FF4607431
:1005300001F0004521F000411CE700BF50EA010234
:1005400008BF704730B54FF000050AE050EA0102DD
:1005500008BF704730B511F0004502D5404261EB4D
:1005600041014FF4806404F132045FEA915C3FF48E
:10057000D8AE4FF003025FEADC0C18BF03325FEA2B
:10058000DC0C18BF033202EBDC02C2F1200300FADC
:1005900003FC20FA02F001FA03FE40EA0E0021FA01
:1005A00002F11444BDE600BF70B54FF0FF0C4CF4EF
:1005B000E06C1CEA11541DBF1CEA135594EA0C0FA1
:1005C00095EA0C0F00F0DEF82C4481EA030621EADC
:1005D0004C5123EA4C5350EA013518BF52EA033517
:1005E00041F4801143F4801338D0A0FB02CE4FF0C9
:1005F0000005E1FB02E506F00042E0FB03E54FF0F9
:100600000006E1FB03569CF0000F18BF4EF0010EF0
:10061000A4F1FF04B6F5007F64F5407404D25FEAEC
:100620004E0E6D4146EB060642EAC62141EA55519F
:100630004FEAC52040EA5E504FEACE2EB4F1FD0CE1
:1006400088BFBCF5E06F1ED8BEF1004F08BF5FEA5F
:10065000500E50F1000041EB045170BD06F0004611
:1006600046EA010140EA020081EA0301B4EB5C04BE
:10067000C2BFD4EB0C0541EA045170BD41F48011B6
:100680004FF0000E013C00F3AB8014F1360FDEBFDB
:10069000002001F0004170BDC4F10004203C35DAB7
:1006A0000C341BDC04F11404C4F1200500FA05F33A
:1006B00020FA04F001FA05F240EA020001F00042DB
:1006C00021F0004110EBD37021FA04F642EB060151
:1006D0005EEA430E08BF20EAD37070BDC4F10C047B
:1006E000C4F1200500FA04F320FA05F001FA04F23F
:1006F00040EA020001F0004110EBD37041F100012B
:100700005EEA430E08BF20EAD37070BDC4F1200535
:1007100000FA05F24EEA020E20FA04F301FA05F29D
:1007200043EA020321FA04F001F0004121FA04F245
:1007300020EA020000EBD3705EEA430E08BF20EA15
:10074000D37070BD94F0000F0FD101F0004640004F
:1007500041EB010111F4801F08BF013CF7D041EAD1
:10076000060195F0000F18BF704703F000465200D5
:1007700043EB030313F4801F08BF013DF7D043EAA6
:100780000603704794EA0C0F0CEA135518BF95EA5C
:100790000C0F0CD050EA410618BF52EA4306D1D1E3
:1007A00081EA030101F000414FF0000070BD50EA02
:1007B000410606BF1046194652EA430619D094EA8C
:1007C0000C0F02D150EA013613D195EA0C0F05D176
:1007D00052EA03361CBF104619460AD181EA0301CA
:1007E00001F0004141F0FE4141F470014FF0000082
:1007F00070BD41F0FE4141F4780170BD70B54FF01D
:10080000FF0C4CF4E06C1CEA11541DBF1CEA13559C
:1008100094EA0C0F95EA0C0F00F0A7F8A4EB05047E
:1008200081EA030E52EA03354FEA013100F0888075
:100830004FEA03334FF0805545EA131343EA12633E
:100840004FEA022245EA111545EA10654FEA0026F3
:100850000EF000419D4208BF964244F1FD0404F5AC
:10086000407402D25B084FEA3202B61A65EB030508
:100870005B084FEA32024FF480104FF4002CB6EBC5
:10088000020E75EB030E22BFB61A754640EA0C0045
:100890005B084FEA3202B6EB020E75EB030E22BF85
:1008A000B61A754640EA5C005B084FEA3202B6EBC6
:1008B000020E75EB030E22BFB61A754640EA9C0085
:1008C0005B084FEA3202B6EB020E75EB030E22BF55
:1008D000B61A754640EADC0055EA060E18D04FEA13
:1008E000051545EA16754FEA06164FEAC30343EAB3
:1008F00052734FEAC2025FEA1C1CC0D111F4801F80
:100900000BD141EA00014FF000004FF0004CB6E778
:1009100011F4801F04BF01430020B4F1FD0C88BF17
:10092000BCF5E06F3FF6AFAEB5EB030C04BFB6EB22
:10093000020C5FEA500C50F1000041EB045170BD15
:100940000EF0004E4EEA113114EB5C04C2BFD4EB42
:100950000C0541EA045170BD41F480114FF0000EC6
:10096000013C90E645EA060E8DE60CEA135594EA42
:100970000C0F08BF95EA0C0F3FF43BAF94EA0C0F45
:100980000AD150EA01347FF434AF95EA0C0F7FF4BA
:1009900025AF104619462CE795EA0C0F06D152EA0E
:1009A00003353FF4FDAE1046194622E750EA4106F2
:1009B00018BF52EA43067FF4C5AE50EA41047FF403
:1009C0000DAF52EA43057FF4EBAE12E74FF0FF3C68
:1009D00006E000BF4FF0010C02E000BF4FF0010C39
:1009E0004DF804CD4FEA410C7FEA6C5C4FEA430CB2
:1009F00018BF7FEA6C5C1BD001B050EA410C0CBF01
:100A000052EA430C91EA030F02BF90EA020F002062
:100A1000704710F1000F91EA030F58BF994208BFC9
:100A200090422CBFD8176FEAE37040F00100704786
:100A30004FEA410C7FEA6C5C02D150EA013C07D1DD
:100A40004FEA430C7FEA6C5CD6D152EA033CD3D028
:100A50005DF8040B704700BF8446104662468C4622
:100A60001946634600E000BF01B5FFF7B7FF002855
:100A700048BF10F1000F01BD4DF808EDFFF7F4FF7E
:100A80000CBF012000205DF808FB00BF4DF808ED09
:100A9000FFF7EAFF34BF012000205DF808FB00BF2C
:100AA0004DF808EDFFF7E0FF94BF012000205DF84E
:100AB00008FB00BF4DF808EDFFF7CEFF94BF012003
:100AC00000205DF808FB00BF4DF808EDFFF7C4FFFC
:100AD00034BF012000205DF808FB00BF4FEA41024F
:100AE00012F5001215D211D56FF47873B3EB625280
:100AF00012D94FEAC12343F0004343EA505311F0A7
:100B0000004F23FA02F018BF404270474FF0000038
:100B1000704750EA013005D111F0004008BF6FF076
:100B2000004070474FF00000704700BF4A0011D2EC
:100B300012F5001211D20DD56FF47873B3EB625237
:100B40000ED44FEAC12343F0004343EA505323FA43
:100B500002F070474FF00000704750EA013002D1B8
:100B60004FF0FF3070474FF0000070474FEA4102EE
:100B7000B2F1E04324BFB3F5001CDCF1FE5C0DD9FB
:100B800001F0004C4FEAC0024CEA5070B2F1004F45
:100B900040EB830008BF20F00100704711F0804F48
:100BA00021D113F13872BCBF01F00040704741F40D
:100BB00080114FEA5252C2F11802C2F1200C10FA11
:100BC0000CF320FA02F018BF40F001004FEAC123F5
:100BD0004FEAD32303FA0CFC40EA0C0023FA02F399
:100BE0004FEA4303CCE77FEA625307D150EA01336F
:100BF0001EBF4FF0FE4040F44000704701F000403F
:100C000040F0FE4040F40000704700BF80F000401C
:100C100002E000BF81F0004142001FBF5FEA4103D4
:100C200092EA030F7FEA226C7FEA236C6AD04FEAD4
:100C30001262D2EB1363C1BFD21841404840414019
:100C4000B8BF5B42192B88BF704710F0004F40F4CB
:100C5000000020F07F4018BF404211F0004F41F4E7
:100C6000000121F07F4118BF494292EA030F3FD0B3
:100C7000A2F1010241FA03FC10EB0C00C3F12003C6
:100C800001FA03F100F0004302D5494260EB400055
:100C9000B0F5000F13D3B0F1807F06D340084FEAC0
:100CA000310102F10102FE2A51D2B1F1004F40EBB5
:100CB000C25008BF20F0010040EA0300704749001D
:100CC00040EB000010F4000FA2F10102EDD1B0FAE8
:100CD00080FCACF1080CB2EB0C0200FA0CF0AABFDD
:100CE00000EBC25052421843BCBFD040184370477B
:100CF00092F0000F81F4000106BF80F40000013281
:100D0000013BB5E74FEA41037FEA226C18BF7FEA57
:100D1000236C21D092EA030F04D092F0000F08BF99
:100D20000846704790EA010F1CBF0020704712F080
:100D30007F4F04D1400028BF40F00040704712F1BF
:100D400000723CBF00F50000704700F0004343F024
:100D5000FE4040F4000070477FEA226216BF08465A
:100D60007FEA23630146420206BF5FEA412390EA1D
:100D7000010F40F4800070474FF0000304E000BF13
:100D800010F0004348BF40425FEA000C08BF7047C4
:100D900043F0964301464FF000001CE050EA010288
:100DA00008BF70474FF000030AE000BF50EA01029D
:100DB00008BF704711F0004302D5404261EB41018A
:100DC0005FEA010C02BF84460146002043F0B643AF
:100DD00008BFA3F18053A3F50003BCFA8CF2083AD4
:100DE000A3EBC25310DB01FA02FC634400FA02FCDD
:100DF000C2F12002BCF1004F20FA02F243EB0200E4
:100E000008BF20F00100704702F1200201FA02FC45
:100E1000C2F1200250EA4C0021FA02F243EB020038
:100E200008BF20EADC707047034B036054330B604B
:100E300080231360704700BF900000202DE9F0412F
:100E400088B000240494059406940794214B9A6971
:100E500042F020029A619A6902F020020192019AFE
:100E60009A6942F004029A619A6902F004020292BD
:100E7000029A9A6942F008029A619B6903F008039A
:100E80000393039BDFF8548022464FF4C851404639
:100E900001F02CFC104D22464FF47871284601F0E9
:100EA00025FC4FF4C85304930127059706940226A6
:100EB000079604A9404601F01FFB4FF47873049392
:100EC00005970694079604A9284601F015FB08B07B
:100ED000BDE8F08100100240000C01400008014014
:100EE00000B583B00A4B5A6942F002025A615B694D
:100EF00003F002030193019B002211463A2000F007
:100F00009FFE3A2000F0D0FE03B05DF804FB00BF66
:100F10000010024030B585B0002301930293039383
:100F20000C4C0D4A2260A3600125257323754FF4F4
:100F30006022E26163602561204600F0D9FD102344
:100F4000019302950723039301A9204600F04EFC6C
:100F500005B030BD941000200024014008B50848B9
:100F6000084B03604FF4E133436000238360C360A8
:100F700003610C2242618361C36102F056FA08BD2D
:100F8000C81000200038014030B583B00024009420
:100F90000194084D084B2B60284600F0A9FE24233D
:100FA0000093019422466946284600F079FF03B079
:100FB00030BD00BF401100200074004030B587B044
:100FC0000025029503950495059500950195104C13
:100FD0004FF08043236047236360A56040F22B13EA
:100FE000E36025618023A361204602F07BF84FF483
:100FF0008053029302A9204602F0AAF8202300930E
:1010000001956946204602F011F907B030BD00BFD6
:10101000681100200000000008B52B4C204600F0AD
:10102000C5FC6421204600F019FB204600F0DAFBE5
:10103000264B1860FFF7A0FE254B1860FFF75CFAFF
:1010400002460B4618A1D1E90001FFF7F5F818A3F5
:10105000D3E90023FFF7A8FA17A3D3E90023FFF78A
:10106000CDFB17A3D3E90023FFF7C8FB0022194BE0
:10107000FFF7E4F8FFF77AFD174B1860FFF73CFA2B
:10108000164C02460B461649204604F025FC0A235E
:1010900032222146134802F0F7F94FF47A7002F039
:1010A0001EFCBAE7AFF30080E17A14AE47E1F63FE9
:1010B0006666666666660A400000000000FEAF4095
:1010C00022FDF675E09C713F941000204410002032
:1010D000401000200000394048100020B0110020CE
:1010E000B0610008C810002008B5012002F0F7FB2D
:1010F000FBE700000000000010B500241DE06000C8
:10110000FFF7E8F90EA3D3E90023FFF74DFA002219
:10111000114BFFF773FB03F03BFA0BA3D3E900235A
:10112000FFF742FA0AA3D3E90023FFF787F8FFF796
:10113000FDFC0A4B43F824000134632CDFDD10BDB5
:10114000FCDEA63FFB2109400000000000607D405E
:101150000000000000149D4000005940E4110020F0
:1011600000B583B0084C0021204600F0D3FDFFF706
:10117000C3FF064801F034FF002100916423044AB4
:10118000204600F0F9FDEDE7401100206811002035
:10119000E411002000220AE0002800F00103B8BF9B
:1011A0005B4204498B5400EBD07040100132072A97
:1011B000F2DD70475C11002070B5002638E0304643
:1011C000FFF7E8FF1C4C1D4D22782021284601F036
:1011D0008DFA62784021284601F088FAA2788021B1
:1011E000284601F083FAE2784FF48071284601F036
:1011F0007DFA22794FF40071284601F077FAA5F5BF
:10120000806562794FF48071284601F06FFAA27907
:101210004FF40061284601F069FAE2794FF48051F9
:10122000284601F063FA4FF47A7000F003FA0136B1
:10123000FF2EC4DD70BD00BF5C110020000C01401A
:1012400008B5FFF7B9FFFCE730B597B000240E945E
:101250000F94119412940794089409940A940B948F
:1012600001940294039404940594069401220C9230
:101270004FF480330D9310920225139514934FF47D
:10128000E01315930CA801F04DFA0F23079308956E
:1012900009944FF480630A930B94294607A801F040
:1012A00081FC01954FF40043039301A801F054FD24
:1012B00017B030BD00B59DB000F098F9FFF7C4FF3E
:1012C000FFF7BCFDFFF70CFEFFF724FEFFF746FE1D
:1012D000FFF75AFEFFF772FE1E4C15AD26460FCEE5
:1012E0000FC596E8070085E80700002115A802F061
:1012F000C0FA194B18600EAD04F11C060FCE0FC5D5
:1013000096E8070085E8070000210EA802F0B1FA70
:10131000124B186007AD04F138060FCE0FC596E8E2
:10132000070085E80700002107A802F0A2FA0C4B8D
:1013300018606D4654340FCC0FC594E8070085E85B
:1013400007000021684602F094FA064B186002F08C
:101350008BFAFEE7006100083C10002054110020C9
:10136000641100204C1000207047000082B00D4B2B
:101370009A6942F001029A619A6902F001020092B0
:10138000009ADA6942F08052DA61DB6903F0805337
:101390000193019B044A536823F0E063536002B059
:1013A000704700BF00100240000001400268094B76
:1013B0009A4200D0704782B003F56C439A6942F4B8
:1013C00000729A619B6903F400730193019B02B060
:1013D000704700BF0024014030B587B0002302935E
:1013E00003930493059302681E4B9A4201D007B001
:1013F00030BD044603F5CE33DA6942F00052DA61BB
:10140000DA6902F000520092009A9A6942F00402EE
:101410009A619B6903F004030193019B10250295D7
:101420000323039302A9104801F066F80F48104BFC
:1014300003604560002383608022C2604FF4007225
:1014400002614FF40062426120228261C36100F0B8
:1014500081FD18B9054BA3605C62C8E7FFF784FF04
:10146000F8E700BF00740040000801405010002061
:10147000300402400368B3F1804F00D0704782B05F
:1014800003F50433DA6942F00102DA61DB6903F043
:1014900001030193019B02B07047000030B587B093
:1014A0000023029303930493059302681B4B9A4213
:1014B00001D007B030BD03F558439A6942F4804229
:1014C0009A619A6902F480420092009A9A6942F005
:1014D00004029A619B6903F004030193019B4FF49A
:1014E0000073029302230393032305930C4D02A977
:1014F000284601F001F84FF480630293002403941E
:10150000049402A9284600F0F7FF22462146252030
:1015100000F096FB252000F0C7FBCAE70038014029
:10152000000801407047FEE7FEE7FEE7FEE7704770
:1015300008B500F06DF802F0A1FD012801D002F01D
:1015400061FE08BD08B5024802F08EF808BD00BF74
:10155000C810002008B5024800F058FE08BD00BFC2
:101560005010002008B503460B4A126842B10A4ADF
:10157000106803446A46934206D8074A136008BDC0
:10158000054A06491160F2E704F070F90C23036084
:101590004FF0FF30F3E700BFE4020020801300208B
:1015A0007047000010B504460E4B18784FF47A735C
:1015B000B3FBF0F30C4A1068B0FBF3F000F082FBD1
:1015C00068B90F2C01D901200AE0002221464FF012
:1015D000FF3000F035FB034B5C60002000E0012091
:1015E00010BD00BF040000200000002008B5074A1D
:1015F000136843F010031360032000F00FFB00207A
:10160000FFF7D0FFFFF7B2FE002008BD0020024028
:10161000034A1168034B1B780B441360704700BFEB
:101620007413002004000020014B1868704700BFAD
:101630007413002038B50446FFF7F6FF0546B4F1F1
:10164000FF3F02D0044B1B781C44FFF7EDFF401B0B
:10165000A042FAD338BD00BF04000020F0B583B02B
:1016600005460C4600230193FFF7DEFF2B689A68BE
:1016700012F4807F23D107465A6812F4807F03D189
:10168000DB6A13F4700F29D0514B1E68022001F061
:10169000EDFBB6FBF0F02B6819694E4A114236D1CA
:1016A000D96802F15C42114231D119694A4A1142AA
:1016B00040D1DA68494B1A423ED0292641E0AB6A54
:1016C00043F02003AB62002385F82430012003B0EF
:1016D000F0BD2B681B6813F0020F0FD02B681B683E
:1016E00013F0020F4FD1B4F1FF3FF7D0002CF0D030
:1016F000FFF79AFFC01BA042F0D9EAE7AB6A43F0BC
:101700000403AB62002385F824300320DFE7196966
:10171000314A114204D1D96802F16E4211420DD012
:1017200019692F4A0A405AB9DA682D4B13405BB148
:10173000FC2606E0292604E0142602E0542600E0F8
:10174000FC2606FB00F607E05426FAE7019BB342AD
:1017500010D3019B01330193019BB34213D2B4F127
:10176000FF3FF6D0002CF1D0FFF75EFFC01BA04278
:10177000EFD9EBE7AB6A43F00403AB62002385F8D3
:1017800024300320A3E72B686FF012021A60AB6AC3
:1017900043F40073AB622B689B6803F46023B3F5DA
:1017A000602F01D0002092E72B7B6BB9AB6A23F44A
:1017B0008073AB62AB6A13F4805F07D1AB6A43F00E
:1017C0000103AB62002082E7002080E700207EE773
:1017D00000000020244992249224491292244900B6
:1017E000499224000368D86C7047000030B482B07E
:1017F0000023019390F82430012B00F08B800246E7
:10180000012380F824304B68062B29D80568686BC3
:1018100003EB8303053B1F249C4020EA04000C6873
:1018200004FA03F303436B630B68092B38D915687B
:10183000E86803EB43031E3B07249C4020EA0400B6
:101840008C6804FA03F30343EB600B68103B012B35
:1018500034D90020002382F8243002B030BC704715
:101860000C2B0ED80568286B03EB8303233B1F2446
:101870009C4020EA04000C6804FA03F303432B6342
:10188000D2E70568E86A03EB8303413B1F249C40D1
:1018900020EA04000C6804FA03F30343EB62C3E795
:1018A0001568286903EB430307249C4020EA0400E1
:1018B0008C6804FA03F303432B61C6E713681648E8
:1018C000834205D0936A43F0200393620120C1E76D
:1018D000986810F4000F1BD1986840F400009860DD
:1018E0000B68102B01D00020B4E70C4B1B680C498F
:1018F000A1FB03139B0C03EB83035900019102E04E
:10190000019B013B0193019B002BF9D10020A1E732
:1019100000209FE70220A0E70024014000000020F3
:1019200083DE1B4330B583B00023019303689A68BC
:1019300012F0010F33D19A6842F001029A60194BFC
:101940001B68194AA2FB03239B0C019302E0019B35
:10195000013B0193019B002BF9D10446FFF764FE84
:10196000054623689B6813F0010F16D1FFF75CFE54
:10197000401B0228F5D923689B6813F0010FF0D1B2
:10198000A36A43F01003A362E36A43F00103E36236
:10199000002384F82430012002E0002000E0002031
:1019A00003B030BD0000002083DE1B4390F82430DC
:1019B000012B6AD010B50446012380F82430FFF7CC
:1019C000B1FF024600285BD1A36A23F4407323F0E1
:1019D000010343F48073A36223682D498B4227D00F
:1019E000A16A21F48011A162596811F4806F05D0B9
:1019F000A16A21F4405141F48051A162A16A11F41D
:101A0000805F2BD0E16A21F00601E162002184F8B9
:101A100024106FF0020119602368996801F46021B5
:101A2000B1F5602F1DD0996841F4801199602AE0CA
:101A3000A1F58061496811F4702FD1D0A16A41F4F9
:101A40008011A1621349496811F4806FD6D0A16A50
:101A500021F4405141F48051A162CFE70021E162BD
:101A6000D4E70B498B4204D0996841F4A0019960F6
:101A700009E0A1F58061496811F4702FD3D1F3E733
:101A8000002384F82430104610BD0222104670470F
:101A9000002801400024014038B503689A6812F01C
:101AA000010F01D1002038BD04469A6822F00102DE
:101AB0009A60FFF7B9FD054623689B6813F0010F94
:101AC00013D0FFF7B1FD401B0228F5D923689B68AE
:101AD00013F0010FF0D0A36A43F01003A362E36A8E
:101AE00043F00103E3620120DDE70020DBE70000B3
:101AF000002800F08A8070B50446836A002B36D037
:101B00002046FFF7C9FFA36A13F0100377D100281E
:101B100075D1A26A22F4885222F0020242F0020237
:101B2000A262626825683A498D4226D0E1690A437B
:101B3000267B42EA4602A168B1F5807F27D00129C1
:101B400022D0217D012925D0696821F469410B4308
:101B50006B6021688D682F4B2B4013438B60A3680B
:101B6000B3F5807F27D0012B25D0002126E0C3626A
:101B700080F82430FFF71AFCC2E7E169B1F5402F85
:101B8000D5D14FF40021D2E74FF48073D9E74FF459
:101B90008073D6E736B9A169013943EA413343F48A
:101BA0000063D1E7A16A41F02001A162E16A41F03E
:101BB0000101E162C8E72369013B19052568EB6A69
:101BC00023F470030B43EB6223689968124B0B40BC
:101BD0009A420BD0A36A23F0120343F01003A362CE
:101BE000E36A43F00103E36201200DE00023E362B6
:101BF000A36A23F0030343F00103A36204E0A36A92
:101C000043F01003A362012070BD0120704700BFA4
:101C1000003C0140FDF7E1FFFE0E1FFF074AD368BD
:101C200023F4E0631B041B0C000200F4E060184383
:101C300040F0BF6040F40030D060704700ED00E03D
:101C400030B4174BDB68C3F30223C3F10704042C41
:101C500028BF04241D1D062D18D9033B4FF0FF3566
:101C600005FA04F421EA0401994005FA03F322EA93
:101C70000303194300280BDB0901C9B200F16040DE
:101C800000F5614080F8001330BC70470023E5E7A1
:101C900000F00F000901C9B2024B1954F4E700BF6C
:101CA00000ED00E014ED00E0002807DB00F01F026B
:101CB000400901239340024A42F82030704700BF98
:101CC00000E100E00138B0F1807F0AD2064B586095
:101CD000064AF02182F823100020986007221A603B
:101CE00070470120704700BF10E000E000ED00E009
:101CF00070B110B50446037933B10223237100207B
:101D000020610123237110BD4371FFF765FBF4E7E8
:101D1000012070474379012B2CD030B4012343714B
:101D2000022202710468226801F01005AB401343DF
:101D3000236089B90268136803F03C033C2B06D08A
:101D40000123037100234371184630BC7047536868
:101D500043F001035360F3E701680A6802F470126C
:101D60003C2303FA05F5AA42EAD14B6843F002038B
:101D70004B60E5E702207047F8B5069C4579012DD8
:101D800063D0012545710225057100292FD1856891
:101D90002F4EAE6285682F4EEE6285682E4E2E6302
:101DA0000668356845F480553560042C19D0082C38
:101DB0001AD00CB10E4601E00668083615460F46EB
:101DC0000446002931D132462946806800F00EF9D8
:101DD0000023637100282ED0236943F0040323619C
:101DE000F8BD06680C36E9E706681036E6E7C56810
:101DF0001A4EAE62C5681A4EEE62C568194E2E6361
:101E00000668356845F080553560042C07D0082CED
:101E100008D00CB10026D1E706681436CEE7066874
:101E20001836CBE706681C36C8E732462946C06834
:101E300000F0DCF8CCE72268136807F010010127F6
:101E400007FA01F119431160CAE70220C8E700BF91
:101E50006B1E00087D1E0008891E0008F51E000884
:101E6000051F00080F1F0008704710B5446A204680
:101E7000FFF7FAFF0123237110BD704708B5406AD0
:101E8000FFF7FBFF08BD704710B5446A236943F0B4
:101E9000040323612046FFF7F6FF0123237110BDE1
:101EA0004379012B21D070B40125457102230371C0
:101EB0000668336802F0100240F6FE74944023EA8C
:101EC00004040B6849680B43934023433360046860
:101ED0002368C02101FA02F223EA0202226005719E
:101EE00000234371184670BC70470220704770474A
:101EF0007047704710B5446A2046FFF7F8FF01238A
:101F0000237110BD08B5406AFFF7F2FF08BD10B598
:101F1000446A236943F0040323612046FFF7E9FF85
:101F20000123237110BD70B4066CC56B0124B4404D
:101F30006C60046863604368102B05D00368996087
:101F40000368DA6070BC704703689A600368D96000
:101F5000F8E7000000283BD010B4034601681D4A92
:101F600091422AD81C4A0A441C49A1FB02121209B8
:101F7000920002641A4AC263022283F82120186880
:101F8000016821F47F5121F030015A689C68224396
:101F9000DC6822431C6922435C6922439C6922431A
:101FA000DC6922430A43026000209863012283F81F
:101FB000212083F8200010BC70470A4A0A440749D0
:101FC000A1FB0212120992000264074AC263D3E71E
:101FD0000120704707040240F8FFFDBFCDCCCCCCF8
:101FE00000000240F8FBFDBF0004024038B590F845
:101FF0002040012C32D0012480F8204090F821406C
:10200000012C04D0002380F82030022038BD044683
:10201000022084F821000020A0632568286820F0B1
:10202000010028602046FFF77EFFE36A5BB122686B
:10203000136843F00E0313602268136843F0010332
:1020400013600020E2E72268136823F004031360A2
:102050002268136843F00A031360EDE70220D5E716
:1020600090F82130022B06D004238363002380F8EC
:102070002030012070470268136823F00E031360BC
:102080000268136823F001031360036CC16B012223
:1020900002FA03F34B6080F82120002380F82030FF
:1020A0001846704708B590F82130022B03D004235E
:1020B0008363012008BD0268136823F00E031360D8
:1020C0000268136823F00103136003684B4A9342CC
:1020D0004ED9783A934224D01432934230D01432FD
:1020E00093422FD0143293422FD0143293422FD0E8
:1020F000143293422FD0143293422FD002F56272E1
:1021000093422ED0143293422DD0143293422CD0CD
:102110001432934202D04FF4803203E04FF48052E5
:1021200000E00122364B5A60012380F82130002361
:1021300080F82030436B002B5ED098470020B9E731
:102140001022EFE74FF48072ECE74FF48052E9E79A
:102150004FF48032E6E74FF48012E3E74FF08072ED
:10216000E0E70122DEE71022DCE74FF48072D9E7D6
:10217000244A934224D01432934225D014329342FD
:1021800024D01432934224D01432934224D01432F7
:10219000934224D01432934224D002F562729342C7
:1021A00023D01432934222D01432934221D01432DD
:1021B000934202D04FF4803203E04FF4805200E0AB
:1021C0000122114B5A60AFE71022FAE74FF48072F8
:1021D000F7E74FF48052F4E74FF48032F1E74FF421
:1021E0008012EEE74FF08072EBE70122E9E7102260
:1021F000E7E74FF48072E4E700205BE780000240ED
:1022000000040240080002400000024038B5C36BE1
:102210001A6804682568016C04238B40134200F09F
:102220009B8015F0040F00F09780236813F0200FB7
:1022300003D1236823F0040323600368AA4A93426E
:1022400046D9783A934224D01432934228D014329B
:10225000934227D01432934227D01432934227D08E
:102260001432934227D01432934227D002F562727F
:10227000934226D01432934225D01432934224D074
:102280001432934202D04FF4802203E04FF4804294
:1022900000E00422954B5A60C36A03B1984738BDE9
:1022A0004022F7E74FF48062F4E74FF48042F1E711
:1022B0004FF48022EEE74FF48002EBE74FF08062AC
:1022C000E8E70422E6E74022E4E74FF48062E1E732
:1022D000874A934224D01432934225D01432934239
:1022E00024D01432934224D01432934224D0143296
:1022F000934224D01432934224D002F56272934266
:1023000023D01432934222D01432934221D014327B
:10231000934202D04FF4802203E04FF4804200E069
:102320000422744B5A60B7E74022FAE74FF4806208
:10233000F7E74FF48042F4E74FF48022F1E74FF4DF
:102340008002EEE74FF08062EBE70422E9E74022EB
:10235000E7E74FF48062E4E702238B40134200F08A
:10236000A38015F0020F00F09F80236813F0200F68
:1023700006D1236823F00A032360012380F821306B
:102380000368594A93424BD9783A934224D0143285
:1023900093422DD0143293422CD0143293422CD03D
:1023A000143293422CD0143293422CD014329342E4
:1023B0002CD002F5627293422BD0143293422AD071
:1023C0001432934229D01432934202D04FF4003297
:1023D00003E04FF4005200E00222444B5A60002315
:1023E00080F82030836A002B3FF459AF984756E7B6
:1023F0002022F2E74FF40072EFE74FF40052ECE7CF
:102400004FF40032E9E74FF40012E6E74FF00072B4
:10241000E3E70222E1E72022DFE74FF40072DCE786
:10242000334A934224D01432934225D0143293423B
:1024300024D01432934224D01432934224D0143244
:10244000934224D01432934224D002F56272934214
:1024500023D01432934222D01432934221D014322A
:10246000934202D04FF4003203E04FF4005200E0F8
:102470000222204B5A60B2E72022FAE74FF40072A2
:10248000F7E74FF40052F4E74FF40032F1E74FF46E
:102490000012EEE74FF00072EBE70222E9E720229C
:1024A000E7E74FF40072E4E7082303FA01F1114271
:1024B0003FF4F5AE15F0080F3FF4F1AE236823F0BA
:1024C0000E032360026CC16B012303FA02F24A601F
:1024D000836380F82130002380F82030036B002BC9
:1024E0003FF4DDAE9847DAE6800002400004024087
:1024F0000800024000000240F0B482B000263246DC
:10250000ABE0002D63D0012D00D1CE68FF2B72D837
:102510008446FF2B72D89500DCF800400F27AF40AF
:1025200024EA070406FA05F52C43CCF800404C6871
:1025300014F0805F00F09080664CA56945F00105BD
:10254000A561A46904F001040194019C9508AF1CE5
:10255000614C54F827C002F00304A7000F24BC40CC
:102560002CEA040C5D4CA0424ED004F58064A042DD
:1025700000F08C8004F58064A04200F0898004F5AE
:102580008064A04200F0868004F58064A04200F0E0
:10259000838004F58064A04234D0062435E0504F97
:1025A000BD4214D00BD94F4FBD4210D007F5803734
:1025B000BD420CD0A7F58017BD42A7D107E0A7F513
:1025C0008017BD4203D007F58037BD429ED18D688C
:1025D0007DB1012D08D04461082697E7CE68083602
:1025E00094E7CE680C3691E7046108268EE7002652
:1025F0008CE704268AE700F1040C8AE7A2F10805BB
:10260000AD0089E7052400E00024BC4044EA0C0446
:102610000235314F47F825404C6814F4803F3DD0D7
:10262000314D2C681C432C604C6814F4003F3BD0A7
:102630002D4D6C681C436C604C6814F4801F39D0BD
:10264000294DAC681C43AC604C6814F4001F37D0B3
:10265000254DEC682343EB6001320B6833FA02F43A
:1026600034D00124944023409C42F5D14D68122D72
:10267000B7D094D8022DB1D07FF643AF032DB6D09A
:10268000112D7FF443AFCE6804363FE70124BCE749
:102690000224BAE70324B8E70424B6E7124D2C68F5
:1026A00024EA03042C60BFE70F4D6C6824EA03049E
:1026B0006C60C1E70C4DAC6824EA0304AC60C3E76E
:1026C000094DEC6824EA0303EB60C5E702B0F0BCF7
:1026D000704700BF001002400000014000080140A8
:1026E00000002110000031100004014012B909045B
:1026F000016170470161704782B0084B1B68084A4E
:10270000A2FB03235B0A00FB03F0019000BF019BC7
:102710005A1E0192002BF9D102B070470000002030
:10272000D34D6210002800F0F58170B582B00446E8
:10273000036813F0010F2CD0AB4B5B6803F00C0364
:10274000042B1DD0A84B5B6803F00C03082B12D0A0
:102750006368B3F5803F41D0002B55D103F180432E
:1027600003F504331A6822F480321A601A6822F4DE
:1027700080221A6037E09C4B5B6813F4803FE7D0FF
:10278000994B1B6813F4003F03D06368002B00F0E3
:10279000C381236813F0020F76D0934B5B6813F06C
:1027A0000C0F5FD0904B5B6803F00C03082B54D0E8
:1027B0002369002B00F08A808C4B01221A60FEF7FF
:1027C00033FF0546884B1B6813F0020F75D1FEF7E7
:1027D0002BFF401B0228F5D90320A0E1824A136891
:1027E00043F480331360636843B3FEF71DFF05466F
:1027F0007D4B1B6813F4003FCBD1FEF715FF401B48
:102800006428F5D903208AE1B3F5A02F09D0764BCF
:102810001A6822F480321A601A6822F480221A6040
:10282000E1E703F18043A3F53C331A6842F48022C8
:102830001A601A6842F480321A60D4E7FEF7F4FE98
:102840000546694B1B6813F4003FA2D0FEF7ECFE6F
:10285000401B6428F5D9032061E1634B5B6813F4E6
:10286000803FA5D1604B1B6813F0020F04D0236991
:10287000012B01D0012052E15B4A136823F0F803D9
:10288000616943EAC1031360236813F0080F32D073
:10289000A369002B5BD0564B01221A60FEF7C4FEE1
:1028A0000546514B5B6A13F0020F21D1FEF7BCFEC7
:1028B000401B0228F5D9032031E14B4A136823F06D
:1028C000F803616943EAC1031360DDE7474B002267
:1028D0001A60FEF7A9FE0546434B1B6813F0020F72
:1028E000D2D0FEF7A1FE401B0228F5D9032016E145
:1028F0000120FFF701FF236813F0040F00F0988018
:10290000394BDB6913F0805F33D1374BDA6942F022
:102910008052DA61DB6903F080530193019B01254A
:10292000344B1B6813F4807F25D0E368012B36D02D
:10293000002B4CD103F1804303F504331A6A22F0D3
:1029400001021A621A6A22F004021A622CE0284B71
:1029500000221A60FEF768FE0546234B5B6A13F0FF
:10296000020FC8D0FEF760FE401B0228F5D90320F5
:10297000D5E00025D4E71F4A136843F48073136041
:10298000FEF752FE06461B4B1B6813F4807FCCD12A
:10299000FEF74AFE801B6428F5D90320BFE0124AE7
:1029A000136A43F001031362E3687BB3FEF73CFE56
:1029B00006460D4B1B6A13F0020F38D1FEF734FEAA
:1029C000801B41F288339842F3D90320A7E0052BFE
:1029D00012D0054B1A6A22F001021A621A6A22F01A
:1029E00004021A62E0E700BF001002400000424209
:1029F00080044242007000404C4B1A6A42F00402CC
:102A00001A621A6A42F001021A62CDE7FEF70CFE62
:102A10000646464B1B6A13F0020F08D0FEF704FE71
:102A2000801B41F288339842F3D9032077E0E5B95F
:102A3000E369002B72D03D4A526802F00C02082A6A
:102A400056D0022B17D03A4B00221A60FEF7ECFD4D
:102A50000446364B1B6813F0007F47D0FEF7E4FDB9
:102A6000001B0228F5D9032059E0304AD36923F02E
:102A70008053D361DCE72E4B00221A60FEF7D4FDB1
:102A800005462A4B1B6813F0007F06D0FEF7CCFDED
:102A9000401B0228F5D9032041E0236AB3F5803FAB
:102AA0001AD022494B6823F47413226A606A0243E5
:102AB00013434B601E4B01221A60FEF7B5FD04461E
:102AC0001A4B1B6813F0007F0ED1FEF7ADFD001B03
:102AD0000228F5D9032022E0144A536823F4003376
:102AE000A1680B435360DCE7002018E0002016E0EB
:102AF000012B16D00D4B5B6803F48031226A9142A2
:102B000001D001200BE003F47013626A93420AD0F3
:102B1000012004E001207047012000E0002002B005
:102B200070BD0120FBE70020F9E700BF0010024064
:102B30006000424210B487B0164C94E80F000DF1CB
:102B4000180C0CE90F00238AADF80430124B5B68B7
:102B500003F00C02082A1AD1C3F38342624412F82C
:102B6000102C13F4803F05D10C4800FB02F007B095
:102B700010BC7047084B5B68C3F34043634413F8D1
:102B8000143C074800FB02F0B0FBF3F0EFE7044809
:102B9000EDE700BF886100080010024000093D0019
:102BA00000127A00002800F0A38070B50446524B52
:102BB0001B6803F007038B420CD24F4A136823F0C3
:102BC00007030B431360136803F007038B4201D024
:102BD000012070BD236813F0020F17D013F0040F0B
:102BE00004D0464A536843F4E0635360236813F00B
:102BF000080F04D0414A536843F4605353603F4A7E
:102C0000536823F0F003A068034353600D46236824
:102C100013F0010F31D06368012B20D0022B25D097
:102C2000364A126812F0020F64D034494A6822F022
:102C3000030213434B60FEF7F7FC06462F4B5B681D
:102C400003F00C036268B3EB820F16D0FEF7ECFCC6
:102C5000801B41F288339842F0D90320B9E7274A14
:102C6000126812F4003FE0D10120B2E7234A126853
:102C700012F0007FD9D10120ABE71F4B1B6803F096
:102C80000703AB420CD91C4A136823F007032B43FC
:102C90001360136803F00703AB4201D0012098E7EB
:102CA000236813F0040F06D0144A536823F4E0633A
:102CB000E1680B435360236813F0080F07D00F4AF5
:102CC000536823F46053216943EAC1035360FFF75B
:102CD00031FF0A4B5B68C3F30313094AD35CD84046
:102CE000084B1860084B1868FEF75CFC002070E782
:102CF0000120704701206CE70020024000100240D4
:102D0000706100080000002008000020014B1868D6
:102D1000704700BF0000002008B5FFF7F7FF044B25
:102D20005B68C3F30223034AD35CD84008BD00BFED
:102D3000001002408061000808B5FFF7E7FF044B70
:102D40005B68C3F3C223034AD35CD84008BD00BF0D
:102D5000001002408061000870B582B0044603682C
:102D600013F0010F34D03E4BDB6913F0805F48D184
:102D70003B4BDA6942F08052DA61DB6903F0805341
:102D80000193019B0125374B1B6813F4807F3AD0D8
:102D9000334B1B6A13F4407311D0626802F4407223
:102DA0009A420CD02E4A136A23F440702E49012611
:102DB0000E6000260E60106213F0010F37D1284A12
:102DC000136A23F4407361680B431362002D3FD1F3
:102DD000236813F0020F06D0214A536823F44043BE
:102DE000A1680B435360236813F0100F35D01C4AC1
:102DF000536823F4800361690B435360002002B0E1
:102E000070BD0025BFE7174A136843F48073136051
:102E1000FEF70AFC0646134B1B6813F4807FB7D1FC
:102E2000FEF702FC801B6428F5D90320E7E7FEF7D4
:102E3000FBFB06460A4B1B6A13F0020FBFD1FEF7DD
:102E4000F3FB801B41F288339842F3D90320D6E785
:102E5000D36923F08053D361BAE70020CFE700BFE6
:102E600000100240007000404004424230B587B07C
:102E700005463F4C94E80F000DF1180C0CE90F00CB
:102E8000238AADF80430681E0F2866D8DFE800F00A
:102E9000395A6532656565366565656565656508D8
:102EA000344B5A681B6813F0807F58D0C2F38343B9
:102EB00006A90B4413F8100C12F4803F16D02D4BCA
:102EC0005B68C3F340430B4413F8142C2A4BB3FB49
:102ED000F2F300FB03F0274B5B6813F4800F0BD178
:102EE0004000264BA3FB0030400805E0244B03FBC9
:102EF00000F0F0E7FFF71EFE07B030BDFFF71AFE47
:102F0000FAE71C4B1B6A40F202321A40B2F5817F8D
:102F100027D003F44073B3F5007F04D0B3F5407FAE
:102F200009D00020E8E7134A526A12F0020FF5D0E8
:102F300049F64040E0E70F4B1B6813F4003F13D104
:102F40000020D9E7FFF7F8FE0A4B5B68C3F3813333
:102F500001335B00B0FBF3F0CEE70020CCE70020AC
:102F6000CAE74FF40040C7E74FF22440C4E700BF70
:102F70009C6100080010024000127A00ABAAAAAAC5
:102F800000093D0010B4036A046A24F001040462DD
:102F9000846924F0F00444EA021223F00A030B438C
:102FA0008261036210BC704710B4036A23F01003FF
:102FB00003628469036A24F4704444EA023223F011
:102FC000A00343EA01138261036210BC7047836867
:102FD00023F07003194341F007018160704700003E
:102FE00090F83D30DBB2012B01D001207047022365
:102FF00080F83D300368144A934218D002F500620D
:10300000934214D0B3F1804F11D0A2F5983293427D
:103010000DD002F58062934209D002F5806293429E
:1030200005D01A6842F001021A60002070479A68C1
:1030300002F00702062A05D01A6842F001021A605F
:103040000020704700207047002C01400368244A8C
:10305000904212D002F5006290420ED0B0F1804F43
:103060000BD0A2F59832904207D002F580629042D0
:1030700003D002F58062904203D123F070034A68C6
:103080001343174A904212D002F5006290420ED0CC
:10309000B0F1804F0BD0A2F59832904207D002F5E4
:1030A0008062904203D002F58062904203D123F403
:1030B0004073CA68134323F080034A6913430360D3
:1030C0008B68C3620B688362054B984203D003F59B
:1030D0000063984201D10B69036301234361704788
:1030E000002C014038B310B5044690F83D30EBB1E8
:1030F000022384F83D30211D2068FFF7A7FF01233C
:1031000084F8463084F83E3084F83F3084F840300C
:1031100084F8413084F8423084F8433084F84430F5
:1031200084F8453084F83D30002010BD80F83C30F4
:10313000FEF7A0F9DCE70120704710B4846824F49E
:103140007F4442EA03230B432343836010BC704750
:1031500090F83C30012B66D010B50446012380F86E
:103160003C30022380F83D300268936823F47F43AB
:1031700023F0770393600B68402B4AD013D9602B60
:103180003DD01ED9702B28D0B3F5005F30D1CB686D
:103190004A6889680068FFF7D0FF2268936843F4A3
:1031A0008043936024E0102B06D004D9202B03D059
:1031B000302B01D01CE0DBB919462068FFF707FF70
:1031C00016E0502B14D1CA6849680068FFF7DAFE90
:1031D00050212068FFF7FBFE0AE0CB684A68896847
:1031E0000068FFF7AAFF2268936843F077039360B3
:1031F000012384F83D30002084F83C0010BDCA68EB
:1032000049680068FFF7D0FE60212068FFF7DFFE05
:10321000EEE7CA6849680068FFF7B4FE40212068FD
:10322000FFF7D5FEE4E702207047000090F83C303D
:10323000012B33D030B4012380F83C30022380F8D6
:103240003D3003685C689D6824F070040A6822437E
:103250005A600368124A934212D002F50062934208
:103260000ED0B3F1804F0BD0A2F59832934207D025
:1032700002F58062934203D002F58062934204D14A
:1032800025F080054A6815439D60012380F83D3094
:10329000002380F83C30184630BC7047022070474D
:1032A000002C01400268D36823F49073D360026855
:1032B000536923F001035361036B012B05D02023D5
:1032C00080F83E300023036370470268D36823F020
:1032D0001003D360F3E790F83D30DBB2212B27D108
:1032E0008368B3F5805F16D0036A5A1C02621A78AD
:1032F00003685A60C38C013B9BB2C384D3B9026894
:10330000D36823F08003D3600268D36843F040039E
:10331000D360002070470369002BE5D1036A1B8846
:103320000268C3F308035360036A02330362E1E7F0
:10333000022070470020704738B5044602681369C0
:1033400023F44053C1680B4313618368026913433C
:1033500042691A430168CB6823F4B05323F00C038D
:103360001343CB600268536923F4407381690B43B4
:1033700053610268124B9A421FD0FFF7CDFC00EB5D
:10338000800000EB800063689B00B0FBF3F00D4D04
:10339000A5FB00325109642202FB110213013233F2
:1033A000A5FB03235B0903F0F00202EB011203F01B
:1033B0000F03216813448B6038BDFFF7BDFCDEE7C7
:1033C000003801401F85EB512DE9F04105460F46BD
:1033D00016469846069C2B681B6837EA03030CBF09
:1033E00001230023B3421DD1B4F1FF3FF3D02CB130
:1033F000FEF71AF9A0EB0800A042ECD92A68D368BE
:1034000023F4D073D3602A68536923F00103536116
:10341000202385F83D3085F83E30002385F83C3088
:10342000032000E00020BDE8F08158B310B5044649
:1034300090F83D300BB3242384F83D302268D368E4
:1034400023F40053D3602046FFF776FF2268136908
:1034500023F4904313612268536923F02A035361D4
:103460002268D36843F40053D360002020642023F3
:1034700084F83D3084F83E3010BD80F83C30FEF7D3
:103480000DF8D8E7012070472DE9F04182B01E46C3
:1034900090F83D30DBB2202B54D104460D469046C7
:1034A000002954D0002A54D090F83C30012B52D03F
:1034B000012380F83C3000230364212380F83D3051
:1034C000FEF7B2F80746A4F82480A4F82680A36883
:1034D000B3F5805F05D04FF00008002384F83C303E
:1034E00011E0236913B14FF00008F6E7A846002564
:1034F000F3E738F8023B2268C3F308035360E38C18
:10350000013B9BB2E384E38C9BB273B100963B46D4
:10351000002280212046FFF757FFF0B9002DE8D0A8
:1035200015F8012B23685A60E9E700963B46002214
:1035300040212046FFF748FF034680B9202284F847
:103540003D2000E00223184602B0BDE8F0810123CF
:10355000F9E70123F7E70223F5E70323F3E7032362
:10356000F1E7704708B50168CB6823F04003CB60F2
:10357000202380F83D30FFF7F4FF002008BD70479E
:10358000704708B5406A0023C385C384FFF7F8FF7E
:1035900008BD704790F83E30DBB2222B60D18368C3
:1035A000B3F5805F45D0826AB3F5805F04D0002B0D
:1035B0004CD10369002B49D103685B681370836A9F
:1035C00001338362C38D013B9BB2C385002B49D17C
:1035D00000B583B00268D36823F02003D36002688B
:1035E000D36823F48073D3600268536923F0010326
:1035F0005361202380F83E30036B012B2CD1002334
:1036000003630268D36823F01003D36003681A6869
:1036100012F0100F06D0002201921A6801925B6826
:103620000193019B818DFFF7B4FF002003B05DF88B
:1036300004FB0269002AB6D1826A03685B68C3F39F
:1036400008031380836A02338362BBE703685B6805
:1036500003F07F031370B2E7FFF791FF0020E5E767
:10366000022070470020704730B583B004460268DE
:103670001368D068516913F00F0505D113F0200FBE
:1036800002D010F0200F56D1002D6AD011F00101A8
:1036900002D110F4907F64D013F0010F06D010F423
:1036A000807F03D0226C42F00102226413F0040FE9
:1036B00004D019B1226C42F00202226413F0020F0E
:1036C00004D019B1226C42F00402226413F0080FF6
:1036D00007D010F0200F00D119B1226C42F008027F
:1036E0002264226C002A4BD013F0200F02D010F07D
:1036F000200F24D123685B6903F04003226C12F091
:10370000080F00D13BB32046FFF7CCFD23685A6970
:1037100012F0400F1BD05A6922F040025A61A36B8D
:103720008BB14D4A5A63A06BFEF7BCFC40B3A06B53
:10373000436B984724E02046FFF72CFF20E020460B
:10374000FFF728FFD6E72046FFF71AFF18E02046CC
:10375000FFF716FF14E02046FFF712FF0023236453
:103760000EE0216B01290DD013F0800F02D010F074
:10377000800F69D113F0400F02D010F0400F67D1D5
:1037800003B030BD13F0100FEED010F0100FEBD0DF
:10379000002301931368019353680193019B5369BC
:1037A00013F0400F2FD0A16B0B685B689BB2002B0E
:1037B000E6D0A08D9842E3D9E3858B69202B1AD0FF
:1037C000D36823F48073D3602268536923F0010324
:1037D00053612268536923F040035361202384F826
:1037E0003E30002323632268D36823F01003D360A4
:1037F000A06BFEF735FCA18DE38DC91A89B2204676
:10380000FFF7C7FEBCE7A18DE38DC91A89B2E38D2E
:103810009BB2002BB4D00029B2D0D36823F49073AC
:10382000D3602268536923F001035361202384F895
:103830003E30002323632268D36823F01003D36053
:103840002046FFF7A6FE9BE72046FFF744FD97E7DB
:103850002046FFF787FE93E783350008842801D0D0
:10386000033070470020704708B500F05FFA002071
:1038700008BD2DE9F04387B004460F464569A5B160
:10388000866996B1D0F80480D0F80090B0F90800AD
:10389000FFF7E4FF22690296019500903B464946F6
:1038A000404600F0D7F9059013E065682668D4F823
:1038B0001080B4F90800FFF7D1FF05AB0193009029
:1038C0003B461FFA88F23146284600F0FCF90128F1
:1038D00003D1059807B0BDE8F0830020FAE708B5EA
:1038E000034600B90123184600F05AFB002008BD2A
:1038F00000F1080343604FF0FF328260C360036150
:1039000000230360704700230361704743684B60E6
:103910009A688A609A685160996008610368013307
:103920000360704730B40D68B5F1FF3F02D000F17D
:10393000080202E0026904E01A4653681C68AC42BF
:10394000FAD953684B6099608A60516008610368D6
:103950000133036030BC704703694268816891603D
:103960008268416851605A68824206D00022026132
:103970001A68013A1A601868704782685A60F5E759
:10398000074B9B6A1B6833B1054B9A6AD268D268B1
:103990005268DA627047024B4FF0FF32DA627047CA
:1039A000EC0200202DE9F04780469946089D099FCA
:1039B0000A9C266B02F18042013A06EB820626F051
:1039C000070600230F2B07D8C85CE21882F83400E2
:1039D000CA5C0AB10133F5E7002384F84330062DB1
:1039E00000D90625E56265644FF0000AC4F848A0D6
:1039F000201DFFF788FF04F11800FFF784FF246102
:103A0000C5F10705A5616462C4F84CA084F850A014
:103A10004A464146304600F071FB206007B13C60E9
:103A2000BDE8F08770B5002407E004EB8402930042
:103A300010481844FFF75CFF0134062CF5D90E4CF2
:103A400004F1BC063046FFF753FF04F1D0052846C9
:103A5000FFF74EFF04F11400FFF74AFF04F1E40002
:103A6000FFF746FF2046FFF743FFA662C4F8F85071
:103A700070BD00BF1C030020EC02002038B50546D5
:103A800000F060FB264BD3F8FC200132C3F8FC2089
:103A9000D3F8003173B1224BD3F804318BB9204BEA
:103AA000D3F80031DA6AEB6A9A420AD81C4BC3F8A1
:103AB000005106E01A4BC3F80051D3F8FC30012B3B
:103AC0002AD0174CD4F808310133C4F80831EB6A16
:103AD00001229A40D4F80C110A43C4F80C2104F1D5
:103AE000300003EB83039A00291D1044FFF70EFFFB
:103AF00000F04AFBD4F804316BB1D4F80031DA6A33
:103B0000EB6A9A4207D2074B4FF080521A60BFF31C
:103B10004F8FBFF36F8F38BDFFF784FFD1E700BF32
:103B2000EC02002004ED00E010B5044690F851309E
:103B300033B9006B00F0CEFC204600F0CBFC10BD8A
:103B4000012B0AD0022BFAD04FF0500383F31188D7
:103B5000BFF36F8FBFF34F8FFEE700F0BBFCEEE7C4
:103B600038B517E000F0EEFA0D4CD4F8F030DD680F
:103B7000281DFFF7F1FED4F8FC30013BC4F8FC30FF
:103B8000D4F81031013BC4F8103100F0FDFA28469A
:103B9000FFF7CAFF024BD3F81031002BE2D138BD3A
:103BA000EC02002008B5FFF7DBFF064B1B6B012B77
:103BB000F9D9054B4FF080521A60BFF34F8FBFF316
:103BC0006F8FF0E7EC02002004ED00E070B50446D2
:103BD0000E461F4BD3F81451D3F800010430FFF701
:103BE000BBFE60B91A4BD3F80021D16A012202FA58
:103BF00001F1D3F80C2122EA0102C3F80C21B4F13F
:103C0000FF3F12D02C44124BD3F800315C60A54228
:103C100014D80F4DA86AD5F800110431FFF782FEC1
:103C2000EB6AA34212D9EC6210E0002EEAD00848F9
:103C3000D0F800110431FFF769FE07E0044BD3F818
:103C4000F800D3F800110431FFF76CFE70BD00BF1F
:103C5000EC02002070B586B00B9D0C9C45B94FF06E
:103C6000500383F31188BFF36F8FBFF34F8FFEE7CD
:103C700044B94FF0500383F31188BFF36F8FBFF344
:103C80004F8FFEE754260496049E542E08D04FF022
:103C9000500383F31188BFF36F8FBFF34F8FFEE79D
:103CA0002563022584F8515000250395029405AD43
:103CB00001950A9D0095FFF775FE2046FFF7DEFE91
:103CC000059806B070BD2DE9F04385B007468846DB
:103CD00015469946900000F077FB08B3064654203D
:103CE00000F072FB0446B8B10663E4B1002384F827
:103CF0005130039302940D9B01930C9B00934B4610
:103D00002A4641463846FFF74DFE2046FFF7B6FEED
:103D1000012005B0BDE8F083304600F0DBFBE4E7AE
:103D20004FF0FF30F5E74FF0FF30F2E710B588B005
:103D300000240594069407AA06A905A8FDF774F8BF
:103D4000059B0293069B019300942346079A0D4915
:103D50000D48FFF77FFF08B908B010BD4FF05003C2
:103D600083F31188BFF36F8FBFF34F8F074B4FF073
:103D7000FF32DA620122C3F80421C3F8144100F0D3
:103D800073FAE9E7EC610008A53B0008EC020020AB
:103D9000034AD2F818310133C2F81831704700BF16
:103DA000EC0200202DE9F041404BD3F81831002BF4
:103DB0006CD13E4BD3F814510135C3F81451CDB931
:103DC0009B6A1B6843B14FF0500383F31188BFF324
:103DD0006F8FBFF34F8FFEE7344B9A6AD3F8F8101A
:103DE0009962C3F8F820D3F81C210132C3F81C21D2
:103DF000FFF7C6FD2D4BDB6AAB423DD900242B4AB1
:103E0000D2F80031DB6A03EB830399000A44136B99
:103E1000012B42D9012440E00124244B9B6A1B68FA
:103E200063B3224B9B6ADB68DE6873689D422AD3CA
:103E300006F104084046FFF78FFDB36A1BB106F197
:103E40001800FFF789FDF36A01229A40174FD7F84F
:103E50000C110A43C7F80C2107F1300003EB830370
:103E60009A0041461044FFF751FDF26AD7F800313D
:103E7000DB6A9A42D0D2D0E70024CEE70B4B4FF05A
:103E8000FF32DA62BBE7094AD362B8E7074AD2F8E1
:103E900020310133C2F820310024044BD3F82431FF
:103EA00003B101242046BDE8F08100BFEC020020F0
:103EB000394BD3F8183143B94FF0500383F31188CD
:103EC000BFF36F8FBFF34F8FFEE770B500F03AF985
:103ED000314BD3F81821013AC3F81821D3F818311F
:103EE000002B54D12C4BD3F8FC3023B9002400F024
:103EF0004BF9204670BD0024274B5B692BB3264D40
:103F00002B6ADC6804F11800FFF726FD261D3046F9
:103F1000FFF722FDE36A01229A40D5F80C110A430B
:103F2000C5F80C2105F1300003EB83039A003146FC
:103F30001044FFF7EBFCE26AD5F80031DB6A9A42E5
:103F4000DAD30122C5F82421D6E70CB1FFF718FD1A
:103F5000114BD3F8204164B1FFF724FF18B10E4B89
:103F60000122C3F82421013CF6D10B4B0022C3F8F7
:103F70002021094BD3F824315BB1084B4FF080521C
:103F80001A60BFF34F8FBFF36F8F0124AFE7002498
:103F9000ADE70024ABE700BFEC02002004ED00E039
:103FA00010B5B0B104460F4BD3F8183143B14FF000
:103FB000500383F31188BFF36F8FBFF34F8FFEE77A
:103FC000FFF7E6FE00212046FFF700FEFFF770FF37
:103FD00038B9054B4FF080521A60BFF34F8FBFF3D3
:103FE0006F8F10BDEC02002004ED00E0224BD3F8EF
:103FF000183123B1204B0122C3F8242170471E4AF7
:104000000023C2F82431D2F80C31B3FA83F3DBB2C7
:10401000C3F11F0303EB830081000A44126B42B912
:104020004FF0500383F31188BFF36F8FBFF34F8FAF
:10403000FEE710B4104A9900CC18A0001044446B5D
:104040006468446330321944880008300244944262
:104050000AD0094903EB83039A000A44536BDB68D7
:10406000C1F8003110BC704761680348142202FB9C
:1040700003025163EDE700BFEC020020064BD3F8CA
:1040800004313BB1044BD3F818310BB10020704719
:104090000220704701207047EC02002082B000230C
:1040A00001930D4B1B68B3F1FF3F08D04FF0500355
:1040B00083F31188BFF36F8FBFF34F8FFEE74FF08D
:1040C000500383F31188BFF36F8FBFF34F8F019BB2
:1040D000002BFCD002B070470C000020064800689E
:1040E000006880F3088862B661B6BFF34F8FBFF3F4
:1040F0006F8F00DF00BF000008ED00E04FF080731D
:1041000040F8043C21F0010140F8081C034B40F842
:104110000C3C40F8202C4038704700BF9D40000800
:10412000074B19680868B0E8F00F80F30988BFF3FF
:104130006F8F4FF0000080F311884EF00D0E704726
:10414000EC0300204FF0500383F31188BFF36F8F0F
:10415000BFF34F8F0A4A136801331360012B00D05D
:104160007047084B1B6813F0FF0FF9D04FF0500356
:1041700083F31188BFF36F8FBFF34F8FFEE700BF4C
:104180000C00002004ED00E0094B1B6843B94FF020
:10419000500383F31188BFF36F8FBFF34F8FFEE798
:1041A000013B034A13600BB983F31188704700BFCA
:1041B0000C000020000000000000000000000000D3
:1041C000EFF30980BFF36F8F0D4B1A6820E9F00FF2
:1041D00010602DE908404FF0500080F31188FFF780
:1041E00005FF4FF0000080F31188BDE80840196812
:1041F0000868B0E8F00F80F30988BFF36F8F70474D
:10420000EC03002008B54FF0500383F31188BFF38F
:104210006F8FBFF34F8FFFF7C5FD18B1034B4FF002
:1042200080521A60002383F3118808BD04ED00E07A
:10423000084A0023136008490B60084B1B680849B3
:10424000A1FB03139B09013B06490B600723136085
:10425000704700BF10E000E018E000E00000002020
:10426000D34D621014E000E010B582B0274B1A78ED
:10427000D2B20192FF221A701B78DBB28DF80330A4
:104280009DF8033003F05003214A13700723536055
:1042900009E01F4A5368013B53609DF803305B00FF
:1042A000DBB28DF803309DF8033013F0800FF0D1AE
:1042B000174B5B68032B08D04FF0500383F3118832
:1042C000BFF36F8FBFF34F8FFEE71B0203F4E06372
:1042D0000F4A5360019BDBB20C4A13700D4B1A68F6
:1042E00042F470021A601A6842F070421A60FFF7D6
:1042F0009FFF0024084B1C60FFF7F0FEFFF776FEDF
:10430000FFF7CCFE204602B010BD00BF00E400E085
:104310001404002020ED00E00C000020134A12F0ED
:10432000070F20D0D11D21F00701C1F540631344D0
:104330000A460E49C1F8002C0020C1F8040C1344B1
:10434000083B23F00703C1F8083C58601860981A2E
:1043500050601360C1F80C0CC1F8100C4FF0004312
:10436000C1F8143C70474FF44063E2E71C0400209E
:1043700010B4134B1A6882421BD359685C188442EC
:1043800003D1406801445960184641684418A2426C
:1043900013D10C4CD4F8084CA2420CD052681144F2
:1043A00041601A6812680260984200D0186010BC20
:1043B00070471346DEE70460F6E70260F4E700BFEB
:1043C0001C1000201C04002070B50446FFF7E0FC20
:1043D0003F4BD3F8083CC3B13D4BD3F8143C1C42CF
:1043E0006CD1ACB1083414F0070F11D024F00704DD
:1043F000083404F007035BB14FF0500383F31188D6
:10440000BFF36F8FBFF34F8FFEE7FFF787FFE3E741
:10441000002C55D02E4BD3F8103CA34252D32C4B3A
:10442000D3F8005C03F5406301E02B4615466A684B
:10443000A24202D22A68002AF7D1254AD2F8082CD3
:10444000AA4241D01E6808362A681A606B681B1B96
:10445000102B10D9281910F0070F08D04FF0500377
:1044600083F31188BFF36F8FBFF34F8FFEE7436075
:104470006C60FFF77DFF6968154AD2F8103C5B1A43
:10448000C2F8103CD2F80C2C934202D2104AC2F867
:104490000C3C0F4BD3F8143C0B436B6000232B6098
:1044A000FFF706FD16F0070F10D04FF0500383F30F
:1044B0001188BFF36F8FBFF34F8FFEE70026EFE742
:1044C0000026EDE70026EBE70026E9E7304670BD61
:1044D0001C04002098B338B50446A0F1080550F834
:1044E000042C1749D1F8141C0A4208D14FF050038C
:1044F00083F31188BFF36F8FBFF34F8FFEE750F840
:10450000080C40B14FF0500383F31188BFF36F8F55
:10451000BFF34F8FFEE722EA010244F8042CFFF7B5
:1045200037FC54F8041C064AD2F8103C0B44C2F87D
:10453000103C2846FFF71CFFFFF7BAFC38BD704758
:104540001C0400200C480D490D4A002302E0D458F9
:10455000C4500433C4188C42F9D30A4A0A4C0023CD
:1045600001E013600432A242FBD3FDF719F801F019
:1045700083F9FCF79FFE70470000002074000020C4
:104580000C640008740000207C130020FEE700008B
:1045900030B5214A21F00043934287B01BDD1F4A0A
:1045A000934205DD02460B46FBF746FE07B030BDE1
:1045B00002AA00F035F800F00300012813D0022809
:1045C0001FD0DDE90423A8B1DDE9020100F048FABB
:1045D00001F10041EAE7002400220023009400F0EA
:1045E0008BFF07B030BDDDE90423DDE9020100F0F7
:1045F00037FADBE70124DDE90201009400F07CFFDB
:10460000D4E70124DDE90423DDE90201009400F090
:1046100073FF01F10041C9E7FB21E93FFFFFEF7F95
:104620002DE9F04FC84C21F00045A5428FB040F372
:104630008A801446C54A0E46954226DCB8A3D3E9C3
:104640000023002940F38A80FBF7F6FDC04B0646A5
:104650009D420F4600F04681B3A3D3E90023FBF748
:10466000EBFD02460B463046C4E900233946FBF712
:10467000E3FDADA3D3E90023FBF7DEFD0127C4E989
:10468000020138460FB0BDE8F08FB24A954240F3C0
:104690008480B14A954200F31B812F15A7F216477B
:1046A000A5EB07518B468246FCF718FAFBF712FF81
:1046B0008046894642464B4650465946CDE90889D0
:1046C000FBF7BAFD0022A54BFBF76EFF8B46824637
:1046D000FCF704FAFBF7FEFE8046894642464B464D
:1046E00050465946CDE90A89FBF7A6FD00229B4BAF
:1046F000FBF75AFF00220023CDE90C01FCF7BCF9BF
:10470000002800F05F810023404649460022FCF764
:10471000B3F9002814BF01230223022090493A462E
:10472000CDE90001214608A800F0BEFA002E074698
:1047300010DA6268E36802F1004203F10043474285
:104740006260E36006E0002400250027C2E902451C
:10475000C2E9000138460FB0BDE8F08FFBF76EFDEF
:104760007B4B06469D420F4600F00E816EA3D3E9B7
:104770000023FBF763FD02460B4630463946C4E989
:104780000023FBF759FD68A3D3E90023FBF756FD8F
:104790004FF0FF37C4E90201DCE700F063FF64A3D8
:1047A000D3E9002380468946FBF7FEFE00226D4BCD
:1047B000FBF744FDFCF792F90746FBF78BFE58A385
:1047C000D3E9002382468B46CDE904ABFBF7ECFE30
:1047D00002460B4640464946FBF72EFD52A3D3E95D
:1047E0000023CDE9020150465946FBF7DDFE1F2F9D
:1047F0008046894602460B46DDE9020140F3B4805B
:10480000FBF71AFD83468A462D15CAF30A53EB1AA5
:10481000102B40F3B48048A3D3E90023DDE9040161
:10482000FBF7C2FE8046894602460B46DDE90201DF
:10483000FBF702FD82468B4602460B46DDE902018C
:10484000FBF7FAFC42464B46FBF7F6FC3CA3D3E9E8
:10485000002380468946DDE90401FBF7A5FE4246B8
:104860004B46FBF7E9FC0B4602468046894650461C
:104870005946CDE906ABFBF7DFFCC1F30A53ED1A4D
:10488000312D83468A4600F39F8002460B46DDE9C0
:104890000601C4E90023CDE90201DDE902015A461F
:1048A0005346FBF7C9FC42464B46FBF7C5FC0246A4
:1048B0000B46002EC4E90223BFF64CAF0AF10043B9
:1048C00001F10041C4E900B3C4E902017F4241E7BC
:1048D00002460B46FBF7B0FC0027C4E90201C4E91D
:1048E000000137E714A3D3E90023FBF7A5FC14A3C9
:1048F000D3E900230F460646FBF79EFC02460B4613
:1049000030463946C4E90023FBF796FC0CA3D3E9F3
:104910000023FBF791FC0127C4E902011AE700BF5D
:1049200000004054FB21F93F3163621A61B4D03D6D
:1049300083C8C96D305FE43F0000601A61B4D03DA8
:104940007370032E8A19A33BFB21E93F7BD90240F8
:10495000FB21F93FFB213941FFFFEF7F0000704150
:10496000746200080000E03FFBF766FC3A4B7A1ED9
:1049700053F822308346AB428A463FF445AF5A464D
:104980005346C4E9002388E72BA3D3E90023FBF7B0
:1049900055FC2BA3D3E900230F460646FBF74EFC3C
:1049A00002460B4630463946C4E90023FBF744FC77
:1049B00023A3D3E90023FBF741FC4FF0FF37C4E901
:1049C0000201C7E60323A8E61FA3D3E90023DDE91C
:1049D0000401FBF7E9FD8046894602460B46DDE906
:1049E0000601FBF729FC82468B4602460B46DDE9B1
:1049F0000601CDE902ABFBF71FFC42464B46FBF735
:104A00001BFC13A3D3E9002380468946DDE904019A
:104A1000FBF7CAFD42464B46FBF70EFC02460B462F
:104A20008046894650465946FBF706FC83468A462F
:104A3000A5E700BFAFF300800000601A61B4D03D6D
:104A40007370032E8A19A33B0000002E8A19A33B22
:104A5000C14920259A837B39F461000800000000D9
:104A60002DE9F04F21F00046B6F1795F85B00C4694
:104A700092469B4605466BDAFCF730F8002800F0BA
:104A8000E1802A46234628462146FBF78DFD74A384
:104A9000D3E9002380468946FBF786FD72A3D3E95C
:104AA0000023FBF7CBFB42464B46FBF77DFD70A393
:104AB000D3E90023FBF7C0FB42464B46FBF774FDEE
:104AC0006DA3D3E90023FBF7B9FB42464B46FBF746
:104AD0006BFD6BA3D3E90023FBF7AEFB42464B46CD
:104AE000FBF762FD68A3D3E90023FBF7A7FB42466F
:104AF0004B46FBF759FDCDE900010022644B4046CF
:104B00004946FBF751FDDDE9002306460F464046C6
:104B10004946FBF749FD5246804689465B46284692
:104B20002146FBF741FD02460B4640464946FBF74E
:104B300083FB02460B4630463946FBF77DFB0246B7
:104B40000B4600205349FBF777FB05B0BDE8F08F1B
:104B500002460B46FBF728FD41A3D3E9002380461C
:104B60008946FBF721FD40A3D3E90023FBF766FB51
:104B700042464B46FBF718FD3DA3D3E90023FBF764
:104B80005BFB42464B46FBF70FFD3BA3D3E90023FB
:104B9000FBF754FB42464B46FBF706FD38A3D3E92F
:104BA0000023FBF749FB42464B46FBF7FDFC36A3CF
:104BB000D3E90023FBF742FB4B464246FBF7F4FCEC
:104BC000354BCDE900019E4297DD344B00229E42D9
:104BD0003DDCA6F5001300202E4916461F46FBF7C4
:104BE0002BFBCDE902010022294B40464946FBF749
:104BF000DBFC32463B46FBF71FFBDDE900230646A4
:104C00000F4640464946FBF7CFFC52468046894650
:104C10005B4628462146FBF7C7FC02460B4640464A
:104C20004946FBF709FB02460B4630463946FBF77F
:104C300003FB02460B46DDE90201FBF7FDFA05B076
:104C4000BDE8F08F0020134905B0BDE8F08F144B8C
:104C50000026CDE90223134FC5E700BFAFF3008064
:104C6000D43888BEE9FAA8BDC4B1B4BD9EEE213ED9
:104C7000AD529C804F7E923E9015CB19A001FA3E1A
:104C80007751C1166CC1563F4C5555555555A53FEA
:104C90000000E03F0000F03F3233D33F0000E93F27
:104CA0000000E73F0000D23F2DE9F04F1F46ADF571
:104CB000197DBF4C0793D31E84FB0354DB17C3EB52
:104CC000A40323EAE375BB4CA29E6B1C54F8266038
:104CD000A3EB83037C1E02EBC303059333190995F1
:104CE0000496019407460B91A5EB04081DD4434498
:104CF000002400255E1C0DF18009DDF88CA209E07E
:104D00005AF82800FBF7E6FB08F10108B045E9E88E
:104D100002010AD0B8F1000FF2DA2046294608F164
:104D20000108B045E9E80201F4D1049B002BC0F270
:104D3000B783A7F108021146079B0392DB0020AA64
:104D400002EB0309029301EB0308049B72AA02EB36
:104D5000C30B0DF5E07A019B002BC0F295814D4607
:104D600000260027039C75E90223F4E90201FBF702
:104D70001BFC02460B4630463946FBF75FFA4445BA
:104D800006460F46EFD1EAE80267DA4509F108095D
:104D9000E1D1DDE90210049B01449B468A469B0059
:104DA0000BA9A3F10802CB1808930CAB13440A9388
:104DB00098AB03EBCB03BBF1000F53E9284529DD8A
:104DC00070AB0DF1300903EBCB0800227A4B204683
:104DD0002946FBF7E9FBFBF781FEFBF77BFB002293
:104DE000764B06460F46FBF7DFFB02460B46204696
:104DF0002946FBF721FAFBF771FE78E9022349F80F
:104E0000040B39463046FBF719FA70AB9845044657
:104E10000D46DAD1DDF81490204629464A4600F0C6
:104E2000ABFC00224FF07F5304460D46FBF7BCFB62
:104E300000F01EFC0022624BFBF7B6FB02460B465D
:104E400020462946FBF7F8F90D460446FBF746FED7
:104E50008046FBF73FFB0B46024629462046FBF700
:104E6000EBF94B46002B06460F4640F3E1800BF171
:104E7000FF310CAA52F82150C9F1180345FA03F288
:104E800002FA03F3EB1A0CA8C9F1170540F8213018
:104E9000904443FA05F5002D2CDDBBF1000F08F11D
:104EA000010840F399820C9C002C40F0A780BBF1D4
:104EB000010F0AD001220CA951F8044F531C002CF9
:104EC00040F09E809B451A46F6D1059B002B0EDDD7
:104ED000012B00F0B581022B09D10BF1FF320CAB95
:104EE00053F822300CA9C3F3150341F82230022DE8
:104EF00000F0AF800022002330463946FBF7BCFDAE
:104F0000002800F06B82049B0BF1FF394B4510DC4D
:104F100000220BF18043013B0CA9089801EB8303AD
:104F200053F80419834242EA0102F9D1002A40F001
:104F3000B580049B0CAA013B52F82330002B40F0B3
:104F4000A18001230A9A52F8041901330029FAD0EA
:104F50005B440BF101099945069349DC099A0799CD
:104F600009EB020801EB0B0508F1804802EB030B8B
:104F7000A39B08F1FF3803EB880870AB03EBC9096A
:104F8000A39B20A903EB8B0301EBC505029358F803
:104F9000040FFBF79FFA019B05F1080B002BC5E9F5
:104FA000000128DB039C00260027083D0CE000BF21
:104FB000ABAAAA2AC06300080000703E000070413E
:104FC0000000204075E80201F4E90223FBF7ECFA47
:104FD00002460B4630463946FBF730F95445064643
:104FE0000F46EFD1029BE9E8026798455D46CED1B6
:104FF000DDF818B0DCE600260027F3E701230022E5
:10500000C4F180740CA99B4541F822400EDD51F893
:1050100023206FF07F4001EB830301EB8B0100E065
:105020001A68821A43F8042B8B42F9D101244CE709
:1050300006D10BF1FF330CAA52F82350ED152AE7E5
:105040000022874BFBF736FD002840F0BE81054665
:1050500050E732463B4600208249FBF7EDF8064612
:105060000F46002C3FF446AF059A00207D4900F022
:1050700083FB02460B4630463946FBF7DDF8064611
:105080000F4637E7012363E700260027EAE80267B7
:10509000DA4509F108097FF45EAE7AE6059A0CABB1
:1050A00053F82930183ACDE9068505926BB909F114
:1050B0008043013B0CA901EB830353F8041909F168
:1050C000FF39183A0029F8D00592059A0020654961
:1050D00000F052FBB9F1000F04460D46C0F2E78123
:1050E0004FF0000A4FEAC90370AA02EB03080893C5
:1050F0000CAB03EB8906DFF870B108F10807043642
:1051000056F8040DFBF7E6F922462B46FBF74CFA5E
:105110005B4667E90201524620462946FBF744FAFE
:105120000CAB9E4204460D46EAD1C3464FF0000A3E
:1051300048AB03930193CDF8149009F10103DDF816
:1051400010900293B9F1000FC0F23C8142A3D3E961
:105150000023DFF818815D4600260027002403E0C5
:10516000544510DCF8E80223F5E80201FBF71CFACD
:1051700002460B4630463946FBF760F80134A1453C
:1051800006460F46ECDA019B0AF1010AE3E80267E2
:105190000193029BABF1080B9A45D3D1A29BDDF89A
:1051A0001490032B45D8DFE813F0EC00060006004E
:1051B000650048AB03930024B9F1000F21460CDBD6
:1051C000039B984603EBC905083575E90223204681
:1051D000FBF734F8A8450446F7D1079B002B40F0B5
:1051E000368126460F4622460B460B9C0399C4E99E
:1051F0000067D1E90001FBF71FF8B9F1000F07467E
:105200000E4611DD314601244E46039D3846F5E930
:105210000223FBF713F80134A6420746F6DA079B90
:105220000E46002B40F025813A4633460B99C1E9E2
:105230000223069B03F007000DF5197DBDE8F08FF2
:105240000BF1FF320CAB53F822300CA9C3F3160359
:1052500041F822304BE600BF00000040FB21F93F3F
:105260000000E03F0000F03F0000703E886300084F
:1052700048AB0393B9F1000F40F33581039A4FEA2D
:10528000C9030193D318CDF808909846D3E900AB31
:10529000914658E9026752465B4630463946FAF76E
:1052A000CDFF04460D4602460B4630463946FAF716
:1052B000C3FF52465B46FAF7C1FFC8E9000168E93F
:1052C0000245C145A246AB46E3D1DDF80890B9F1ED
:1052D000010F40F30881019B039A0DF5947B134461
:1052E0009A46D3E9006701935AE9028932463B4660
:1052F00040464946FAF7A2FF04460D4602460B46D1
:1053000040464946FAF798FF32463B46FAF796FF81
:10531000CAE900016AE90245D34526462F46E3D192
:1053200000231946019C039A083402F110051E4619
:1053300074E902233046FAF781FFA5420346F6D10D
:105340008C46039A1146D2E90082D1E902E9079915
:10535000002900F091800B9C09F100402361069B1D
:1053600002F100420CF10041E06003F007006260CE
:105370006161C4F80080C4F808E00DF5197DBDE84E
:10538000F08F0023089D039F08353D442E461946A3
:105390001C4676E902232046FAF750FFB74203463F
:1053A000F6D10C46079A0AB104F10044184621468A
:1053B0000B9BC3E90001069B03F007000DF5197D67
:1053C000BDE8F08F00260027DDE6BBF1000F08F1F5
:1053D00001087EDD022566E5002476E5CDE9068537
:1053E000059D304639466A4200F0C6F900223F4B1F
:1053F00006460F46FBF75EFB00B300223C4B3046EF
:105400003946FBF7D1F8FBF769FB0446FBF762F876
:105410000022364BFBF7C8F80B46024639463046A9
:10542000FAF70AFFFBF75AFB0BF101090CAB183531
:1054300043F82B00059543F8294046E630463946A7
:10544000FBF74CFB0CABD94643F82B003DE60B4673
:1054500001F100450B9E0399C6E90045D1E9000121
:105460002246FAF7E9FEB9F1000F07460E463FF76C
:10547000C9AE06F10046D7E61846464674461746BA
:105480004D4661460B9BC3E90401C3E90067C3E9CC
:105490000245069B03F007000DF5197DBDE8F08F6E
:1054A000A7F108030393079BDB00029371E4A29B1F
:1054B000032B3FF6BEAE01A252F823F0CD540008F4
:1054C000B3510008B35100087152000800231C4674
:1054D00068E732463B4600200649FAF7ADFE022552
:1054E00006460F4606E500239C462AE70000704169
:1054F0000000703E0000F03F2DE9F04F21F0004623
:10550000B6F1795F85B00C4690469946054604DAB7
:10551000FBF7E4FA002800F085802A462346284657
:105520002146FBF741F806460F4602460B46284641
:105530002146FBF739F83EA3D3E9002382468B4688
:1055400030463946FBF730F83BA3D3E90023FAF79E
:1055500073FE32463B46FBF727F839A3D3E9002315
:10556000FAF76CFE32463B46FBF71EF836A3D3E94A
:105570000023FAF761FE32463B46FBF715F834A3E9
:10558000D3E90023FAF75AFE0E9BCDE900019BB345
:105590000022334B40464946FBF706F8DDE900237D
:1055A000CDE9020150465946FAF7FEFF02460B4686
:1055B000DDE90201FAF740FE32463B46FAF7F4FF16
:1055C00042464B46FAF738FE23A3D3E900230646AA
:1055D0000F4650465946FAF7E7FF02460B4630465B
:1055E0003946FAF72BFE02460B4628462146FAF7C3
:1055F00023FE05B0BDE8F08F02460B463046394623
:10560000FAF7D2FF14A3D3E90023FAF715FE5246A6
:105610005B46FAF7C9FF2A462346FAF70FFE05B0A4
:10562000BDE8F08F2846214605B0BDE8F08F00BFE9
:105630007CD5CF5A3AD9E53DEB9C2B8AE6E55A3E1C
:105640007DFEB157E31DC73ED561C119A0012A3FB8
:10565000A6F810111111813F495555555555C53FB3
:105660000000E03F21F000431946704700000000B1
:10567000C1F30A522DE9F843A2F2FF36132E0B466E
:105680000D460446884607461DDC002E3DDB384AA1
:1056900042FA06F901EA0902024319D032A3D3E91A
:1056A0000023FAF7CBFD00220023FBF70DFAD0B35D
:1056B000002D04DA4FF4801343FA06F6B04428EACA
:1056C000090500272FE0332E06DDB6F5806F2FD0B9
:1056D00019462046BDE8F8834FF0FF39A2F2134285
:1056E00029FA02F919EA000FF2D01FA3D3E9002327
:1056F000FAF7A4FD00220023FBF7E6F998B1002D8C
:1057000024DB27EA090745460DE017A3D3E9002368
:10571000FAF794FD00220023FBF7D6F918B1002D0B
:105720000BDB00273D463C4629462046BDE8F88372
:105730000246FAF783FD0446CBE725F000430D4A05
:105740001F43002F18BF15460027ECE7142E08D082
:105750000123C6F1340603FA06F6371928BF984428
:10576000CFE705F10108CCE79C7500883CE4377E63
:10577000FFFF0F000000F0BFF8B5C1F30A53044665
:105780000D460E4617460BBB034621F00046334339
:105790001BD02F4B0022FAF707FF2E4B04469F42E7
:1057A0000D4637DB0E46C1F30A53363B40F2FE721C
:1057B0003B4493421ADC002B11DD26F0FF4626F411
:1057C000E00646EA035520462946F8BD40F2FF723E
:1057D0009342EBD102460B46FAF730FDF8BD13F1C8
:1057E000350F1DDA4CF250339F420CDD14A1D1E984
:1057F000000122462B4600F031F811A3D3E9002323
:10580000FAF7D2FEF8BD22460FA1D1E900012B46DE
:1058100000F024F80CA3D3E90023FAF7C5FEF8BD85
:1058200026F0FF4626F4E006363346EA03552046C6
:1058300029460022084BFAF7B7FEF8BDAFF3008007
:105840009C7500883CE4377E59F3F8C21F6EA501B1
:1058500000005043B03CFFFF0000903C03F00043C9
:1058600021F0004242EA0301704700BF014B186873
:10587000704700BF1000002070B500250C4E0D4C85
:10588000A41BA410A54209D100F02EFC00250A4E4D
:105890000A4CA41BA410A54205D170BD56F82530B2
:1058A00098470135EEE756F8253098470135F2E77D
:1058B0000464000804640008046400080864000824
:1058C00010B5431E0A44914200D110BD11F8014B9E
:1058D00003F8014FF7E700000EB46FF0004100B588
:1058E0009CB01DAB029006900791049108480949AD
:1058F00053F8042B0591006802A9019300F066F8A3
:105900000022029B1A701CB05DF804EB03B07047D4
:10591000100000200802FFFF2DE9F0478E68824644
:105920009E420C469046994637D88A8912F4906F69
:1059300031D00223256809696F1A656905EB4505B1
:1059400095FBF3F509F101033B449D4238BF1D4629
:10595000530530D5294600F02DFB064650B90C23DF
:105960004FF0FF30CAF80030A38943F04003A38111
:10597000BDE8F0873A462169FFF7A2FFA38923F427
:10598000906343F08003A38126613E4426604E4627
:105990006561ED1BA5604E4500D94E463246414635
:1059A000206800F0A1FAA36800209B1BA360236875
:1059B0001E442660DCE72A4600F056FB0646002817
:1059C000E2D12169504600F0A9FAC8E72DE9F04F6D
:1059D0001D468B899DB01F0680460C4616460FD586
:1059E0000B696BB9402100F0E5FA2060206128B90D
:1059F0000C23C8F800304FF0FF30C8E0402363614B
:105A00000023099320238DF8293030234FF0010B18
:105A10008DF82A30039537463D4615F8013B0BB10A
:105A2000252B3ED1B7EB060A0BD053463246214612
:105A30004046FFF771FF013000F0A480099B5344FA
:105A400009933B78002B00F09D8000234FF0FF323C
:105A5000CDE90523049307938DF853301A932F460D
:105A6000052217F8011B504800F030FA049BD0B90A
:105A7000D90644BF20228DF853201A0744BF2B2299
:105A80008DF853202A782A2A15D02F4600200A257F
:105A9000079A394611F8013B303B092B4DD9B8B173
:105AA0000FE02F46B8E7404A3D46801A0BFA00F057
:105AB00018430490D3E7039A111D12680391002A3A
:105AC00001DB079204E0524243F002030792049381
:105AD0003B782E2B0CD17B782A2B33D1039B0237BA
