:020000040800F2
:1000000078060020890100088F0B0008ED0A00081F
:100010008D0B0008CF020008F90B0008000000005B
:10002000000000000000000000000000930B00082A
:10003000D102000800000000910B0008950B000899
:10004000A3010008A3010008A3010008A301000800
:10005000A3010008A3010008A3010008A3010008F0
:10006000A3010008A3010008A3010008A3010008E0
:10007000A3010008A3010008A3010008A3010008D0
:10008000A3010008A3010008A3010008A3010008C0
:10009000A3010008A3010008A3010008A3010008B0
:1000A000A3010008A3010008A3010008A3010008A0
:1000B000A3010008A3010008A3010008A301000890
:1000C000A3010008A3010008A3010008A301000880
:1000D000A3010008A3010008A3010008A301000870
:1000E000A3010008A3010008A301000800F002F822
:1000F00000F03AF80AA090E8000C82448344AAF188
:100100000107DA4501D100F02FF8AFF2090EBAE885
:100110000F0013F0010F18BFFB1A43F0010318473B
:10012000A00E0000C00E0000103A24BF78C878C1AD
:10013000FAD8520724BF30C830C144BF04680C60ED
:10014000704700000023002400250026103A28BF35
:1001500078C1FBD8520728BF30C148BF0B60704739
:100160001FB51FBD10B510BD00F077F81146FFF7A1
:10017000F7FF00F0EFFD00F095F803B4FFF7F2FF92
:1001800003BC00F09DF8000009488047094800477B
:10019000FEE7FEE7FEE7FEE7FEE7FEE7FEE7FEE737
:1001A000FEE7FEE704480549054A064B7047000094
:1001B000F70B0008ED00000878000020780600200A
:1001C000780200207802002010B5431C02E010F8ED
:1001D000011B71B18107FAD14FF0013202C88C1AAC
:1001E0008C4314EAC211F9D0C01A0A0603D0C01E0B
:1001F00010BDC01A10BD0A0401D0801E10BD090236
:10020000FCD0401E10BD4FF0000200B513469446CE
:100210009646203922BFA0E80C50A0E80C50B1F15E
:100220002001BFF4F7AF090728BFA0E80C5048BF72
:100230000CC05DF804EB890028BF40F8042B08BF10
:10024000704748BF20F8022B11F0804F18BF00F80C
:10025000012B7047704770477047754600F02CF8C7
:10026000AE4605006946534620F00700854618B0A3
:1002700020B5FFF797FFBDE820404FF000064FF094
:1002800000074FF000084FF0000B21F00701AC46CB
:10029000ACE8C009ACE8C009ACE8C009ACE8C009EA
:1002A0008D46704710B50446AFF300802046BDE888
:1002B0001040FFF762BF00000048704714000020A4
:1002C00001491820ABBEFEE7260002007047FEE79A
:1002D0007047000070B5044600F008F90546601C40
:1002E00002D004480078044400F000F9401BA0420A
:1002F000FAD370BD040000202DE9F84FDFF8B89163
:10030000002409F1040A0AF1040B23460F270BF11C
:10031000040EC9E00125A5402A40AA427DD1674EBE
:10032000D1F804C0ACEB0608B44532D014DCBCF103
:10033000030F3AD009DCBCF1000F2AD0BCF1010F49
:100340001CD0BCF1020F31D11DE0BCF1110F17D050
:10035000BCF1120F2AD119E0B8F5881F19D006DCBC
:10036000B8F5803F15D0B8F5801F1FD111E0B8F562
:10037000001F0ED0B8F5041F18D10AE0CB6815E0B5
:10038000CB681B1D12E0CB6808330FE0CB680C3341
:100390000CE08B682BB1012B4FF0080303D04561B3
:1003A00004E0042302E0056100E00023FF2A01D8F5
:1003B000064601E000F104064FEA840501D9A5F1E3
:1003C0002005D6F8008007FA05FC28EA0C0803FA95
:1003D00005F548EA0508C6F800804D68ED0062D5CD
:1003E000374DAE6946F00106AE61AD6924F00306F3
:1003F00005F001050095334D06EB050CDCF80850BF
:10040000A607360F07FA06F825EA0805DFF8B880D0
:10041000404503D14FF0000817E044E0DFF8AC801E
:10042000404502D14FF001080FE0DFF8A4804045BD
:1004300002D14FF0020808E0DFF89880404502D171
:100440004FF0030801E04FF0040808FA06F848EA04
:100450000508CCF808804D68D9F80060ED034D46DA
:1004600001D5164300E096432E604D68DAF800602F
:10047000AD03554601D5164300E096432E604D6806
:10048000DBF80060ED025D4601D5164300E09643BF
:100490002E604D68DEF80060AD02754601D516434A
:1004A00000E096432E60641C0D682A46E5407FF408
:1004B00031AFBDE8F88F00000004014000001110CA
:1004C000001002400000014000080140000C014003
:1004D00000100140001401408068084000D0012055
:1004E00070470AB1016170470904FBE70148806861
:1004F000704700000400002002488168027811441F
:100500008160704704000020074810B5016841F081
:1005100010010160032000F067F80F2000F006F8DA
:1005200000F024F8002010BD0020024070B50D4DF1
:1005300004464FF47A712878B1FBF0F00A49096853
:10054000B1FBF0F000F0BEFA48B9102C07D200223F
:100550002146501E00F028F800206C6070BD01207C
:1005600070BD000004000020100000200C4808B5F9
:10057000816941F001018161816901F0010100910E
:10058000C16941F08051C161C06900F080500090A4
:100590000448416821F0E06141F00071416008BD0C
:1005A0000010024000000140F0B40E4B1B680C46E6
:1005B000C3F30223C3F10705042D00D90425191D37
:1005C000072901D2002300E0DB1E012606FA05F10F
:1005D000491E214099409E40761E16403143F0BC92
:1005E00000F00BBB0CED00E0064900F007020868C4
:1005F0004FF6FF03184040EA0220034A1043086008
:10060000704700000CED00E00000FA052DE9F0470E
:100610000F46050061D0434E306800F00700B84235
:1006200009D2306820F0070038433060306800F0AD
:100630000700B84251D128683B4C810712D54007CA
:1006400003D5606840F4E06060602878000703D557
:10065000606840F4605060606068A96820F0F00055
:10066000084360602878C00728D06868012810D047
:100670002168022810D0890700292EDA616821F04C
:10068000030101436160FFF731FF804641F2883981
:100690000DE021688903EFE78901EDE7FFF726FF09
:1006A000A0EB0801494502D90320BDE8F087606846
:1006B000696800F00C00B0EB810FEFD1306800F0FA
:1006C0000700B8420BD9306820F00700384330608B
:1006D000306800F00700B84201D00120E5E7287833
:1006E000400705D56068E96820F4E0600843606071
:1006F0002878000706D56068296920F4605040EA30
:10070000C100606000F018F86168084AC1F3031185
:10071000515CC8400649086006480068FFF706FFBC
:100720000020C2E70020024000100240AF0F000886
:10073000100000200800002012A185B00FC98DE82C
:100740000F0014A0144A006804905168134801F087
:100750000C03042B10D0082B0ED1C1F38343C90323
:100760001DF803000AD5516804AAC1F34041515C49
:100770000A4A5043B0FBF1F005B0704708494843BE
:10078000FAE7000002030405060708090A0B0C0D2E
:100790000E0F1010010200000010024000127A003B
:1007A00000093D002DE9F84F040070D02078C04DBD
:1007B000C00749D06868C0F38100012807D0686885
:1007C000C0F38100022809D16868C00306D52868F3
:1007D000800339D560680028E7D035E06068B0F55F
:1007E000803F0BD010B1B0F5A02F11D0286820F4B5
:1007F00080302860286820F4802002E0286840F4D7
:1008000080302860606890B1FFF770FE06460AE00D
:10081000286840F480202860F0E700BFFFF766FEFC
:10082000801B642873D828688003F7D50CE0FFF795
:100830005DFE064605E000BFFFF758FE801B6428FA
:10084000F0D828688003F7D420789A4E80074FF0BC
:1008500001094FF0000839D5686810F00C0F07D077
:100860006868C0F38100022809D16868C00306D413
:100870002868800714D52069012808D110E0206974
:10088000B0B1C6F80090FFF731FE074605E00AE177
:10089000FFF72CFEC01B0228C4D828688007F7D5B4
:1008A0002868616920F0F80040EAC10028600DE086
:1008B000C6F80080FFF71AFE074604E0FFF716FEB1
:1008C000C01B022823D828688007F7D420780007A7
:1008D0002CD57948A169D9B1C0F80090FFF706FE80
:1008E000074604E0FFF702FEC01B02280FD8686A23
:1008F0008007F7D571484FF4FA510068B0FBF1F06A
:10090000009000BF0098411E0091FAD20EE080E0F6
:10091000C0F80080FFF7EAFD074604E0FFF7E6FDB8
:10092000C01B022875D8686A8007F7D42078400772
:1009300060D5E8690027C00008D4E86940F080501D
:10094000E861E869012700F0805000905C48016888
:10095000C90513D40168834641F480710160FFF733
:10096000C5FD824606E000BFFFF7C0FDA0EB0A0010
:1009700064284ED8DBF80000C005F5D5E0680128F2
:100980000AD008B1052813D0286A20F00100286297
:10099000286A20F0040002E0286A40F00100286282
:1009A000E06841F2883B98B1FFF7A0FD82460BE07A
:1009B000286A40F004002862EEE700BFFFF796FDCA
:1009C000A0EB0A0159455AD8286A8007F6D50CE0F1
:1009D000FFF78CFD824605E0FFF788FDA0EB0A01DA
:1009E00059454CD8286A8007F6D41FB1E86920F031
:1009F0008050E861E06988B36968C1F38101022928
:100A000044D00228C6F8608004D0FFF76FFD04468A
:100A100038E034E0FFF76AFD074604E0FFF766FDC3
:100A2000C01B02282BD828688001F7D4206AB0F5B3
:100A3000803F05D16868A16820F4003008436860F1
:100A4000D4E908010843696821F474110843686017
:100A5000C6F86090FFF74AFD044606E025E000BFB7
:100A6000FFF744FD001B022809D828688001F7D54C
:100A70001BE000BFFFF73AFD001B022802D903204C
:100A8000BDE8F88F28688001F4D40EE00128F7D083
:100A90006868226A00F48031914204D1616A00F4EE
:100AA0007010884201D00120EAE70020E8E700004A
:100AB0000010024000004242800442421000002028
:100AC0000070004010B5401EB0F1807F01D30120BE
:100AD00010BD4FF0E02460610F21601700F08DF829
:100AE0000020A06107202061002010BDFEE700006B
:100AF0002DE9F04385B0002421480094019402942C
:100B00000394816941F020018161816901F0200134
:100B10000491816941F004018161816901F004015E
:100B20000491816941F0080181618069DFF8548096
:100B300000F0080004900022E0214046FFF7D1FCBD
:100B4000DFF8449040F60347002239464846FFF755
:100B5000C8FCE02001250226CDE90005CDE90246CA
:100B600069464046FFF7C8FB00970396CDE901545C
:100B700069464846FFF7C0FB05B0BDE8F0830000BA
:100B80000010024000080140000C0140FEE7FEE7B3
:100B900070477047FFF7B0BC30B58FB0282168466A
:100BA000FFF731FB14210AA8FFF72DFB01210804F0
:100BB000CDE900100024029402250491CDE90750EC
:100BC0004FF4E01009906846FFF7ECFD08B172B6EB
:100BD000FEE70F20CDE90A054FF48060CDE90C4017
:100BE00002210AA80E94FFF711FD002801D072B669
:100BF000FEE70FB030BD7047FEE70907090E002879
:100C000004DB00F1E02080F80014704700F00F00D2
:100C100000F1E02080F8141D704710B5044601096A
:100C2000012000F043F904F00F01BDE8104001205D
:100C300000F03CB970B50546002404E0285DFFF7DC
:100C4000ECFF641CE4B22846FFF7BEFAA042F5D8D8
:100C500070BD00002DE9FF470026DFF8A89020278F
:100C6000019602966946484600970396FFF744FBB3
:100C7000254C002279012046FFF733FC4FF4006831
:100C8000012241462046FFF72CFC0122022120468A
:100C9000FFF727FC0220401C4828FCDB20214846A7
:100CA000FFF71AFC0546002202212046FFF719FC37
:100CB0000220401C4828FCDB012202212046FFF7CD
:100CC00010FC0220401C4828FCDB002202212046A8
:100CD000FFF707FC0220401C4828FCDB002DD4D184
:100CE000002241462046FFF7FCFB01200097CDE99A
:100CF00001060220039069464846FFF7FDFABDE869
:100D0000FF87000000080140000C014010B50120E1
:100D100000F0B4F8BDE81040FFF79CBF10B52820E4
:100D200000F0ACF8FFF796FF282000F0A7F8FFF7D7
:100D300091FF0F2000F0A2F8FFF78CFF062000F0D3
:100D40009DF8FFF787FF012000F098F8BDE81040FC
:100D5000FFF780BFFFF7D8FBFFF71EFFFFF7C8FEC6
:100D6000FFF7DCFFFFF7D2FF284E41F2883500BFC6
:100D7000FFF7CCFF00F05EF80221002000F08BF8B6
:100D80000024305DFFF749FF641C0D2CF9DB0421C2
:100D9000012000F080F81EA0FFF74CFF2846FFF767
:100DA00099FAFFF7B3FF0221002000F074F8174F03
:100DB00000240D37385DFFF730FF641C0B2CF9DB86
:100DC0000421012000F067F814A0FFF733FF284644
:100DD000FFF780FAFFF79AFF00F03EF801210020AC
:100DE00000F059F8094F00241837385DFFF715FF58
:100DF000641C0D2CF9DB0421012000F04CF80AA042
:100E0000FFF718FF2846FFF765FAB1E78A0F0008D9
:100E10003230303137363931000000003230303670
:100E20003132363100000000323031323332353168
:100E30000000000070B50024402000F01FF8054DB0
:100E400004E000BFFFF7E9FE641CE4B2285D9928C6
:100E5000F8D170BD380F000870B50024402000F0B4
:100E60000DF8054D04E000BFFFF7D7FE641CE4B2A7
:100E7000285D9928F8D170BD690F000810B50446A7
:100E80000109002000F012F804F00F01BDE8104045
:100E9000002000F00BB841F0800208B1012802D018
:100EA0001046FFF7EBBF41F0C000FAE770B51F4DE9
:100EB0000C4602464FF480612846FFF712FB0022E1
:100EC000E9142846FFF70DFB012202212846FFF70F
:100ED00008FB174EC4F3C00220213046FFF701FB88
:100EE000C4F3800240213046FFF7FBFAC4F340020E
:100EF00080213046FFF7F5FA04F00102012128466F
:100F0000FFF7EFFA0B480021018000BF89B2491CAE
:100F100089B201804829F8D3002202212846FFF730
:100F2000E0FABDE87040FFF795BE0000000C0140FC
:100F3000000801400000002000040A0E11110E00FC
:100F4000060B0E010F110F000004020E11110E000E
:100F5000050A030E11110E000C0A091D090A0C00E6
:100F60000C1A0E010F110F0099050E0A0E111E0E1C
:100F700000040C0A0E11110E000000031212120CD4
:100F8000000000030E11110E00995472016E2043EF
:100F9000006E67204802610403205475056E2044EA
:100FA00075794E672051750163204402036E670016
:100FB0000000000000000001020304060708090009
:100FC000E00F0008000000201400000028010008C5
:100FD000F40F00081400002064060000440100081B
:100FE00000000000010000001000000000000000F0
:040FF0000024F400E5
:04000005080000ED02
:00000001FF
