:020000040800F2
:10000000A8070020890100080B160008EB11000862
:10001000091600088F0200080918000800000000F7
:100020000000000000000000000000000F160008A3
:1000300091020008000000000D16000811160008CB
:10004000A3010008A3010008A3010008A301000800
:10005000A3010008A3010008A3010008A3010008F0
:10006000A3010008A3010008A3010008A3010008E0
:10007000A3010008A3010008A3010008A3010008D0
:10008000A3010008A3010008A3010008A3010008C0
:10009000A3010008A3010008A3010008A3010008B0
:1000A00075160008991600088D16000881160008BC
:1000B000A5160008B1160008A3010008A301000856
:1000C000A3010008A3010008A3010008A301000880
:1000D000A3010008A3010008A3010008A301000870
:1000E000A3010008A3010008A301000800F002F822
:1000F00000F03AF80AA090E8000C82448344AAF188
:100100000107DA4501D100F02FF8AFF2090EBAE885
:100110000F0013F0010F18BFFB1A43F0010318473B
:10012000981A0000B81A0000103A24BF78C878C1A5
:10013000FAD8520724BF30C830C144BF04680C60ED
:10014000704700000023002400250026103A28BF35
:1001500078C1FBD8520728BF30C148BF0B60704739
:100160001FB51FBD10B510BD00F058F81146FFF7C0
:10017000F7FF01F0FFFB00F076F803B4FFF7F2FFA2
:1001800003BC00F07DF8000009488047094800479B
:10019000FEE7FEE7FEE7FEE7FEE7FEE7FEE7FEE737
:1001A000FEE7FEE704480549054A064B7047000094
:1001B00073160008ED000008A8010020A807002021
:1001C000A8030020A80300204FF0000200B513464A
:1001D00094469646203922BFA0E80C50A0E80C5067
:1001E000B1F12001BFF4F7AF090728BFA0E80C5018
:1001F00048BF0CC05DF804EB890028BF40F8042B11
:1002000008BF704748BF20F8022B11F0804F18BF7D
:1002100000F8012B7047704770477047754600F033
:100220002BF8AE4605006946534620F00700854688
:1002300018B020B5FFF7B6FFBDE820404FF000062C
:100240004FF000074FF000084FF0000B21F00701BE
:10025000AC46ACE8C009ACE8C009ACE8C009ACE801
:10026000C0098D46704710B50446AFF300802046A4
:10027000BDE81040FFF781BF0048704744010020EF
:1002800001491820ABBEFEE7260002007047FEE7DA
:100290007047000070B5044600F004F90546601C84
:1002A00002D004480078044400F0FCF8401BA0424F
:1002B000FAD370BD080000202DE9F84FDFF8B8919F
:1002C000002409F1040A0AF1040B23460F270BF15D
:1002D000040EC9E00125A5402A40AA427DD1674EFF
:1002E000D1F804C0ACEB0608B44532D014DCBCF144
:1002F000030F3AD009DCBCF1000F2AD0BCF1010F8A
:100300001CD0BCF1020F31D11DE0BCF1110F17D090
:10031000BCF1120F2AD119E0B8F5881F19D006DCFC
:10032000B8F5803F15D0B8F5801F1FD111E0B8F5A2
:10033000001F0ED0B8F5041F18D10AE0CB6815E0F5
:10034000CB681B1D12E0CB6808330FE0CB680C3381
:100350000CE08B682BB1012B4FF0080303D04561F3
:1003600004E0042302E0056100E00023FF2A01D835
:10037000064601E000F104064FEA840501D9A5F123
:100380002005D6F8008007FA05FC28EA0C0803FAD5
:1003900005F548EA0508C6F800804D68ED0062D50D
:1003A000374DAE6946F00106AE61AD6924F0030633
:1003B00005F001050095334D06EB050CDCF80850FF
:1003C000A607360F07FA06F825EA0805DFF8B88011
:1003D000404503D14FF0000817E044E0DFF8AC805F
:1003E000404502D14FF001080FE0DFF8A4804045FE
:1003F00002D14FF0020808E0DFF89880404502D1B2
:100400004FF0030801E04FF0040808FA06F848EA44
:100410000508CCF808804D68D9F80060ED034D461A
:1004200001D5164300E096432E604D68DAF800606F
:10043000AD03554601D5164300E096432E604D6846
:10044000DBF80060ED025D4601D5164300E09643FF
:100450002E604D68DEF80060AD02754601D516438A
:1004600000E096432E60641C0D682A46E5407FF448
:1004700031AFBDE8F88F000000040140000011100A
:10048000001002400000014000080140000C014043
:1004900000100140001401400AB1016170470904D5
:1004A000FBE700000148806870470000080000205A
:1004B00070B5040025D094F83D00002520B984F8DB
:1004C0003C50204600F04EF9242084F83D0020687E
:1004D000016821F0010101602068016841F40041D8
:1004E00001602068016821F40041016000F096FA83
:1004F0004D4A6168914201D84C4900E04C4988421C
:1005000001D2012070BD4B492368B0FBF1F15E6858
:1005100026F03F060E435E606368934206D94FF4AF
:10052000967359434FF47A73B1FBF3F12368491C76
:100530001E6A26F03F06314319626168914210D865
:100540004900401EB0FBF1F2521CC2F30B02042A18
:1005500001D2042022E0B0FBF1F0401CC0F30B00FC
:100560001CE0A268F2B301EBC10303EB0116431ECA
:10057000B3FBF6F35B1C43F480431B0549D092B3F5
:1005800001EBC10202EB0111401EB0FBF1F0401C77
:10059000C0F30B0040F4804040F400402168CA6979
:1005A0004CF6FF739A431043C861D4E90710014326
:1005B0002068026822F0C00211430160D4E90301FF
:1005C00001432068826848F2FF339A4311438160F7
:1005D000D4E9050108432168CA6822F0FF021043EC
:1005E000C86001E00EE016E02068016841F00101FA
:1005F00001602564202084F83D00256384F83E5086
:10060000002070BD01EB4106431EB3FBF6F35B1CFB
:10061000B3E70120C2E701EB4101401EB0FBF1F05E
:10062000401CC0F30B00B7E7A086010080841E00C9
:1006300000093D0040420F002DE9F84F1F4690464B
:100640008A460446DDF82890FFF72CFF054694F80B
:100650003D0020287FD119230122404920460095E2
:1006600000F050FE002876D194F83C00012872D0AA
:10067000012084F83C0020680168C90703D10168A3
:1006800041F0010101602068016821F4006101600E
:10069000212084F83D00102084F83E0000262664C6
:1006A000C4F824806785608D20852D48E0622B4644
:1006B0004A465146204600F0B1FD90B92068416994
:1006C0008069009036E02A464946204600F099FEAF
:1006D00050B1206C042804D12068016841F40071F5
:1006E00001600120BDE8F88F606A21680078086128
:1006F000606A401C6062618D491E6185218D491EC2
:1007000089B2218522685369DB435B070BD451B161
:1007100000781061606A401C6062608D401E6085D8
:10072000208D401E20852A464946204600F0C4FD03
:100730000028CED1208D0028C5D154F83D0B01688A
:1007400041F400710160202004F81E09E677667705
:100750000020C7E7FFE70220C4E700000200100006
:100760000000FFFF10B586B00021009101910291B9
:10077000039100680F4988421AD10F4CA06940F0DC
:100780000800A061A069694600F008000490C0203C
:10079000009012200190032003900848FFF78CFD81
:1007A000E06940F40010E061E06900F4001004909A
:1007B00006B010BD0054004000100240000C014083
:1007C0000248816802781144816070470800002067
:1007D000074810B5016841F010010160032000F0E6
:1007E00075F80F2000F006F800F024F8002010BD86
:1007F0000020024070B50D4D04464FF47A71287800
:10080000B1FBF0F00A490968B1FBF0F000F0DCFA46
:1008100048B9102C07D200222146501E00F036F8AD
:1008200000206C6070BD012070BD00000800002039
:10083000140000200C4808B5816941F00101816174
:10084000816901F001010091C16941F08051C161EC
:10085000C06900F0805000900448416821F0E061D8
:1008600041F00071416008BD0010024000000140ED
:10087000002809DB00F01F0201219140400980009F
:1008800000F1E020C0F8001170470000F0B40E4BFA
:100890001B680C46C3F30223C3F10705042D00D9DE
:1008A0000425191D072901D2002300E0DB1E0126C3
:1008B00006FA05F1491E214099409E40761E1640D9
:1008C0003143F0BC00F0A1BF0CED00E0064900F0A0
:1008D000070208684FF6FF03184040EA0220034A67
:1008E00010430860704700000CED00E00000FA05BE
:1008F0002DE9F0470F46050061D0434E306800F007
:100900000700B84209D2306820F007003843306051
:10091000306800F00700B84251D128683B4C81078D
:1009200012D5400703D5606840F4E0606060287825
:10093000000703D5606840F4605060606068A96893
:1009400020F0F000084360602878C00728D068686D
:10095000012810D02168022810D0890700292EDA3A
:10096000616821F0030101436160FFF79BFD804650
:1009700041F288390DE021688903EFE78901EDE74D
:10098000FFF790FDA0EB0801494502D90320BDE81F
:10099000F0876068696800F00C00B0EB810FEFD160
:1009A000306800F00700B8420BD9306820F007002B
:1009B00038433060306800F00700B84201D00120B1
:1009C000E5E72878400705D56068E96820F4E0602D
:1009D000084360602878000706D56068296920F41C
:1009E000605040EAC100606000F028F86168084A81
:1009F000C1F30311515CC84006490860064800680D
:100A0000FFF7F8FE0020C2E700200240001002407D
:100A1000A01B0008140000200C0000200448054919
:100A200000684968044AC1F30221515CC84070471C
:100A30001400002000100240B01B000812A185B075
:100A40000FC98DE80F0014A0144A00680490516883
:100A5000134801F00C03042B10D0082B0ED1C1F366
:100A60008343C9031DF803000AD5516804AAC1F3E2
:100A70004041515C0A4A5043B0FBF1F005B0704769
:100A800008494843FAE7000002030405060708097D
:100A90000A0B0C0D0E0F1010010200000010024096
:100AA00000127A0000093D002DE9F84F040070D0D3
:100AB0002078C04DC00749D06868C0F38100012884
:100AC00007D06868C0F38100022809D16868C003B4
:100AD00006D52868800339D560680028E7D035E05E
:100AE0006068B0F5803F0BD010B1B0F5A02F11D0E9
:100AF000286820F480302860286820F4802002E0F4
:100B0000286840F480302860606890B1FFF7CAFC24
:100B100006460AE0286840F480202860F0E700BF1D
:100B2000FFF7C0FC801B642873D828688003F7D5C2
:100B30000CE0FFF7B7FC064605E000BFFFF7B2FC8C
:100B4000801B6428F0D828688003F7D420789A4E58
:100B500080074FF001094FF0000839D5686810F0A0
:100B60000C0F07D06868C0F38100022809D16868BB
:100B7000C00306D42868800714D52069012808D14D
:100B800010E02069B0B1C6F80090FFF78BFC074673
:100B900005E00AE1FFF786FCC01B0228C4D82868DC
:100BA0008007F7D52868616920F0F80040EAC100A5
:100BB00028600DE0C6F80080FFF774FC074604E0EB
:100BC000FFF770FCC01B022823D828688007F7D4E1
:100BD000207800072CD57948A169D9B1C0F80090D8
:100BE000FFF760FC074604E0FFF75CFCC01B02282F
:100BF0000FD8686A8007F7D571484FF4FA5100683A
:100C0000B0FBF1F0009000BF0098411E0091FAD2B5
:100C10000EE080E0C0F80080FFF744FC074604E0E7
:100C2000FFF740FCC01B022875D8686A8007F7D41C
:100C30002078400760D5E8690027C00008D4E8693B
:100C400040F08050E861E869012700F08050009092
:100C50005C480168C90513D40168834641F480717A
:100C60000160FFF71FFC824606E000BFFFF71AFC99
:100C7000A0EB0A0064284ED8DBF80000C005F5D5CB
:100C8000E06801280AD008B1052813D0286A20F0AE
:100C900001002862286A20F0040002E0286A40F07F
:100CA00001002862E06841F2883B98B1FFF7FAFB47
:100CB00082460BE0286A40F004002862EEE700BF9D
:100CC000FFF7F0FBA0EB0A0159455AD8286A8007C4
:100CD000F6D50CE0FFF7E6FB824605E0FFF7E2FB06
:100CE000A0EB0A0159454CD8286A8007F6D41FB1F9
:100CF000E86920F08050E861E06988B36968C1F371
:100D00008101022944D00228C6F8608004D0FFF790
:100D1000C9FB044638E034E0FFF7C4FB074604E0B3
:100D2000FFF7C0FBC01B02282BD828688001F7D42E
:100D3000206AB0F5803F05D16868A16820F40030D2
:100D400008436860D4E908010843696821F4741114
:100D500008436860C6F86090FFF7A4FB044606E00D
:100D600025E000BFFFF79EFB001B022809D828687A
:100D70008001F7D51BE000BFFFF794FB001B0228A2
:100D800002D90320BDE8F88F28688001F4D40EE072
:100D90000128F7D06868226A00F48031914204D1BA
:100DA000616A00F47010884201D00120EAE7002057
:100DB000E8E7000000100240000042428004424286
:100DC000140000200070004010B5401EB0F1807F7C
:100DD00001D3012010BD4FF0E02460610F216017A6
:100DE00000F013FD0020A06107202061002010BD4D
:100DF0007047704770B590F83C20012A26D0012436
:100E000080F83C40022280F83D2003685A689D68C3
:100E100022F070060A6832435A600D4B02689A420B
:100E200008D0B2F1804F05D00A4B9A4202D00A4B4B
:100E30009A4204D1496825F080031943916080F8F3
:100E40003D40002180F83C10084670BD022070BD76
:100E5000002C0140000400400008004010B50400D0
:100E600003D094F83D0010B107E0012010BD002030
:100E700084F83C00204600F01FF8022084F83D0072
:100E8000211D206800F01AFC012084F8460084F837
:100E90003E0084F83F0084F8400084F8410084F864
:100EA000420084F8430084F8440084F8450084F844
:100EB0003D00002010BD000000B585B0002100916C
:100EC0000191029103913D4B02683D493D489A4290
:100ED00033D18A6942F400628A618A6902F400624D
:100EE00004928A6942F004028A61896901F004016E
:100EF0000491811500916946FFF7DEF90022114641
:100F00001820FFF7C3FC1820FFF7B2FC002211469F
:100F10001920FFF7BBFC1920FFF7AAFC002211469D
:100F20001A20FFF7B3FC1A20FFF7A2FC002211469B
:100F30001B20FFF7ABFC1B203CE0B2F1804F1ED022
:100F4000214B9A4238D1CA6942F00202CA61CA6989
:100F500002F0020204928A6942F004028A618969FD
:100F600001F004010491402100916946FFF7A4F9C2
:100F7000002211461D20FFF789FC1D201AE0CA69D6
:100F800042F00102CA61CA6902F0010204928A6950
:100F900042F004028A61896901F00401049101218F
:100FA00000916946FFF788F9002211461C20FFF7DF
:100FB0006DFC1C20FFF75CFC05B000BD002C01405F
:100FC00000100240000801400004004090F83D106D
:100FD000012901D001207047022180F83D100168ED
:100FE000CA6842F00102CA6000680B49884208D012
:100FF000B0F1804F05D00949884202D008498842A3
:1010000004D1816801F00701062903D0016841F08D
:101010000101016000207047002C014000040040E5
:1010200000080040704770B50446006801694FF041
:101030000005C943890715D4C168C943890711D47C
:10104000E91E016101202077206880698007204621
:1010500002D0FFF7E7FF04E000F098F8204600F028
:1010600096F8257720680169C943490717D4C168F4
:10107000C943490713D46FF00401016102202077AE
:101080002068806910F4407F204602D0FFF7CAFF35
:1010900004E000F07BF8204600F079F8257720681E
:1010A0000169C943090716D4C168C943090712D4A5
:1010B0006FF008010161042020772068C069800773
:1010C000204602D0FFF7AEFF04E000F05FF82046B4
:1010D00000F05DF8257720680169C943C90617D477
:1010E000C168C943C90613D46FF01001016108201B
:1010F00020772068C06910F4407F204602D0FFF7B7
:1011000091FF04E000F042F8204600F040F8257717
:1011100020680169C943C90708D1C168C943C90723
:1011200004D1891E0161204600F032F8206801696F
:10113000C943090609D4C168C943090605D46FF03B
:10114000800101612046FFF753FE20680169C94311
:10115000490609D4C168C943490605D46FF0400166
:101160000161204600F040F820680169C943890602
:101170000BD4C168C943890607D46FF0200101610F
:101180002046BDE87040FFF734BE70BD7047704721
:10119000704770B5044690F83C00012812D0012534
:1011A00084F83C50022084F83D00204600F0C6FA46
:1011B00001004FF0000007D084F83D5084F83C0057
:1011C000012070BD022070BD2168CA6822F0400273
:1011D000CA602168CA6822F48042CA6084F83D501F
:1011E00084F83C00002070BD7047FEE701684A6942
:1011F000D24352050FD46FF480624A61002140F857
:10120000301F202242738173026942F0040202619E
:10121000017301207047002070470000F8B50446B4
:10122000C06A1E460D461746082807D0012805D07B
:1012300010F5803F02D0206B122804D1206801688D
:1012400041F480710160134600224FF001112046E5
:10125000009600F057F840B120680068C00502D53C
:101260004FF4007020640320F8BD2069B0F5804F72
:101270000ED00620216800EAD51040F0F000086189
:1012800033463A460B49204600F070F878B902E040
:1012900005F0FE0000E0E8B2216808610549334628
:1012A0003A46891F204600F061F80028DCD0012072
:1012B000F8BD00000800010070B516460D46044652
:1012C0000DE02046FFF792FF08B1012070BD681CB9
:1012D00005D0FFF7E7F8801BA84207D835B1206892
:1012E0004069C0434007ECD4002070BD002044F8A2
:1012F000300F20216173A073216941F02001216129
:101300002073E2E72DE9F0471E4690460D4604465D
:10131000C1F30747DDF8209008E0701C06D0FFF706
:10132000C1F8A0EB0900B0420FD876B12068012FB8
:1013300018D0806925EA00000004000C14D00021B8
:101340004145EAD00020BDE8F087002044F8300F86
:1013500020216173A073216941F020012161207374
:101360000120F0E74069E5E70121E9E72DE9F047D1
:101370009A4691460E46044600254FF02008C1F3D8
:10138000074725E020684069C043400514D4206821
:10139000016841F40071016021686FF48060486168
:1013A000256384F83D8084F83E50206C40F00400B2
:1013B000206484F83C501FE0B9F1FF3F08D0FFF7EC
:1013C00071F8A0EB0A0149450CD8B9F1000F09D01A
:1013D0002068012F13D0806926EA00000004000C69
:1013E0000BD0CFE744F8305F84F80D80A5732069F7
:1013F00040F02000206125730120BDE8F08740699E
:10140000EAE770B516460D4604460DE02046FFF7A4
:10141000EDFE08B1012070BD681C05D0FFF742F851
:10142000801BA84207D835B120684069C043000638
:10143000ECD4002070BD002044F8300F20216173EF
:10144000A073216941F0200121612073E2E70000CF
:1014500070B586B000241848009401940294039457
:10146000816941F020018161816901F020010491CD
:10147000816941F004018161816901F004010491F5
:10148000816941F00801816180690C4E00F008001B
:101490004FF470450490002229463046FEF7FCFFC9
:1014A00001200095CDE901040220039069463046F1
:1014B000FEF702FF06B070BD00100240000C0140B4
:1014C00010B588B014216846FEF77EFE0024174848
:1014D000059415490694C0E900144FF6FF71C0E960
:1014E0000241046144618461FFF7B8FC08B172B63F
:1014F000FEE7072000905020CDE901040F20049062
:1015000069460A48FFF745FE08B172B6FEE7059442
:1015100005A906480694FFF76DFC002801D072B6B5
:10152000FEE708B010BD0000002C01406C00002058
:1015300010B588B014216846FEF746FE0024164810
:1015400005944FF080410694C0E900144FF6FF71F6
:10155000C0E9024104618461FFF780FC08B172B602
:10156000FEE7072000905020CDE901040F200490F1
:1015700069460948FFF70DFE08B172B6FEE705940B
:1015800005A905480694FFF735FC002801D072B67E
:10159000FEE708B010BD0000B400002010B588B010
:1015A00014216846FEF710FE0024164805941449DD
:1015B0000694C0E900144FF6FF71C0E902410461CE
:1015C0008461FFF74BFC08B172B6FEE7072000907C
:1015D0005020CDE901040F20049069460948FFF727
:1015E000D8FD08B172B6FEE7059405A90548069432
:1015F000FFF700FC002801D072B6FEE708B010BD6E
:1016000000040040FC000020FEE7FEE77047704742
:10161000FFF7D6B830B58FB028216846FEF7D4FD65
:1016200014210AA8FEF7D0FD01210804CDE900101D
:101630000024029402250491CDE907504FF4E010F4
:1016400009906846FFF730FA08B172B6FEE70F203E
:10165000CDE90A054FF48060CDE90C4002210AA8CB
:101660000E94FFF745F9002801D072B6FEE70FB0DF
:1016700030BD70470148FFF7D6BC00006C00002069
:101680000148FFF7D0BC00006C0000200148FFF7C4
:10169000CABC00006C0000200148FFF7C4BC000079
:1016A0006C0000200148FFF7BEBC0000B400002021
:1016B0000148FFF7B8BC0000FC000020F0B502684C
:1016C000164B174C174D4FF08047984205D0B84243
:1016D00003D0A04201D0A84203D122F070064A688C
:1016E0003243984205D0B84203D0A04201D0A8426C
:1016F00003D122F44074CA6822434C6922F080026C
:10170000224302608A68C2620A688262984201D1FA
:101710000969016301214161F0BD0000002C014015
:10172000000400400008004010B5846842EA03222B
:1017300024F47F440A432243826010BD10B503683D
:101740009A6822F070044A68224322F007040A686B
:1017500022439A604A6812F00F0F30D11211082A02
:101760002DD2DFE802F02C2C2C2C0B2127040B6946
:10177000D1E902210068FFF7D7FF20E00A68052AB7
:1017800010D00268136A146A24F00104146202681B
:101790009469096924F0F00444EA01119161006838
:1017A00003620CE0012010BD0A698968006800F03E
:1017B00008F804E00A698968006800F013F800205E
:1017C00010BD10B5036A046A24F001040462846940
:1017D00024F0F00444EA021423F00A020A4384616C
:1017E000026210BD10B5036A23F01003036283691F
:1017F000046A23F4704343EA023224F0A00343EA6C
:1018000001118261016210BDFEE70907090E00287F
:1018100004DB00F1E02080F80014704700F00F00B6
:1018200000F1E02080F8141D704710B5012000F091
:1018300057F8BDE810400A20FEF72CBD10B5322045
:10184000FEF728FD302000F04BF80520FEF722FDC2
:10185000302000F045F80120FEF71CFD302000F09C
:101860003FF80A20FEF716FD202000F039F80A2084
:10187000FEF710FD282000F033F80120FEF70AFDE6
:10188000082000F02DF80120FEF704FD012000F0F3
:1018900027F80120FEF7FEFC0120FEF7FBFC0620E6
:1018A00000F01EF80120FEF7F5FCBDE810400C200A
:1018B00000F016B830B1012807D0022808D003285C
:1018C0000BD108E041F0800107E041F0400104E065
:1018D00041F0140101E041F05401C8B2AFF30080BF
:1018E0001CB500F0F00141F00C028DF8042041F02D
:1018F000080100018DF8051040F00C018DF806106C
:1019000040F008008DF8070064200090042301AA2D
:101910004E210248FEF790FE1CBD0000180000207A
:101920001CB500F0F00141F00D028DF8042041F0EB
:10193000090100018DF8051040F00D018DF8061029
:1019400040F009008DF8070064200090042301AAEC
:101950004E210248FEF770FE1CBD0000180000205A
:1019600010B5044602E0641CFFF7DAFF2078002877
:10197000F9D110BDFEF72CFF7E48FFF727FB7D480D
:101980004830FFF723FB7B489030FFF71FFBFFF742
:1019900055FFFFF74AFFFFF73DFEFFF759FD75487A
:1019A000754954384FF48042016074494160002108
:1019B0008160C0E9031241618161C1610162FEF78A
:1019C00077FD08B172B6FEE7FFF77AFDFFF7B0FDCD
:1019D000FFF7E4FDDFF89CB1DFF8A4910BF1480BB1
:1019E00042F2107A4FF47A760A254FF06408614883
:1019F0000068406AA9F80000DBF800004C46406A25
:101A0000A9F802005B4890300068406AA9F8040019
:101A100000210846FFF74EFF5AA0FFF7A1FF2088DC
:101A20005746B0FBF7F03030C0B2FFF779FF20889F
:101A3000B0FBF6F0B0FBF5F105FB11003030FFF71D
:101A40006FFF2188B1FBF8F0B0FBF5F105FB110049
:101A50003030FFF765FF2088B0FBF5F0B0FBF5F103
:101A600005FB11003030FFF75BFF2088B0FBF6F17B
:101A700006FB11003030C0B2FFF752FFC020FFF765
:101A80002FFF42A0FFF76CFF6088B0FBF7F030300B
:101A9000C0B2FFF745FF6088B0FBF6F0B0FBF5F190
:101AA00005FB11003030FFF73BFF6188B1FBF8F018
:101AB000B0FBF5F105FB11003030FFF731FF608816
:101AC000B0FBF5F0B0FBF5F105FB11003030FFF78E
:101AD00027FF6088B0FBF6F106FB11003030C0B282
:101AE000FFF71EFF9020FFF7FBFE2AA0FFF738FF4D
:101AF000A088B0FBF7F03030C0B2FFF711FFA0882C
:101B0000B0FBF6F0B0FBF5F105FB11003030FFF74C
:101B100007FFA188B1FBF8F0B0FBF5F105FB110060
:101B20003030FFF7FDFEA088B0FBF5F0B0FBF5F11B
:101B300005FB11003030FFF7F3FEA088B0FBF6F193
:101B400006FB11003030C0B2FFF7EAFE0122134F4E
:101B5000140321463846FEF79FFC3046FEF79AFBF9
:101B6000002221463846FEF797FC3046FEF792FBEE
:101B70003DE700006C00002000540040A0860100FA
:101B80000000002044454D303A20000044454D31CE
:101B90003A20000044454D323A200000000C01403C
:101BA000000000000000000001020304060708090D
:101BB0000000000001020304D81B00080000002000
:101BC0001800000028010008F01B00081800002081
:101BD0009007000044010008000000000000000021
:101BE0000100000010000000000000000024F400CC
:04000005080000ED02
:00000001FF
