:020000040800F2
:1000000008070020890100085F1900083116000860
:100010005D19000871030008E319000800000000E2
:10002000000000000000000000000000631900084C
:10003000730300080000000061190008651900083A
:10004000A3010008A3010008A3010008A301000800
:10005000A3010008A3010008A3010008A3010008F0
:10006000A3010008A3010008A3010008A3010008E0
:10007000A3010008A3010008A3010008A3010008D0
:10008000A3010008A301000891020008A3010008D1
:10009000A3010008A3010008A3010008A3010008B0
:1000A000A3010008A3010008A3010008A3010008A0
:1000B000A3010008A3010008A3010008A301000890
:1000C000A3010008A3010008A3010008A301000880
:1000D000A3010008A3010008A3010008A301000870
:1000E000A3010008A3010008A301000800F002F822
:1000F00000F03AF80AA090E8000C82448344AAF188
:100100000107DA4501D100F02FF8AFF2090EBAE885
:100110000F0013F0010F18BFFB1A43F0010318473B
:10012000981A0000B81A0000103A24BF78C878C1A5
:10013000FAD8520724BF30C830C144BF04680C60ED
:10014000704700000023002400250026103A28BF35
:1001500078C1FBD8520728BF30C148BF0B60704739
:100160001FB51FBD10B510BD00F058F81146FFF7C0
:10017000F7FF01F0E3FC00F076F803B4FFF7F2FFBD
:1001800003BC00F07DF8000009488047094800479B
:10019000FEE7FEE7FEE7FEE7FEE7FEE7FEE7FEE737
:1001A000FEE7FEE704480549054A064B7047000094
:1001B000E1190008ED0000080801002008070020F0
:1001C00008030020080300204FF0000200B513468A
:1001D00094469646203922BFA0E80C50A0E80C5067
:1001E000B1F12001BFF4F7AF090728BFA0E80C5018
:1001F00048BF0CC05DF804EB890028BF40F8042B11
:1002000008BF704748BF20F8022B11F0804F18BF7D
:1002100000F8012B7047704770477047754600F033
:100220002BF8AE4605006946534620F00700854688
:1002300018B020B5FFF7B6FFBDE820404FF000062C
:100240004FF000074FF000084FF0000B21F00701BE
:10025000AC46ACE8C009ACE8C009ACE8C009ACE801
:10026000C0098D46704710B50446AFF300802046A4
:10027000BDE81040FFF781BF00487047A400002090
:1002800001491820ABBEFEE72600020070470000BF
:10029000014800F07EB900002000002070B504463F
:1002A00000688168C943C90717D1816821F001013D
:1002B000816000F02DFC05460AE000BF00F028FC3C
:1002C000401B022804D920688068C043C00706D0BC
:1002D00020688068C043C007F0D0002070BDA06ACD
:1002E00040F01000A062E06A40F00100E0620120EE
:1002F00070BD0000F8B500260446009600688168CD
:10030000C943C9072DD0816841F0010181601648B9
:1003100016490068B0FBF1F000E0401E0090002894
:10032000FBD100F0F5FB054616E000BF00F0F0FB46
:10033000401B022810D920688068C043C0070BD03A
:10034000A06A40F01000A062E06A40F00100E062A4
:1003500084F824600120F8BD20688068C043C0078D
:10036000E4D10020F8BD00000C00002040420F0046
:10037000FEE7704772B6FEE7F8B500250446009523
:1003800090F82400012808D0012084F82400204699
:10039000FFF784FF060002D053E00220F8BDA06AF8
:1003A00020F4885040F00200A062022000F0D6FD48
:1003B00026490968B1FBF0F0400000E0401E0090C3
:1003C0000028FBD12046FFF795FF2068816841F0A7
:1003D0000801816000F09CFB074608E000F098FBF4
:1003E000C01B0A2803D920688068000715D420683C
:1003F00080680007F2D42068816841F004018160C0
:1004000000F086FB074612E000F082FBC01B0A28C2
:100410000DD920688068400709D5A06A20F0020045
:1004200040F01000A06284F824500120F8BD20683C
:1004300080684007E8D4A06A20F0020040F0010084
:10044000A06284F824503046F8BD00000C00002063
:1004500070470000F8B50024009490F82420254649
:10046000012A12D0012280F824204A681F23072A7B
:100470000DD20668776B521E02EB820293409F43B7
:100480000B6893401F43776319E00220F8BD0668AC
:100490000D2A0AD2376BD21F02EB820293409F4390
:1004A0000B6893401F43376309E0F76A0D3A02EB8C
:1004B000820293409F430B6893401F43F7620A6890
:1004C000072306680A2A0AD3F7680A3A02EB4202AF
:1004D00093409F438B6893401F43F76008E0376960
:1004E00002EB420293409F438B6893401F43376166
:1004F0000A68102A01D0112A20D1124B02689A42B0
:1005000017D193681B0219D4936843F400039360D6
:100510000968102912D10C490C4A0968B1FBF2F1A3
:1005200001EB8101490000E0491E00910029FBD147
:1005300004E0816A41F020018162012480F82450A6
:100540002046F8BD002401400C00002040420F006E
:1005500010B5044600F01AF80B49CA680244CA6094
:100560000878401CC0B208701D2808D11E20B2FBBC
:10057000F0F048600020C8600870012048702046F4
:10058000BDE8104000F0A2B9100000200068C06C67
:10059000704710B5044600684168890626D5016891
:1005A000890723D5A16AC90603D4A16A41F4007161
:1005B000A1628168C1F34241072910D1217B71B941
:1005C000416821F020014160A06A20F48070A0629F
:1005D000A06AC00403D4A06A40F00100A0622046D3
:1005E000FFF7B6FF21686FF01200086020684168CD
:1005F00009062ED5016849072BD5A16AC90603D47F
:10060000A16A41F40051A1628168C1F30231072956
:1006100009D04168490515D48168C1F342410729D1
:1006200010D1217B71B9416821F080014160A06A3D
:1006300020F48050A062A06AC00503D4A06A40F0F4
:100640000100A0622046FFF703FF21686FF00C0055
:1006500008602068416849060DD50068C0070AD0C7
:10066000A06A40F48030A062204600F093F8216830
:100670006FF00100086010BD2DE9F0414FF0000758
:1006800004003D467ED0A06A002628B9E66284F8C0
:100690002460204600F080F82046FFF7FFFDA16AA5
:1006A000C90600D420B1A06A40F01000A06269E041
:1006B000A16A21F4885141F00201A1626268E169F6
:1006C000237B0A4347EA43010A43A1684FF480773A
:1006D000B94209D0012907D05FF0000194F814C095
:1006E000BCF1010F02D00AE03946F7E7F3B1A36A83
:1006F00043F02003A362E36A43F00103E36223684B
:10070000D3F804C02CF4694C4CEA010CC3F804C0C3
:1007100021688B68DFF870C003EA0C0313438B6019
:10072000A168B9420BD0012909D00CE0DFF85CC008
:10073000A3690CEB43330B4343F40061DFE7218AE9
:100740000D05A5F580152168CB6A23F470032B43B2
:10075000CB62216889680E4B1940914208D1E6624C
:10076000A16A21F0020141F00101A162BDE8F0811E
:10077000A06A20F0020040F01000A062E06A40F0A1
:100780000100E0620120F1E7FDF7E1FF00E0FFFF7B
:10079000FE0E1FFF7047000000B585B000210091DC
:1007A00001910291039100681249884220D11248B8
:1007B000816941F400718161816901F400710491E2
:1007C000816941F0040181618069694600F004009B
:1007D00004900120009003200190084800F0A8F840
:1007E00000221146122000F087FB122000F076FB59
:1007F00005B000BD00240140001002400008014087
:1008000070B5044690F8240001280DD0012084F82A
:1008100024002046FFF76EFD02004FF0000005D0D7
:1008200084F82400104670BD022070BDA16A40F615
:100830000163994341F48071A162224D23682249EA
:10084000AB4218D10E6816F4702F14D0A66A46F485
:100850008016A6620E68760505D5A66A26F40056AF
:1008600046F48056A662A66AF6040AD5E66A26F021
:100870000606E66206E0A66A26F48016A6625E68B0
:10088000E9E7E06284F824006FF002001860206855
:10089000436843F02003436020688368C3F3424306
:1008A000072B05D1A84208D1096811F4702F04D094
:1008B000816841F480118160B4E7816841F4A0014E
:1008C000F9E70000002801400424014010B5044667
:1008D00090F82400012807D0012084F82400204645
:1008E000FFF7DCFC10B10CE0022010BD21684A6863
:1008F00022F020024A60A16A21F4885141F00101EE
:10090000A162002184F8241010BD000070B50446D7
:1009100000F0FEF80546601C02D00448007804444C
:1009200000F0F6F8401BA042FAD370BD0000002092
:100930002DE9F84FDFF8B891002409F1040A0AF113
:10094000040B23460F270BF1040EC9E00125A54037
:100950002A40AA427DD1674ED1F804C0ACEB06080C
:10096000B44532D014DCBCF1030F3AD009DCBCF141
:10097000000F2AD0BCF1010F1CD0BCF1020F31D105
:100980001DE0BCF1110F17D0BCF1120F2AD119E0F4
:10099000B8F5881F19D006DCB8F5803F15D0B8F53A
:1009A000801F1FD111E0B8F5001F0ED0B8F5041F4D
:1009B00018D10AE0CB6815E0CB681B1D12E0CB68AC
:1009C00008330FE0CB680C330CE08B682BB1012BA4
:1009D0004FF0080303D0456104E0042302E0056101
:1009E00000E00023FF2A01D8064601E000F10406DA
:1009F0004FEA840501D9A5F12005D6F8008007FA51
:100A000005FC28EA0C0803FA05F548EA0508C6F8CB
:100A100000804D68ED0062D5374DAE6946F00106A5
:100A2000AE61AD6924F0030605F001050095334D74
:100A300006EB050CDCF80850A607360F07FA06F897
:100A400025EA0805DFF8B880404503D14FF00008DB
:100A500017E044E0DFF8AC80404502D14FF00108D8
:100A60000FE0DFF8A480404502D14FF0020808E013
:100A7000DFF89880404502D14FF0030801E04FF0C5
:100A8000040808FA06F848EA0508CCF808804D681A
:100A9000D9F80060ED034D4601D5164300E09643BA
:100AA0002E604D68DAF80060AD03554601D5164357
:100AB00000E096432E604D68DBF80060ED025D4675
:100AC00001D5164300E096432E604D68DEF80060C5
:100AD000AD02754601D5164300E096432E60641CB6
:100AE0000D682A46E5407FF431AFBDE8F88F00007D
:100AF00000040140000011100010024000000140FD
:100B000000080140000C01400010014000140140A9
:100B100001488068704700000000002070B50400A4
:100B200025D094F83D00002520B984F83C5020469B
:100B300000F04EF9242084F83D002068016821F07F
:100B4000010101602068016841F4004101602068F2
:100B5000016821F40041016000F070FB4D4A6168BA
:100B6000914201D84C4900E04C49884201D2012011
:100B700070BD4B492368B0FBF1F15E6826F03F067B
:100B80000E435E606368934206D94FF496735943EF
:100B90004FF47A73B1FBF3F12368491C1E6A26F007
:100BA0003F06314319626168914210D84900401EE6
:100BB000B0FBF1F2521CC2F30B02042A01D2042052
:100BC00022E0B0FBF1F0401CC0F30B001CE0A26877
:100BD000F2B301EBC10303EB0116431EB3FBF6F3C3
:100BE0005B1C43F480431B0549D092B301EBC10267
:100BF00002EB0111401EB0FBF1F0401CC0F30B00F2
:100C000040F4804040F400402168CA694CF6FF730C
:100C10009A431043C861D4E9071001432068026871
:100C200022F0C00211430160D4E9030101432068AE
:100C3000826848F2FF339A4311438160D4E9050189
:100C400008432168CA6822F0FF021043C86001E02F
:100C50000EE016E02068016841F0010101602564A2
:100C6000202084F83D00256384F83E50002070BDAC
:100C700001EB4106431EB3FBF6F35B1CB3E7012017
:100C8000C2E701EB4101401EB0FBF1F0401CC0F394
:100C90000B00B7E7A086010080841E0000093D001C
:100CA00040420F002DE9F84F1F4690468A46044601
:100CB000DDF82890FFF72CFF054694F83D0020282A
:100CC0007FD11923012240492046009500F03CFDC8
:100CD000002876D194F83C00012872D0012084F8D5
:100CE0003C0020680168C90703D1016841F0010197
:100CF00001602068016821F400610160212084F80E
:100D00003D00102084F83E0000262664C4F82480AC
:100D10006785608D20852D48E0622B464A46514606
:100D2000204600F09DFC90B92068416980690090E0
:100D300036E02A464946204600F085FD50B1206C39
:100D4000042804D12068016841F400710160012089
:100D5000BDE8F88F606A216800780861606A401C0D
:100D60006062618D491E6185218D491E89B2218590
:100D700022685369DB435B070BD451B100781061E3
:100D8000606A401C6062608D401E6085208D401E40
:100D900020852A464946204600F0B0FC0028CED1E6
:100DA000208D0028C5D154F83D0B016841F4007135
:100DB0000160202004F81E09E67766770020C7E767
:100DC000FFE70220C4E70000020010000000FFFF60
:100DD00010B586B000210091019102910391006845
:100DE0000F4988421AD10F4CA06940F00800A06159
:100DF000A069694600F008000490C020009012200D
:100E00000190032003900848FFF792FDE06940F449
:100E10000010E061E06900F40010049006B010BD1D
:100E20000054004000100240000C0140024881685C
:100E3000027811448160704700000020074810B517
:100E4000016841F010010160032000F075F80F20E7
:100E500000F006F800F024F8002010BD0020024049
:100E600070B50D4D04464FF47A712878B1FBF0F05F
:100E70000A490968B1FBF0F000F0C6FB48B9102C34
:100E800007D200222146501E00F036F800206C6088
:100E900070BD012070BD0000000000200C0000208B
:100EA0000C4808B5816941F001018161816901F057
:100EB00001010091C16941F08051C161C06900F038
:100EC000805000900448416821F0E06141F00071D9
:100ED000416008BD0010024000000140002809DB0D
:100EE00000F01F02012191404009800000F1E02044
:100EF000C0F8001170470000F0B40E4B1B680C46A0
:100F0000C3F30223C3F10705042D00D90425191DDD
:100F1000072901D2002300E0DB1E012606FA05F1B5
:100F2000491E214099409E40761E16403143F0BC38
:100F300000F058BD0CED00E0064900F0070208681B
:100F40004FF6FF03184040EA0220034A10430860AE
:100F5000704700000CED00E00000FA0510B529A470
:100F600001461DCC86B08DE81D002AA02A4C0068E1
:100F700004900020012923D002293AD010291DD144
:100F800061682268D20119D5C1F38342C9031DF8F3
:100F9000020009D5616804AAC1F34041515C1F4AAF
:100FA000B2FBF1F1484301E01D4948436168490241
:100FB00004D440005FF00301B0FBF1F006B010BDB7
:100FC000226AC2F30121012903D1920701D5C80386
:100FD000F4E7022905D1626A920702D549F640403A
:100FE000ECE70329EAD121688903E7D54FF22440D1
:100FF000E4E700F033F96168C1F38131491C49002D
:10100000DAE7000002030405060708090A0B0C0DC5
:101010000E0F1010010200000010024000127A00B2
:1010200000093D002DE9F84305460078354CC0071E
:1010300054D0E0690026C00008D4E06940F0805038
:10104000E061E069012600F0805000902E480168C0
:10105000C90512D40168804641F480710160FFF730
:1010600057FD074605E000BFFFF752FDC01B64288F
:1010700023D8D8F80000C005F6D5206A10F44070D7
:1010800021D0A98801F4407181421CD0206A1F49F7
:10109000012220F440700A6000220A602062C0072A
:1010A00011D0FFF735FD074641F2883808E000BF50
:1010B000FFF72EFDC11B414502D90320BDE8F8838F
:1010C000206A8007F4D5206A696820F440700843DC
:1010D00020621EB1E06920F08050E061287880072E
:1010E00005D56068A96820F440400843606028780E
:1010F000C00605D56068E96820F480000843606098
:101100000020DBE700100240007000404004424233
:101110002DE9F0470F46050061D0434E306800F0DE
:101120000700B84209D2306820F007003843306029
:10113000306800F00700B84251D128683B4C810765
:1011400012D5400703D5606840F4E06060602878FD
:10115000000703D5606840F4605060606068A9686B
:1011600020F0F000084360602878C00728D0686845
:10117000012810D02168022810D0890700292EDA12
:10118000616821F0030101436160FFF7C1FC804603
:1011900041F288390DE021688903EFE78901EDE725
:1011A000FFF7B6FCA0EB0801494502D90320BDE8D2
:1011B000F0876068696800F00C00B0EB810FEFD138
:1011C000306800F00700B8420BD9306820F0070003
:1011D00038433060306800F00700B84201D0012089
:1011E000E5E72878400705D56068E96820F4E06005
:1011F000084360602878000706D56068296920F4F4
:10120000605040EAC100606000F038F86168084A48
:10121000C1F30311515CC8400649086006480068E4
:10122000FFF71EFE0020C2E700200240001002402F
:10123000A01B00080C000020040000200448054901
:1012400000684968044AC1F30221515CC8407047F4
:101250000C00002000100240B01B000804480549A3
:1012600000684968044AC1F3C221515CC840704714
:101270000C00002000100240B01B000812A185B035
:101280000FC98DE80F0014A0144A0068049051683B
:10129000134801F00C03042B10D0082B0ED1C1F31E
:1012A0008343C9031DF803000AD5516804AAC1F39A
:1012B0004041515C0A4A5043B0FBF1F005B0704721
:1012C00008494843FAE70000020304050607080935
:1012D0000A0B0C0D0E0F101001020000001002404E
:1012E00000127A0000093D002DE9F84F040070D08B
:1012F0002078C04DC00749D06868C0F3810001283C
:1013000007D06868C0F38100022809D16868C0036B
:1013100006D52868800339D560680028E7D035E015
:101320006068B0F5803F0BD010B1B0F5A02F11D0A0
:10133000286820F480302860286820F4802002E0AB
:10134000286840F480302860606890B1FFF7E0FBC7
:1013500006460AE0286840F480202860F0E700BFD5
:10136000FFF7D6FB801B642873D828688003F7D565
:101370000CE0FFF7CDFB064605E000BFFFF7C8FB1A
:10138000801B6428F0D828688003F7D420789A4E10
:1013900080074FF001094FF0000839D5686810F058
:1013A0000C0F07D06868C0F38100022809D1686873
:1013B000C00306D42868800714D52069012808D105
:1013C00010E02069B0B1C6F80090FFF7A1FB074616
:1013D00005E00AE1FFF79CFBC01B0228C4D828687F
:1013E0008007F7D52868616920F0F80040EAC1005D
:1013F00028600DE0C6F80080FFF78AFB074604E08E
:10140000FFF786FBC01B022823D828688007F7D483
:10141000207800072CD57948A169D9B1C0F800908F
:10142000FFF776FB074604E0FFF772FBC01B0228BC
:101430000FD8686A8007F7D571484FF4FA510068F1
:10144000B0FBF1F0009000BF0098411E0091FAD26D
:101450000EE080E0C0F80080FFF75AFB074604E08A
:10146000FFF756FBC01B022875D8686A8007F7D4BF
:101470002078400760D5E8690027C00008D4E869F3
:1014800040F08050E861E869012700F0805000904A
:101490005C480168C90513D40168834641F4807132
:1014A0000160FFF735FB824606E000BFFFF730FB27
:1014B000A0EB0A0064284ED8DBF80000C005F5D583
:1014C000E06801280AD008B1052813D0286A20F066
:1014D00001002862286A20F0040002E0286A40F037
:1014E00001002862E06841F2883B98B1FFF710FBE9
:1014F00082460BE0286A40F004002862EEE700BF55
:10150000FFF706FBA0EB0A0159455AD8286A800765
:10151000F6D50CE0FFF7FCFA824605E0FFF7F8FA93
:10152000A0EB0A0159454CD8286A8007F6D41FB1B0
:10153000E86920F08050E861E06988B36968C1F328
:101540008101022944D00228C6F8608004D0FFF748
:10155000DFFA044638E034E0FFF7DAFA074604E041
:10156000FFF7D6FAC01B02282BD828688001F7D4D1
:10157000206AB0F5803F05D16868A16820F400308A
:1015800008436860D4E908010843696821F47411CC
:1015900008436860C6F86090FFF7BAFA044606E0B0
:1015A00025E000BFFFF7B4FA001B022809D828681D
:1015B0008001F7D51BE000BFFFF7AAFA001B022845
:1015C00002D90320BDE8F88F28688001F4D40EE02A
:1015D0000128F7D06868226A00F48031914204D172
:1015E000616A00F47010884201D00120EAE700200F
:1015F000E8E700000010024000004242800442423E
:101600000C0000200070004010B5401EB0F1807F3B
:1016100001D3012010BD4FF0E02460610F2160175D
:1016200000F0E0F90020A06107202061002010BD3B
:10163000FEE701684A69D24352050FD46FF4806215
:101640004A61002140F8301F2022427381730269F1
:1016500042F00402026101730120704700207047CC
:10166000F8B50446C06A1E460D461746082807D03E
:10167000012805D010F5803F02D0206B122804D13C
:101680002068016841F480710160134600224FF028
:1016900001112046009600F057F840B1206800681C
:1016A000C00502D54FF4007020640320F8BD206906
:1016B000B0F5804F0ED00620216800EAD51040F02A
:1016C000F000086133463A460B49204600F070F8B6
:1016D00078B902E005F0FE0000E0E8B22168086198
:1016E000054933463A46891F204600F061F8002834
:1016F000DCD00120F8BD00000800010070B51646DE
:101700000D4604460DE02046FFF793FF08B1012087
:1017100070BD681C05D0FFF7FBF9801BA84207D8F5
:1017200035B120684069C0434007ECD4002070BD4B
:10173000002044F8300F20216173A073216941F02B
:10174000200121612073E2E72DE9F0471E46904613
:101750000D460446C1F30747DDF8209008E0701CF1
:1017600006D0FFF7D5F9A0EB0900B0420FD876B14B
:101770002068012F18D0806925EA00000004000CC1
:1017800014D000214145EAD00020BDE8F0870020B8
:1017900044F8300F20216173A073216941F02001CA
:1017A000216120730120F0E74069E5E70121E9E7C5
:1017B0002DE9F0479A4691460E46044600254FF023
:1017C0002008C1F3074725E020684069C043400571
:1017D00014D42068016841F40071016021686FF43D
:1017E00080604861256384F83D8084F83E50206C19
:1017F00040F00400206484F83C501FE0B9F1FF3F42
:1018000008D0FFF785F9A0EB0A0149450CD8B9F1DA
:10181000000F09D02068012F13D0806926EA00004C
:101820000004000C0BD0CFE744F8305F84F80D8043
:10183000A573206940F02000206125730120BDE8D8
:10184000F0874069EAE770B516460D4604460DE09C
:101850002046FFF7EEFE08B1012070BD681C05D0E0
:10186000FFF756F9801BA84207D835B120684069B8
:10187000C0430006ECD4002070BD002044F8300FB7
:1018800020216173A073216941F02001216120733F
:10189000E2E700003EB50024104800940194029451
:1018A0000D498460016001250573047505614FF4DD
:1018B00060214460C161FEF7DFFE08B1FEF75AFD0A
:1018C000CDE90045694605480294FEF7C3FD0028AE
:1018D00001D0FEF74FFD3EBD002401402000002056
:1018E0000D4808B5816941F020018161816901F0ED
:1018F00020010091816941F004018161816901F059
:1019000004010091816941F008018161806900F062
:101910000800009008BD0000001002400D4810B5FE
:101920000B4901600C49416000214FF48042816005
:10193000C0E9031241618161C1610162FFF7EEF804
:10194000002803D0BDE81040FEF714BD10BD000014
:101950000054004050000020A0860100FEE7FEE792
:1019600070477047FFF762BA30B593B028216846D8
:10197000FEF72AFC14210AA8FEF726FC0025012008
:101980000F9510951195010412958DE82300049090
:101990004FF4E010CDE90810022407946846FFF7E1
:1019A000A3FC08B172B6FEE70AA90F2081E8310056
:1019B0004FF48060CDE90D0502210AA8FFF7A8FBCE
:1019C00008B172B6FEE74FF4004011900F940FA8D3
:1019D000FFF728FB002801D072B6FEE713B030BD38
:1019E0007047FEE70907090E002804DB00F1E0203C
:1019F00080F80014704700F00F0000F1E02080F83C
:101A0000141D704710B53220FEF780FF302000F023
:101A10004BF80520FEF77AFF302000F045F8012052
:101A2000FEF774FF302000F03FF80A20FEF76EFF4B
:101A3000202000F039F80A20FEF768FF282000F087
:101A400033F80120FEF762FF082000F02DF8012096
:101A5000FEF75CFF012000F027F80120FEF756FF9B
:101A60000120FEF753FF062000F01EF80120FEF7CC
:101A70004DFFBDE810400C2000F016B830B1012831
:101A800007D0022808D003280BD108E041F08001DC
:101A900007E041F0400104E041F0140101E041F0B1
:101AA0005401C8B2AFF300801CB500F0F00141F062
:101AB0000C028DF8042041F0080100018DF805109A
:101AC00040F00C018DF8061040F008008DF807007A
:101AD00064200090042301AA4E210248FFF7E2F897
:101AE0001CBD0000500000201CB500F0F00141F0CA
:101AF0000D028DF8042041F0090100018DF8051058
:101B000040F00D018DF8061040F009008DF8070037
:101B100064200090042301AA4E210248FFF7C2F876
:101B20001CBD00005000002010B5044602E0641CFB
:101B3000FFF7DAFF20780028F9D110BDFFF77EF912
:101B4000FFF712FFFFF7CCFEFFF7A4FEFFF7E6FE5C
:101B5000FFF758FF0E48FEF70FFC0E4C002500BFA4
:101B6000FEF7D6FFA168401A0A2805D30848FEF7F9
:101B700047FEFEF7CDFFA06060780028F0D000217E
:101B800065700846FFF77AFF03A0FFF7CDFFE7E790
:101B900020000020100000204E676174000000004B
:101BA000000000000000000001020304060708090D
:101BB0000000000001020304D81B00080000002000
:101BC0001000000028010008E81B00081000002099
:101BD000F8060000440100080100000010000000A9
:081BE000000000000024F400E5
:04000005080000ED02
:00000001FF
