:020000040800F2
:10000000000700208901000843250008391900086D
:100010004125000871030008B72500080000000012
:10002000000000000000000000000000472500085C
:10003000730300080000000045250008492500085A
:10004000A3010008A3010008A3010008A301000800
:10005000A3010008A3010008A3010008A3010008F0
:10006000A3010008A3010008A3010008A3010008E0
:10007000A3010008A3010008A3010008A3010008D0
:10008000A3010008A301000891020008A3010008D1
:10009000A3010008A3010008A3010008A3010008B0
:1000A000A3010008A3010008A3010008A3010008A0
:1000B000A3010008A3010008A30100083D190008DE
:1000C000A3010008A3010008A3010008A301000880
:1000D000A3010008A3010008A3010008A301000870
:1000E000A3010008A3010008A301000800F002F822
:1000F00000F03AF80AA090E8000C82448344AAF188
:100100000107DA4501D100F02FF8AFF2090EBAE885
:100110000F0013F0010F18BFFB1A43F0010318473B
:10012000602F0000802F0000103A24BF78C878C1EB
:10013000FAD8520724BF30C830C144BF04680C60ED
:10014000704700000023002400250026103A28BF35
:1001500078C1FBD8520728BF30C148BF0B60704739
:100160001FB51FBD10B510BD00F058F81146FFF7C0
:10017000F7FF02F0CDFA00F076F803B4FFF7F2FFD4
:1001800003BC00F07DF8000009488047094800479B
:10019000FEE7FEE7FEE7FEE7FEE7FEE7FEE7FEE737
:1001A000FEE7FEE704480549054A064B7047000094
:1001B000B5250008ED000008000100200007002020
:1001C00000030020000300204FF0000200B513469A
:1001D00094469646203922BFA0E80C50A0E80C5067
:1001E000B1F12001BFF4F7AF090728BFA0E80C5018
:1001F00048BF0CC05DF804EB890028BF40F8042B11
:1002000008BF704748BF20F8022B11F0804F18BF7D
:1002100000F8012B7047704770477047754600F033
:100220002BF8AE4605006946534620F00700854688
:1002300018B020B5FFF7B6FFBDE820404FF000062C
:100240004FF000074FF000084FF0000B21F00701BE
:10025000AC46ACE8C009ACE8C009ACE8C009ACE801
:10026000C0098D46704710B50446AFF300802046A4
:10027000BDE81040FFF781BF00487047A000002094
:1002800001491820ABBEFEE72600020070470000BF
:10029000014800F0F3B800001C00002070B50446CF
:1002A00000688168C943C90717D1816821F001013D
:1002B000816000F085FC05460AE000BF00F080FC8C
:1002C000401B022804D920688068C043C00706D0BC
:1002D00020688068C043C007F0D0002070BDA06ACD
:1002E00040F01000A062E06A40F00100E0620120EE
:1002F00070BD0000F8B500260446009600688168CD
:10030000C943C9072DD0816841F0010181601648B9
:1003100016490068B0FBF1F000E0401E0090002894
:10032000FBD100F04DFC054616E000BF00F048FC94
:10033000401B022810D920688068C043C0070BD03A
:10034000A06A40F01000A062E06A40F00100E062A4
:1003500084F824600120F8BD20688068C043C0078D
:10036000E4D10020F8BD00001800002040420F003A
:10037000FEE7704770470000F8B50024009490F83D
:1003800024202546012A12D0012280F824204A6820
:100390001F23072A0DD20668776B521E02EB8202DA
:1003A00093409F430B6893401F43776319E00220FB
:1003B000F8BD06680D2A0AD2376BD21F02EB820203
:1003C00093409F430B6893401F43376309E0F76AEC
:1003D0000D3A02EB820293409F430B6893401F4308
:1003E000F7620A68072306680A2A0AD3F7680A3AF6
:1003F00002EB420293409F438B6893401F43F76098
:1004000008E0376902EB420293409F438B689340B8
:100410001F4337610A68102A01D0112A20D1124BDC
:1004200002689A4217D193681B0219D4936843F467
:10043000000393600968102912D10C490C4A09681D
:10044000B1FBF2F101EB8101490000E0491E00918E
:100450000029FBD104E0816A41F02001816201247E
:1004600080F824502046F8BD0024014018000020E8
:1004700040420F0070470068C06C704710B50446DA
:1004800000684168890626D50168890723D5A16AD5
:10049000C90603D4A16A41F40071A1628168C1F365
:1004A0004241072910D1217B71B9416821F0200117
:1004B0004160A06A20F48070A062A06AC00403D4E6
:1004C000A06A40F00100A0622046FFF7D3FF216838
:1004D0006FF0120008602068416809062ED5016897
:1004E00049072BD5A16AC90603D4A16A41F400517A
:1004F000A1628168C1F30231072909D04168490529
:1005000015D48168C1F34241072910D1217B71B90B
:10051000416821F080014160A06A20F48050A0620F
:10052000A06AC00503D4A06A40F00100A062204682
:10053000FFF720FF21686FF00C0008602068416819
:1005400049060DD50068C0070AD0A06A40F4803083
:10055000A062204600F094F821686FF00100086066
:1005600010BD00002DE9F0414FF0000704003D46AA
:100570007ED0A06A002628B9E66284F8246020466E
:1005800000F080F82046FFF789FEA16AC90600D472
:1005900020B1A06A40F01000A06269E0A16A21F4D5
:1005A000885141F00201A1626268E169237B0A433C
:1005B00047EA43010A43A1684FF48077B94209D062
:1005C000012907D05FF0000194F814C0BCF1010FBD
:1005D00002D00AE03946F7E7F3B1A36A43F02003FB
:1005E000A362E36A43F00103E3622368D3F804C023
:1005F0002CF4694C4CEA010CC3F804C021688B68E8
:10060000DFF870C003EA0C0313438B60A168B942A2
:100610000BD0012909D00CE0DFF85CC0A3690CEB1A
:1006200043330B4343F40061DFE7218A0D05A5F551
:1006300080152168CB6A23F470032B43CB622168B9
:1006400089680E4B1940914208D1E662A16A21F0F7
:10065000020141F00101A162BDE8F081A06A20F031
:10066000020040F01000A062E06A40F00100E06289
:100670000120F1E7FDF7E1FF00E0FFFFFE0E1FFFA5
:100680007047000000B585B00021009101910291F2
:10069000039100681249884220D11248816941F4CF
:1006A00000718161816901F400710491816941F0F7
:1006B000040181618069694600F00400049006200D
:1006C000009003200190084800F08AF900221146AA
:1006D000122000F095FD122000F084FD05B000BD51
:1006E0000024014000100240000801402DE9F843B9
:1006F00000270D460446009700F062FA8046206805
:100700008168C90508D5A06A40F02000A06284F87D
:1007100024700120BDE8F8834168C90503D4C06A8C
:1007200010F4700F2AD0022000F09CFD3B490968AC
:10073000B1FBF0F62068036939490B424FEA6101C9
:100740004FEAA1121FD1C3684FEA611C13EA0C0FD4
:1007500019D103690B4225D1C068104222D114205F
:1007600023E0681C0AD02DB100F02AFAA0EB0800A3
:10077000A84203D920680068800725D52068006852
:100780008007EED52DE003690B4202D1C16811420A
:1007900006D0026923490A4206D1C068084203D143
:1007A000542002E0292000E0FC204643009816E097
:1007B000681C11D02DB100F003FAA0EB0800A8428C
:1007C0000AD90098B04207D2A06A40F00400A062A3
:1007D00084F8247003209DE70098401C0090B042EC
:1007E000E6D321686FF012000860A06A40F4007040
:1007F000A06220688068C0F3424007280CD1207BAB
:1008000050B9A06A20F48070A062A06AC00403D42A
:10081000A06A40F00100A06200207BE718000020E1
:10082000244992244992240070B5044690F824008B
:1008300001280DD0012084F824002046FFF75AFD3E
:1008400002004FF0000005D084F82400104670BD6F
:10085000022070BDA16A40F20123994341F48071E6
:10086000A1621F4D23681F49AB4218D10E6816F4D0
:10087000702F14D0A66A46F48016A6620E6876051C
:1008800005D5A66A26F4005646F48056A662A66AE6
:10089000F6040AD5E66A26F00606E66206E0A66ACF
:1008A00026F48016A6625E68E9E7E06284F8240018
:1008B0006FF00200186020688368C3F34243072B7F
:1008C00005D1A84208D1096811F4702F04D08168BD
:1008D00041F480118160B9E7816841F4A001F9E732
:1008E000002801400424014010B5044690F824007B
:1008F000012807D0012084F824002046FFF7CEFC11
:1009000010B107E0022010BDA16A21F4885141F026
:100910000101A162002184F8241010BD10B590F8E7
:1009200021100024022903D00421816301243DE029
:1009300001680A6822F00E020A6001680A6822F063
:1009400001020A601A4A0168914201D1012121E0A5
:10095000174A1432914201D110211BE0144A283267
:10096000914201D1891515E0114A3C32914201D1E1
:1009700089140FE00E4A5032914202D14FF4803177
:1009800008E00B4A6432914202D14FF4801101E039
:100990004FF08071064A083A5160012180F8211019
:1009A000002180F82010416B01B18847204610BD1E
:1009B0000800024090F821007047000070B504461E
:1009C00000F0FEF80546601C02D00448007804449C
:1009D00000F0F6F8401BA042FAD370BD0C000020D6
:1009E0002DE9F84FDFF8B891002409F1040A0AF163
:1009F000040B23460F270BF1040EC9E00125A54087
:100A00002A40AA427DD1674ED1F804C0ACEB06085B
:100A1000B44532D014DCBCF1030F3AD009DCBCF190
:100A2000000F2AD0BCF1010F1CD0BCF1020F31D154
:100A30001DE0BCF1110F17D0BCF1120F2AD119E043
:100A4000B8F5881F19D006DCB8F5803F15D0B8F589
:100A5000801F1FD111E0B8F5001F0ED0B8F5041F9C
:100A600018D10AE0CB6815E0CB681B1D12E0CB68FB
:100A700008330FE0CB680C330CE08B682BB1012BF3
:100A80004FF0080303D0456104E0042302E0056150
:100A900000E00023FF2A01D8064601E000F1040629
:100AA0004FEA840501D9A5F12005D6F8008007FAA0
:100AB00005FC28EA0C0803FA05F548EA0508C6F81B
:100AC00000804D68ED0062D5374DAE6946F00106F5
:100AD000AE61AD6924F0030605F001050095334DC4
:100AE00006EB050CDCF80850A607360F07FA06F8E7
:100AF00025EA0805DFF8B880404503D14FF000082B
:100B000017E044E0DFF8AC80404502D14FF0010827
:100B10000FE0DFF8A480404502D14FF0020808E062
:100B2000DFF89880404502D14FF0030801E04FF014
:100B3000040808FA06F848EA0508CCF808804D6869
:100B4000D9F80060ED034D4601D5164300E0964309
:100B50002E604D68DAF80060AD03554601D51643A6
:100B600000E096432E604D68DBF80060ED025D46C4
:100B700001D5164300E096432E604D68DEF8006014
:100B8000AD02754601D5164300E096432E60641C05
:100B90000D682A46E5407FF431AFBDE8F88F0000CC
:100BA000000401400000111000100240000001404C
:100BB00000080140000C01400010014000140140F9
:100BC00001488068704700000C00002070477047A3
:100BD0002DE9F047026800215368C66A90F83E404C
:100BE00090F83D50102C12D0402C10D0046C002CEA
:100BF0007DD05469E443A6077AD4DE43B60577D4A2
:100C0000036C03B19169BDE8F04701F0C9BA976977
:100C100051694FF42A0CC9435FEAC1784FF02A4961
:100C200004D066452AD04E4528D010E0DE43B605F4
:100C30000DD4C16A614501D1012103E0C16A494572
:100C400001D10821C162BDE8F04701F013BA0E07D7
:100C500016D4DE43B60513D4416CC9B21161416BA1
:100C600009B1896A29B9816B002907D0896A0029ED
:100C700004D00068416841F400614160BDE8F0873C
:100C80008E0706D4DE43B60503D4BDE8F04701F075
:100C900045B9FE43526876074FEA02521DD4002A36
:100CA000ECDB0A0608D4DA43520505D4490705D51A
:100CB000BDE8F04701F0D6B84907DFD4D94389052C
:100CC000DCD4212D05D0402CD8D1BDE8F04701F06F
:100CD00017BABDE8F04701F083B8002ACEDB4A0618
:100CE0000BD4DA43520508D4490708D501E00DE0DA
:100CF0000EE0BDE8F04700F0B1BF4907BED4D943CC
:100D00008905BBD4BDE8F04700F03FBF916970E7AB
:100D1000E10606D4D943890503D4BDE8F04701F0C4
:100D200063BA2821212D27D0292D25D0650655D439
:100D3000DD436D0552D4640752D590F83D30448DA3
:100D4000002C9BD01269446A2270426A521C426293
:100D5000428D521E4285428D002A8FD12A2B8DD181
:100D60000268536823F4806353602222026380F890
:100D70003D1000F0DDF981E7250623D4DD436D0544
:100D800020D4640720D590F83D30448D002CF2D05B
:100D9000446A24781461426A521C4262428D521E97
:100DA0004285428D002AE6D1292BE4D1026853689E
:100DB00023F4806353602122026380F83D1000F029
:100DC000B8F95BE76107D6D4D9438905D3D4418DFF
:100DD0000029D0D0416A097811610AE06107CAD4BC
:100DE000D9438905C7D4418D0029C4D01169426A0D
:100DF0001170416A491C4162418D491E41853DE7A0
:100E00007047000070B5040025D094F83D0000251F
:100E100020B984F83C50204600F054F9242084F88E
:100E20003D002068016821F001010160206801682F
:100E300041F4004101602068016821F40041016033
:100E400000F080FB4D4A6168914201D84C4900E0B6
:100E50004C49884201D2012070BD4B492368B0FB48
:100E6000F1F15E6826F03F060E435E6063689342D0
:100E700006D94FF4967359434FF47A73B1FBF3F1EB
:100E80002368491C1E6A26F03F06314319626168D7
:100E9000914210D84900401EB0FBF1F2521CC2F33F
:100EA0000B02042A01D2042022E0B0FBF1F0401C26
:100EB000C0F30B001CE0A268F2B301EBC10303EB2B
:100EC0000116431EB3FBF6F35B1C43F480431B0582
:100ED00049D092B301EBC10202EB0111401EB0FBFD
:100EE000F1F0401CC0F30B0040F4804040F400409F
:100EF0002168CA694CF6FF739A431043C861D4E96C
:100F0000071001432068026822F0C002114301600B
:100F1000D4E9030101432068826848F2FF339A4311
:100F200011438160D4E9050108432168CA6822F0B1
:100F3000FF021043C86001E00EE016E0206801687F
:100F400041F0010101602564202084F83D00256303
:100F500084F83E50002070BD01EB4106431EB3FBF8
:100F6000F6F35B1CB3E70120C2E701EB4101401E31
:100F7000B0FBF1F0401CC0F30B00B7E7A086010006
:100F800080841E0000093D0040420F0070477047FA
:100F9000704700002DE9F84F1F4690468A460446E8
:100FA000DDF82890FFF70CFE054694F83D00202858
:100FB0007FD11923012240492046009501F0E8F92C
:100FC000002876D194F83C00012872D0012084F8E2
:100FD0003C0020680168C90703D1016841F00101A4
:100FE00001602068016821F400610160212084F81B
:100FF0003D00102084F83E0000262664C4F82480BA
:101000006785608D20852D48E0622B464A46514613
:10101000204600F097FE90B92068416980690090F1
:1010200036E02A464946204601F031FA50B1206C9C
:10103000042804D12068016841F400710160012096
:10104000BDE8F88F606A216800780861606A401C1A
:101050006062618D491E6185218D491E89B221859D
:1010600022685369DB435B070BD451B100781061F0
:10107000606A401C6062608D401E6085208D401E4D
:1010800020852A464946204601F05CF90028CED149
:10109000208D0028C5D154F83D0B016841F4007142
:1010A0000160202004F81E09E67766770020C7E774
:1010B000FFE70220C4E70000020010000000FFFF6D
:1010C0007047704710B586B00021009101910291E0
:1010D000039100681349884222D1134CA06940F063
:1010E0000800A061A069694600F008000490C020D3
:1010F000009012200190032003900C48FFF770FC31
:10110000E06940F40010E061E069002200F40010A2
:10111000049011461F2000F073F81F2000F062F8C1
:1011200006B010BD0054004000100240000C014009
:1011300070477047024881680278114481607047A7
:101140000C000020074810B5016841F01001016053
:10115000032000F075F80F2000F006F800F024F8E6
:10116000002010BD0020024070B50D4D04464FF424
:101170007A712878B1FBF0F00A490968B1FBF0F008
:1011800000F0C6FB48B9102C07D200222146501EA1
:1011900000F036F800206C6070BD012070BD0000CA
:1011A0000C000020180000200C4808B5816941F0AF
:1011B00001018161816901F001010091C16941F082
:1011C0008051C161C06900F08050009004484168BE
:1011D00021F0E06141F00071416008BD0010024063
:1011E00000000140002809DB00F01F0201219140AE
:1011F0004009800000F1E020C0F8001170470000B5
:10120000F0B40E4B1B680C46C3F30223C3F1070571
:10121000042D00D90425191D072901D2002300E05F
:10122000DB1E012606FA05F1491E214099409E4029
:10123000761E16403143F0BC01F0BEB90CED00E063
:10124000064900F0070208684FF6FF03184040EA1D
:101250000220034A10430860704700000CED00E0D4
:101260000000FA0510B529A401461DCC86B08DE812
:101270001D002AA02A4C006804900020012923D0D8
:1012800002293AD010291DD161682268D20119D5EE
:10129000C1F38342C9031DF8020009D5616804AA9D
:1012A000C1F34041515C1F4AB2FBF1F1484301E0F8
:1012B0001D4948436168490204D440005FF00301BE
:1012C000B0FBF1F006B010BD226AC2F30121012982
:1012D00003D1920701D5C803F4E7022905D1626A58
:1012E000920702D549F64040ECE70329EAD121688C
:1012F0008903E7D54FF22440E4E700F033F9616851
:10130000C1F38131491C4900DAE7000002030405FA
:10131000060708090A0B0C0D0E0F10100102000041
:101320000010024000127A0000093D002DE9F84348
:1013300005460078354CC00754D0E0690026C0004F
:1013400008D4E06940F08050E061E069012600F0D7
:10135000805000902E480168C90512D4016880466B
:1013600041F480710160FFF72BFC074605E000BFE8
:10137000FFF726FCC01B642823D8D8F80000C0055E
:10138000F6D5206A10F4407021D0A98801F440718C
:1013900081421CD0206A1F49012220F440700A605B
:1013A00000220A602062C00711D0FFF709FC07463F
:1013B00041F2883808E000BFFFF702FCC11B41453D
:1013C00002D90320BDE8F883206A8007F4D5206A9B
:1013D000696820F44070084320621EB1E06920F083
:1013E0008050E0612878800705D56068A96820F4FE
:1013F0004040084360602878C00605D56068E96809
:1014000020F48000084360600020DBE70010024009
:1014100000700040400442422DE9F0470F460500AD
:1014200061D0434E306800F00700B84209D23068FE
:1014300020F0070038433060306800F00700B84201
:1014400051D128683B4C810712D5400703D560680D
:1014500040F4E06060602878000703D5606840F4DD
:10146000605060606068A96820F0F0000843606028
:101470002878C00728D06868012810D02168022881
:1014800010D0890700292EDA616821F00301014399
:101490006160FFF795FB804641F288390DE02168D5
:1014A0008903EFE78901EDE7FFF78AFBA0EB08016D
:1014B000494502D90320BDE8F0876068696800F0FB
:1014C0000C00B0EB810FEFD1306800F00700B8429C
:1014D0000BD9306820F0070038433060306800F0E6
:1014E0000700B84201D00120E5E72878400705D57C
:1014F0006068E96820F4E0600843606028780007CD
:1015000006D56068296920F4605040EAC100606037
:1015100000F038F86168084AC1F30311515CC84013
:101520000649086006480068FFF71EFE0020C2E773
:10153000002002400010024068300008180000201F
:10154000100000200448054900684968044AC1F3B6
:101550000221515CC8407047180000200010024072
:10156000783000080448054900684968044AC1F316
:10157000C221515CC8407047180000200010024092
:101580007830000812A185B00FC98DE80F0014A0B3
:10159000144A006804905168134801F00C03042BAE
:1015A00010D0082B0ED1C1F38343C9031DF80300EB
:1015B0000AD5516804AAC1F34041515C0A4A50431C
:1015C000B0FBF1F005B0704708494843FAE7000066
:1015D00002030405060708090A0B0C0D0E0F101074
:1015E000010200000010024000127A0000093D00D4
:1015F0002DE9F84F040070D02078C04DC00749D0C5
:101600006868C0F38100012807D06868C0F38100D2
:10161000022809D16868C00306D52868800339D537
:1016200060680028E7D035E06068B0F5803F0BD0F7
:1016300010B1B0F5A02F11D0286820F480302860B8
:10164000286820F4802002E0286840F48030286078
:10165000606890B1FFF7B4FA06460AE0286840F4E3
:1016600080202860F0E700BFFFF7AAFA801B6428FB
:1016700073D828688003F7D50CE0FFF7A1FA064677
:1016800005E000BFFFF79CFA801B6428F0D82868AB
:101690008003F7D420789A4E80074FF001094FF06D
:1016A000000839D5686810F00C0F07D06868C0F3DF
:1016B0008100022809D16868C00306D42868800721
:1016C00014D52069012808D110E02069B0B1C6F80E
:1016D0000090FFF775FA074605E00AE1FFF770FA98
:1016E000C01B0228C4D828688007F7D5286861691C
:1016F00020F0F80040EAC10028600DE0C6F8008044
:10170000FFF75EFA074604E0FFF75AFAC01B02280B
:1017100023D828688007F7D4207800072CD579488B
:10172000A169D9B1C0F80090FFF74AFA074604E072
:10173000FFF746FAC01B02280FD8686A8007F7D562
:1017400071484FF4FA510068B0FBF1F0009000BF0F
:101750000098411E0091FAD20EE080E0C0F80080AF
:10176000FFF72EFA074604E0FFF72AFAC01B02280B
:1017700075D8686A8007F7D42078400760D5E86993
:101780000027C00008D4E86940F08050E861E869AB
:10179000012700F0805000905C480168C90513D40F
:1017A0000168834641F480710160FFF709FA8246BF
:1017B00006E000BFFFF704FAA0EB0A0064284ED849
:1017C000DBF80000C005F5D5E06801280AD008B1B3
:1017D000052813D0286A20F001002862286A20F02A
:1017E000040002E0286A40F001002862E06841F24B
:1017F000883B98B1FFF7E4F982460BE0286A40F095
:1018000004002862EEE700BFFFF7DAF9A0EB0A0157
:1018100059455AD8286A8007F6D50CE0FFF7D0F969
:10182000824605E0FFF7CCF9A0EB0A0159454CD8F8
:10183000286A8007F6D41FB1E86920F08050E8617B
:10184000E06988B36968C1F38101022944D00228A4
:10185000C6F8608004D0FFF7B3F9044638E034E0FE
:10186000FFF7AEF9074604E0FFF7AAF9C01B02280C
:101870002BD828688001F7D4206AB0F5803F05D1C5
:101880006868A16820F4003008436860D4E9080162
:101890000843696821F4741108436860C6F86090D1
:1018A000FFF78EF9044606E025E000BFFFF788F950
:1018B000001B022809D828688001F7D51BE000BF6B
:1018C000FFF77EF9001B022802D90320BDE8F88F3C
:1018D00028688001F4D40EE00128F7D06868226AF5
:1018E00000F48031914204D1616A00F470108842A2
:1018F00001D00120EAE70020E8E7000000100240E4
:101900000000424280044242180000200070004063
:1019100010B5401EB0F1807F01D3012010BD4FF003
:10192000E02460610F21601700F046FE0020A061F6
:1019300007202061002010BDFEE700000148FFF7EE
:1019400047B900004C00002038B5406A002190F8EB
:101950003D202B4B46F2A8141B68B3FBF4F3C3EBFA
:10196000C30303EB830300933BB15B1E0093036847
:101970001B689B0505D5009BF6E7036C43F020032D
:101980000364436B03B19962836B03B1996203688B
:101990001C6824F480641C604185436B03B1596367
:1019A000836B03B1596303681C6824F001041C6055
:1019B00090F83D402023602C0BD0282434EA02020A
:1019C0000FD080F83D3080F83E1000BFFFF718FAC6
:1019D00038BD80F83D3080F83E100164FFF7F6F81E
:1019E00038BD0268136843F001031360026813688E
:1019F00043F480631360016380F83D40E6E7000034
:101A00001800002070B5044690F83D0094F83E1090
:101A1000102901D0402906D1222804D121680A6862
:101A200022F400620A60282131EA00024FF000052A
:101A30004FF0200626D021684968090505D46028A2
:101A400003D084F83D6084F83E50256320684168E7
:101A5000090537D5416821F400614160606B3D495B
:101A600090F82120012A11D04163606BFEF756FFE8
:101A700038B32068016821F00101016084F83D60FD
:101A8000606B1CE0256384F83D10DFE7A06B4163C9
:101A9000A06BFEF743FFA0B120684169C943490626
:101AA00005D40069616A0870606A401C6062206841
:101AB000016821F00101016084F83D60A06B416B79
:101AC000884710E094F83D10602910D04169C9435F
:101AD000490605D40069616A0870606A401C60624A
:101AE0002046FFF78DF9206CC1071CD115E084F862
:101AF0003D6025644169C943490605D40069616AAE
:101B00000870606A401C60622068016821F0010171
:101B100001602046FFF75AF8E5E7810703D4410743
:101B200001D4000704D52068416821F4E0614160D8
:101B300094F83D00216C49070BD5282809D10648A7
:101B4000E062256384F83D6084F83E502046FFF74C
:101B50001DFA70BD491900080000FFFF01684A69BD
:101B6000D24352050FD46FF480624A61002140F8DD
:101B7000301F202242738173026942F00402026125
:101B80000173012070470020704710B5C26A438D71
:101B90000168042B06D0438D032B08D0438D022B04
:101BA0001DD012E04A6822F480624A600CE04B6863
:101BB00023F480634B60042A06D0022A04D0016813
:101BC0000A6822F480620A6001680969426A117039
:101BD000416A491C4162418D491E418510BD012A5F
:101BE00030D0102A2ED0042A30D0022A2ED00A68F3
:101BF00042F400720A6001680969426A1170416A20
:101C0000491C4162428D521E4285026812690A7067
:101C1000416A491C4162418D491E418501684A68FB
:101C200022F440724A60202180F83D1090F83E2056
:101C30000021402A80F83E100CD012210163FFF7EA
:101C4000A6F910BD0A6822F48062D3E70A6842F45C
:101C50008062CFE70163FFF733FA10BD38B590F823
:101C60003D10222914D1418D032912D90168096937
:101C7000426A1170416A491C4162418D491E418589
:101C8000418D032904D10068416821F480614160DD
:101C900038BDC26A022AFBD0012901D00029F7D140
:101CA000274946F2A81300220968B1FBF3F101EBC2
:101CB0008101009101682023009C641E009422D0C1
:101CC0000C68A405F8D40C6824F480640C600168E6
:101CD0004C6824F4E0644C6001680969446A21702E
:101CE000416A491C4162418D491E418580F83D3061
:101CF00090F83E1080F83E2040291DD0122101634B
:101D0000FFF745F938BD046C44F0200404644C68C6
:101D100024F4E0644C6001680969446A2170416AF6
:101D2000491C4162418D491E418580F83D3080F853
:101D30003E20FFF765F838BD0263FFF7C1F938BDF3
:101D400018000020F8B50446C06A1E460D46174626
:101D5000082807D0012805D010F5803F02D0206B5D
:101D6000122804D12068016841F480710160134693
:101D700000224FF001112046009600F009FB40B10F
:101D800020680068C00502D54FF40070206403206D
:101D9000F8BD2069B0F5804F0ED00620216800EA1A
:101DA000D51040F0F000086133463A460B49204612
:101DB00000F022FB78B902E005F0FE0000E0E8B296
:101DC00021680861054933463A46891F204600F0DC
:101DD00013FB0028DCD00120F8BD00000800010042
:101DE00010B5C26A90F83D1021290BD1418D51B137
:101DF000416A026809781161416A491C4162418D5A
:101E0000491E418510BD20230021082A13D0202A15
:101E100011D012F5803F0ED00268546824F4E064BB
:101E200054601122026380F83E1080F83D3000BFFC
:101E3000FFF7AEF810BD0268546824F4E064546003
:101E40000268146844F400741460016380F83D3043
:101E500090F83E2080F83E10402AE9D1FFF731F992
:101E600010BD000010B590F83D1090F83E30C26AE9
:101E7000048DB4B1212903D0402B11D122290FD1D7
:101E8000418DE1B390F83E10402942D0416A02688A
:101E900009781161416A491C4162418D491E4185A1
:101EA00010BD2129E8D120230021082A13D0202A9F
:101EB00011D012F5803F0ED00268546824F4E0641B
:101EC00054601122026380F83E1080F83D3000BF5C
:101ED000FFF75EF810BD0268546824F4E0645460B3
:101EE0000268146844F400741460016380F83D30A3
:101EF00090F83E2080F83E10402AE9D100E002E050
:101F0000FFF7DFF810BD0068416821F4806141608F
:101F100010BDBDE8104000F0F3B8000078B590F8AF
:101F20003E50C26A046B90F83D6000230168222E87
:101F300073D1066D0EB9402D6FD0056D1DB90569C1
:101F4000B5F5404F1BD0458D95B3468D484D012EBC
:101F500020D0448D022C4DD00C6844F480640C6079
:101F600001684C68240579D5AA4273D0012A71D042
:101F7000082A6FD0102A6DD0202A6BD06EE04A69F3
:101F80008A6900920A6842F480720A60016D491CF5
:101F9000016578BDAA4214D10A6822F480620A6001
:101FA00001684A68120504D50A6822F4806217E0C5
:101FB000FFE74A698A6900920A6842F400720A607F
:101FC00050E0082A10D0202A0ED0122C0AD0042A61
:101FD00003D0022A01D0102AE6D10A6842F48062B6
:101FE0000A603BE0012ADFD00A6822F480620A60BE
:101FF0000168DEE7042A11D0022A0FD0102A0DD082
:102000000C6844F400640C6001684C698C690094AD
:102010000C6824F480640C6008E025E00C6844F44B
:1020200080640C6001684C698969009101684C68A2
:10203000240517D5AA4207D0012A05D0082A03D0C3
:10204000102A01D0202A0DD14A6842F480524A60F9
:1020500008E0FFE74A6842F480524A6001684A6932
:1020600089690091036578BD48698869009078BDE9
:102070000000FFFF90F83E10402910D00169B1F533
:10208000804F19D0016DA9B3016D012910D1416CA8
:102090005FF0F10201F4407142EAD11106E0016DF6
:1020A0000029416C05D0C9B241F00101006801610D
:1020B000704701F0FE01F9E790F83D102129416CCD
:1020C00009D0C9B241F0010102681161416B29B127
:1020D000896A49B902E001F0FE01F5E7816B002948
:1020E000E6D0896A0029E3D00068416841F40061C4
:1020F00041607047FFE7416CF02201F44071CBE78B
:1021000010B590F83D10026D22B3026D012A2FD058
:10211000026D022A1DD122292FD0428D0AB1212918
:1021200033D0428D002A14D1212912D101684A6886
:1021300022F4E0624A6001680A6842F400720A60B0
:1021400000210163202280F83D2080F83E10FEF738
:10215000B8FF10BDC16C0129816C02D0C1F3072109
:1021600008E00268C9B21161016D891C016510BDEA
:10217000816CC9B20268116104E001680A6842F426
:1021800080720A60016D491CF0E7416A02680978B3
:102190001161416A491C4162418D491E418510BD52
:1021A00038B50C4690F83D2000212825954302685B
:1021B0000B4605D051699169009180F83C3038BDDB
:1021C000556825F480655560E243540700D5012128
:1021D000120601D5828900E0028B80F83C3092B271
:1021E000FEF7F5FC38BD0000F8B590F83D600446F8
:1021F0000068416821F4E061416020680025416980
:102200000091016841F0010101602068016821F43A
:102210008061016020684168090520D5474F222E62
:1022200048D02A2E46D0616B096849686185618D66
:1022300019B1216C41F004012164416821F400616D
:102240004160606BFEF7B6FB012808D0606B476306
:10225000606BFEF763FB10B1606B416B8847608D6C
:1022600008B320684169C943490708D40069616A15
:102270000870606A401C6062608D401E6085206846
:102280004169C943490608D40069616A0870606AF7
:10229000401C6062608D401E6085608D18B1206CAE
:1022A00040F004002064206C00B32046BDE8F840F4
:1022B000FFF7A8BBA16B096849686185618D19B1F9
:1022C000216C41F004012164416821F40061416006
:1022D000A06BFEF76FFB0128C1D0A06B4763A06B1A
:1022E000FEF71CFB0028BAD0A06BB6E72A2E06D159
:1022F0002563282084F83D002046FEF719FF94F856
:102300003D10202028290DD0216B222901D0222E1A
:1023100007D1256384F83D0084F83E502046FEF73F
:1023200007FFF8BD0649E162256384F83D0084F8A3
:102330003E502046FEF72AFEF8BD0000491900086D
:102340000000FFFF70B516460D4604460DE020461E
:10235000FFF704FC08B1012070BD681C05D0FEF732
:102360002FFC801BA84207D835B120684069C043C4
:102370004007ECD4002070BD002044F8300F20212D
:102380006173A073216941F0200121612073E2E7AC
:102390002DE9F0471E4690460D460446C1F3074717
:1023A000DDF8209008E0701C06D0FEF709FCA0EBD9
:1023B0000900B0420FD876B12068012F18D080698B
:1023C00025EA00000004000C14D000214145EAD0A9
:1023D0000020BDE8F087002044F8300F2021617311
:1023E000A073216941F02001216120730120F0E7F1
:1023F0004069E5E70121E9E72DE9F0479A46914672
:102400000E46044600254FF02008C1F3074725E09B
:1024100020684069C043400514D42068016841F435
:102420000071016021686FF480604861256384F861
:102430003D8084F83E50206C40F00400206484F815
:102440003C501FE0B9F1FF3F08D0FEF7B9FBA0EB0D
:102450000A0149450CD8B9F1000F09D02068012FB5
:1024600013D0806926EA00000004000C0BD0CFE7EF
:1024700044F8305F84F80D80A573206940F0200097
:10248000206125730120BDE8F0874069EAE770B557
:1024900016460D4604460DE02046FFF75FFB08B1E7
:1024A000012070BD681C05D0FEF78AFB801BA84286
:1024B00007D835B120684069C0430006ECD400203D
:1024C00070BD002044F8300F20216173A073216992
:1024D00041F0200121612073E2E700003EB50021B8
:1024E000164800910191144A02910260921582608F
:1024F00001240473017502254FF460220561C26155
:102500004160FEF72FF808B172B6FEE7072000948D
:10251000CDE9014069460948FDF72EFF08B172B6C2
:10252000FEE70095694605480195FDF725FF00285F
:1025300001D072B6FEE73EBD002401401C00002021
:10254000FEE7FEE770477047FEF7F4BD30B593B085
:1025500028216846FDF738FE14210AA8FDF734FE4D
:10256000002401200F94022504900095102011945E
:1025700005901094129407946846FFF739F808B153
:1025800072B6FEE70F20CDE90A040C940D940021E9
:102590000AA80E94FEF740FF08B172B6FEE70FA836
:1025A0000F951194FEF7C2FE002801D072B6FEE727
:1025B00013B030BD7047FEE70907090E002804DBA1
:1025C00000F1E02080F80014704700F00F0000F1E7
:1025D000E02080F8141D704710B53220FEF7EEF9A8
:1025E000302000F04BF80520FEF7E8F9302000F02D
:1025F00045F80120FEF7E2F9302000F03FF80A200C
:10260000FEF7DCF9202000F039F80A20FEF7D6F9B1
:10261000282000F033F80120FEF7D0F9082000F060
:102620002DF80120FEF7CAF9012000F027F801205B
:10263000FEF7C4F90120FEF7C1F9062000F01EF8EC
:102640000120FEF7BBF9BDE810400C2000F016B8E1
:1026500030B1012807D0022808D003280BD108E0A8
:1026600041F0800107E041F0400104E041F0140135
:1026700001E041F05401C8B2AFF300801CB500F096
:10268000F00141F00C028DF8042041F00801000136
:102690008DF8051040F00C018DF8061040F0080090
:1026A0008DF8070064200090042301AA4E210248FF
:1026B000FEF770FC1CBD00004C0000201CB500F0B3
:1026C000F00141F00D028DF8042041F009010001F4
:1026D0008DF8051040F00D018DF8061040F009004E
:1026E0008DF8070064200090042301AA4E210248BF
:1026F000FEF750FC1CBD00004C00002010B5044645
:1027000002E0641CFFF7DAFF20780028F9D110BD41
:1027100008B5FEF717FDFFF719FF6C48816941F016
:1027200010018161816901F010010091816941F01E
:1027300020018161816901F020010091816941F0EE
:1027400004018161816901F004010091816941F016
:1027500008018161806900F008000090FFF7BEFE6B
:102760005C485B494FF4804201605B494160002155
:102770008160C0E9031241618161C1610162FEF7BC
:1027800041FB08B172B6FEE7FFF726FF534CDFF8B6
:1027900050A1DFF850814FF496754FF066374FF037
:1027A000640B4FF00A094B483038FEF73DF84948B2
:1027B00029463038FDF79AFF46483038FDF75BFE72
:1027C00080B2208000F02AFA00225646534600F0DC
:1027D000CDF800F099F800F033FB3A46434600F09C
:1027E00031FA00F091F860603A4829463038FDF738
:1027F0007DFF38483038FDF73EFE80B2608000F043
:102800000DFA0022334600F0B1F800F07DF800F038
:1028100017FB3A46434600F015FA00F075F8002120
:10282000A0600846FFF714FF2FA0FFF767FF21887D
:10283000B1FBFBF03030C0B2FFF740FF20884E46BE
:10284000B0FBF6F0B0FBF6F109FB11003030FFF7FA
:1028500035FF2088B0FBF6F106FB11003030FFF7A2
:102860002DFFC020FFF70AFF22A0FFF747FF606897
:1028700000F012FB90FBF6F106FB11003030C0B205
:10288000FFF71CFF1DA0FFF739FF1D49606800F02E
:102890001FFB00F001FB90FBF6F106FB110030304E
:1028A000C0B2FFF70BFF1749606800F011FB00F0A2
:1028B000F3FA90FBF6F106FB11003030C0B2FFF7DF
:1028C000FDFE04483038FEF70FF86CE700100240B8
:1028D000005400404C000020A086010000000020B1
:1028E00000FEAF4066660A4056616C7565313A205D
:1028F0000000000056696E3A200000002E00000023
:10290000000020410000C84221F00042A2F16052C4
:10291000B2F5801F01F0004328BFD2F17F6C0BD9C4
:102920005FEA001C43EAC20242EB507018BF7047D6
:1029300028BF20F001007047B2F5801FBCBF1846C9
:1029400070474FEA410C1CF5001F02D2084600F008
:1029500086BB70B500F020FA00000089FFF7F6BFD3
:102960004FF00040A0F58000704700002DE9C04105
:1029700030B4DFF8A0C23CEA111418BF3CEA1314CB
:1029800000F0EC8081EA03051CEA111444EAD574D6
:1029900018BF1CEA131500F0C780A4EB05044FF024
:1029A000004545EAC12145EAC32341EA505143EAC3
:1029B000525304F17F74994204F500344FEAC02069
:1029C0004FEAC22208BF904200F09C804FEA136594
:1029D0000FF24016765D4FEA134506FB05F7C7F187
:1029E000807706FB07F74FEAD737A7FB03687642E5
:1029F000C8F58038A7FB06CE38BFA8F1010807FB51
:102A000008E64FF0000EA6FB028CE6FB03CEDCF1DD
:102A1000000CCEF1004E38BFAEF1010EA6FB0C58F3
:102A20004FF000074FF00005E6FB0E87A1FB08C63C
:102A3000A0FB07CE16EB0E0645F10005E1FB07658E
:102A400015F1E04E7EBFA4F580345FEA46066D4185
:102A500016F1800745F100054FEA17274FEA066691
:102A600047EA0567A6F1DE46B6F1805F4FEA152515
:102A70001FD9384624F0010C05EBC471BCF1FE6F80
:102A800001EB0C1102D8F0BCBDE8008124425CBF10
:102A900001F5801E9EEAC47F02D4F0BCBDE800812F
:102AA000244238D4F0BCA1F1C041BDE8004100F09F
:102AB000C1B94FEAD22242EA43524FEAD323A7FBDD
:102AC00002864FEAD02040EA415007FB03661EEA27
:102AD0000E0F4FEAD12105FB026658BFA6EB005648
:102AE000B6EB00564FEA520E4EEAC37E18EB0E0EBE
:102AF00056EB530EBDD518EB02085E417F1C55F115
:102B00000005B6E74FF480154FF000074FF00006C0
:102B10004FF00008ADE7F0BC4FF0000001F1C041FC
:102B200001F00041BDE8008111EA0C1F0CEA131509
:102B300000D00CE013EA0C1F00F025804FF00000DD
:102B4000F0BC81EA030101F00041BDE80081F0BC66
:102B5000BDE8004181EA030100F06CB9F0BCBDE8BA
:102B6000004170B500F018F9097EFC3E00F007B88E
:102B700081EA03014FF0000001F00041704781EA53
:102B8000030100F057B9F0BCBDE800414FF0000070
:102B900021497047FFFDFBF9F7F5F4F2F0EEEDEB9C
:102BA000E9E8E6E4E3E1E0DEDDDBDAD8D7D5D4D34B
:102BB000D1D0CFCDCCCBCAC8C7C6C5C4C2C1C0BF97
:102BC000BEBDBCBBBAB9B8B7B6B5B4B3B2B1B0AF9D
:102BD000AEADACABAAA9A8A8A7A6A5A4A3A3A2A181
:102BE000A09F9F9E9D9C9C9B9A999998979796953C
:102BF00095949393929191908F8F8E8E8D8C8C8BD8
:102C00008B8A89898888878786858584848383825F
:102C1000828181800000FF070000F87FB0FA80F316
:102C200010FA03F10AD0C3F11D0303F580634FEAE4
:102C300041504FEA035202EBD12170474FF00000A0
:102C400070470000DFF848C170B51CEA111E1EBFB6
:102C50001CEA13159EEA0C0F95EA0C0F00F06F802A
:102C600081EA030423EA4C134EEAD47E21EA4C1194
:102C700041F4801143F48013AE44A1FB024CA0FB4D
:102C80000365AEF17F7E361955EB0C05A1FB034CB5
:102C90004CF10003A0FB021C16EB0C06654153F13E
:102CA0000003094218BF46F0010613F4007F0BD160
:102CB0004FEA03314FEA0530340341EA155140EA47
:102CC00016506FF003020AE04FEAC3214FEAC52015
:102CD000F40241EA555140EA56506FF0020202EB0D
:102CE0002E4201EB025585EACE710AD05FEA440C10
:102CF00018BF24F0004450F1000041F1000120EA27
:102D0000D47040F2FE7C624500D270BDA84214BF70
:102D10004FF080444FF04044002E08BF0024BEF125
:102D2000806FA8BFA1F1C041BDE8704080F28280F1
:102D30004FF0000001F1C04101F0004170479EEAF0
:102D40000C0F0CEA131518BF95EA0C0F06D04FF0C4
:102D5000000081EA030E0EF0004170BD00F01CF887
:102D60008900013E00F007B800F009B84FEA430CB3
:102D70005FEA5C5C08D081EA030100F05BB84FEACF
:102D8000410C5FEA5C5CF6D14FF0000001497047EE
:102D90000000FF070000F87F0EF1020E2EF0030E78
:102DA0005EF8046B364205D4012A43EB030515F5A2
:102DB000001F12D8012841EB010C1CF5001F0CD894
:102DC0000ED14FEAD17C15F5001F0CEB4C0C0CF129
:102DD000020C08BF4CEBD37C04E04FF0080C01E080
:102DE0004FEAD37C0CEB4C0526FA05F606F00706F5
:102DF000B6F1040C06D20EEB860CBDE870404CF028
:102E0000010C6047DFE80CF0090B02024FF00041B3
:102E10004FF00000A1F5002170BD194610460128B1
:102E200051EB010418BFD4F5001484BF002001F059
:102E3000004170BD0808A0F500114FEA310170474C
:102E400043004FEAD30C4FEA3C0C43401FBF4007FE
:102E50000CF1605113F0FE4F70471CF0006F03D16E
:102E600000200CF0004170470CF0004343EA507022
:102E700010B540EACC0000F0ACF800BF00000092B2
:102E80004FEA0001FFF7D6BF4FF000414FF00000BE
:102E9000A1F500217047000041000B0ED3F19E0206
:102EA00008D950F400034FEA032323FA02F048BF85
:102EB0004042704710B500F08CF800BF4992248062
:102EC000002070476FF0004282EA20007047000047
:102ED0004FF47F0C1CEAD0121EBF1CEAD11392EAF9
:102EE0000C0F93EA0C0F00F0478090EA010F48BFE7
:102EF00042F480724FF0004C4CEA00204CEA012171
:102F000002EB0302A0FB0113A2F50002002918BF87
:102F100043F001035B0028BF4FEA330342EB224238
:102F20005FEA132C4CEBC2502EBFBCEB436FB2F5E3
:102F30007C0F70474FEA036CBCF1004F08BF20F0D4
:102F40000100B2F57C0F38BF70470BD582F0FF024D
:102F500012F5803FC8BF704700F1C040D8BF00F0F5
:102F60000040704700F5000C5FEA4C0C48BF70470A
:102F7000B0F1C04000F073B890EA010F0CEAD11331
:102F800048BF42F48072624538BF634504D280EA8C
:102F9000010000F00040704710B500F01AF800BFC3
:102FA0008900013E00F007B800F009B85FEA410C63
:102FB0005FEA1C6C08D080EA010000F050B85FEABC
:102FC000400C5FEA1C6CF6D14FF00040A0F5800089
:102FD00070470EF1020E2EF0030E5EF8044B2442F1
:102FE00004D44FEA4102B2F17F4F11D84FEA4003B7
:102FF000B3F17F4F0CD80ED14FEAD07CB2F17F4FA6
:103000000CEB4C0C0CF1020C08BF4CEBD17C04E037
:103010004FF0080C01E04FEAD17C0CEB4C0324FA92
:1030200003F404F00704B4F1040C06D20EEB840C94
:10303000BDE810404CF0010C6047DFE80CF00708D9
:1030400002024FF00040A0F5800010BD084642008B
:1030500018BFD2F1807288BF00F0004010BDFF2180
:1030600041EAD050C0057047000000000000000099
:10307000010203040607080900000000010203041E
:10308000A0300008000000201C00000028010008FB
:10309000BC3000081C000020E406000044010008C9
:1030A000000000000000000000000000010000001F
:0C30B00010000000000000000024F400EC
:04000005080000ED02
:00000001FF
